{
  "_format": "hh-sol-artifact-1",
  "contractName": "Algoz",
  "sourceName": "contracts/Algoz.sol",
  "abi": [
    {
      "inputs": [
        {
          "internalType": "address",
          "name": "_token_verifier",
          "type": "address"
        },
        {
          "internalType": "bool",
          "name": "_verify_enabled",
          "type": "bool"
        },
        {
          "internalType": "uint256",
          "name": "_proof_ttl",
          "type": "uint256"
        }
      ],
      "stateMutability": "nonpayable",
      "type": "constructor"
    },
    {
      "anonymous": false,
      "inputs": [
        {
          "indexed": true,
          "internalType": "address",
          "name": "previousOwner",
          "type": "address"
        },
        {
          "indexed": true,
          "internalType": "address",
          "name": "newOwner",
          "type": "address"
        }
      ],
      "name": "OwnershipTransferred",
      "type": "event"
    },
    {
      "inputs": [
        {
          "internalType": "uint256",
          "name": "_proof_ttl",
          "type": "uint256"
        }
      ],
      "name": "changeProofTtl",
      "outputs": [],
      "stateMutability": "nonpayable",
      "type": "function"
    },
    {
      "inputs": [
        {
          "internalType": "bytes32",
          "name": "",
          "type": "bytes32"
        }
      ],
      "name": "consumed_token",
      "outputs": [
        {
          "internalType": "bool",
          "name": "",
          "type": "bool"
        }
      ],
      "stateMutability": "view",
      "type": "function"
    },
    {
      "inputs": [],
      "name": "owner",
      "outputs": [
        {
          "internalType": "address",
          "name": "",
          "type": "address"
        }
      ],
      "stateMutability": "view",
      "type": "function"
    },
    {
      "inputs": [],
      "name": "proof_ttl",
      "outputs": [
        {
          "internalType": "uint256",
          "name": "",
          "type": "uint256"
        }
      ],
      "stateMutability": "view",
      "type": "function"
    },
    {
      "inputs": [],
      "name": "renounceOwnership",
      "outputs": [],
      "stateMutability": "nonpayable",
      "type": "function"
    },
    {
      "inputs": [],
      "name": "setVerifiedEnabledFalse",
      "outputs": [],
      "stateMutability": "nonpayable",
      "type": "function"
    },
    {
      "inputs": [],
      "name": "setVerifiedEnabledTrue",
      "outputs": [],
      "stateMutability": "nonpayable",
      "type": "function"
    },
    {
      "inputs": [],
      "name": "token_verifier",
      "outputs": [
        {
          "internalType": "address",
          "name": "",
          "type": "address"
        }
      ],
      "stateMutability": "view",
      "type": "function"
    },
    {
      "inputs": [
        {
          "internalType": "address",
          "name": "newOwner",
          "type": "address"
        }
      ],
      "name": "transferOwnership",
      "outputs": [],
      "stateMutability": "nonpayable",
      "type": "function"
    },
    {
      "inputs": [
        {
          "internalType": "bytes32",
          "name": "expiry_token",
          "type": "bytes32"
        },
        {
          "internalType": "bytes32",
          "name": "auth_token",
          "type": "bytes32"
        },
        {
          "internalType": "bytes",
          "name": "signature_token",
          "type": "bytes"
        }
      ],
      "name": "validate_token",
      "outputs": [],
      "stateMutability": "nonpayable",
      "type": "function"
    },
    {
      "inputs": [],
      "name": "verify_enabled",
      "outputs": [
        {
          "internalType": "bool",
          "name": "",
          "type": "bool"
        }
      ],
      "stateMutability": "view",
      "type": "function"
    }
  ],
  "bytecode": "0x60806040523480156200001157600080fd5b5060405162001caf38038062001caf8339818101604052810190620000379190620002b6565b620000576200004b6200010860201b60201c565b6200011060201b60201c565b600081116200009d576040517f08c379a0000000000000000000000000000000000000000000000000000000008152600401620000949062000373565b60405180910390fd5b82600260006101000a81548173ffffffffffffffffffffffffffffffffffffffff021916908373ffffffffffffffffffffffffffffffffffffffff16021790555081600260146101000a81548160ff0219169083151502179055508060038190555050505062000395565b600033905090565b60008060009054906101000a900473ffffffffffffffffffffffffffffffffffffffff169050816000806101000a81548173ffffffffffffffffffffffffffffffffffffffff021916908373ffffffffffffffffffffffffffffffffffffffff1602179055508173ffffffffffffffffffffffffffffffffffffffff168173ffffffffffffffffffffffffffffffffffffffff167f8be0079c531659141344cd1fd0a4f28419497f9722a3daafe3b4186f6b6457e060405160405180910390a35050565b600080fd5b600073ffffffffffffffffffffffffffffffffffffffff82169050919050565b60006200020682620001d9565b9050919050565b6200021881620001f9565b81146200022457600080fd5b50565b60008151905062000238816200020d565b92915050565b60008115159050919050565b62000255816200023e565b81146200026157600080fd5b50565b60008151905062000275816200024a565b92915050565b6000819050919050565b62000290816200027b565b81146200029c57600080fd5b50565b600081519050620002b08162000285565b92915050565b600080600060608486031215620002d257620002d1620001d4565b5b6000620002e28682870162000227565b9350506020620002f58682870162000264565b925050604062000308868287016200029f565b9150509250925092565b600082825260208201905092915050565b7f416c676f7a496e76616c6964546f6b656e54544c000000000000000000000000600082015250565b60006200035b60148362000312565b9150620003688262000323565b602082019050919050565b600060208201905081810360008301526200038e816200034c565b9050919050565b61190a80620003a56000396000f3fe608060405234801561001057600080fd5b50600436106100a95760003560e01c80638da5cb5b116100715780638da5cb5b14610106578063d2a0ec1614610124578063e61fc64f14610142578063f2fde38b1461015e578063f3357b261461017a578063fe7ed95914610198576100a9565b80630658ad99146100ae57806315dafafd146100cc5780635f8a5a78146100e8578063715018a6146100f257806384666da8146100fc575b600080fd5b6100b66101c8565b6040516100c39190610cef565b60405180910390f35b6100e660048036038101906100e19190610d40565b6101ce565b005b6100f06101e0565b005b6100fa610254565b005b610104610268565b005b61010e6102dd565b60405161011b9190610dae565b60405180910390f35b61012c610306565b6040516101399190610de4565b60405180910390f35b61015c60048036038101906101579190610e9a565b610319565b005b61017860048036038101906101739190610f3a565b610525565b005b6101826105a9565b60405161018f9190610dae565b60405180910390f35b6101b260048036038101906101ad9190610f67565b6105cf565b6040516101bf9190610de4565b60405180910390f35b60035481565b6101d66105ef565b8060038190555050565b6101e86105ef565b600260149054906101000a900460ff16610237576040517f08c379a000000000000000000000000000000000000000000000000000000000815260040161022e90610ff1565b60405180910390fd5b6000600260146101000a81548160ff021916908315150217905550565b61025c6105ef565b610266600061066d565b565b6102706105ef565b600260149054906101000a900460ff16156102c0576040517f08c379a00000000000000000000000000000000000000000000000000000000081526004016102b79061105d565b60405180910390fd5b6001600260146101000a81548160ff021916908315150217905550565b60008060009054906101000a900473ffffffffffffffffffffffffffffffffffffffff16905090565b600260149054906101000a900460ff1681565b600260149054906101000a900460ff166103325761051f565b6001600084815260200190815260200160002060009054906101000a900460ff1615610393576040517f08c379a000000000000000000000000000000000000000000000000000000000815260040161038a906110c9565b60405180910390fd5b436103a38560001c600354610731565b10156103e4576040517f08c379a00000000000000000000000000000000000000000000000000000000081526004016103db90611135565b60405180910390fd5b600260009054906101000a900473ffffffffffffffffffffffffffffffffffffffff1673ffffffffffffffffffffffffffffffffffffffff1661049d83838080601f016020809104026020016040519081016040528093929190818152602001838380828437600081840152601f19601f8201169050808301925050505050505061048f878760405160200161047b929190611176565b604051602081830303815290604052610747565b61078290919063ffffffff16565b73ffffffffffffffffffffffffffffffffffffffff16146104f3576040517f08c379a00000000000000000000000000000000000000000000000000000000081526004016104ea906111ee565b60405180910390fd5b600180600085815260200190815260200160002060006101000a81548160ff0219169083151502179055505b50505050565b61052d6105ef565b600073ffffffffffffffffffffffffffffffffffffffff168173ffffffffffffffffffffffffffffffffffffffff16141561059d576040517f08c379a000000000000000000000000000000000000000000000000000000000815260040161059490611280565b60405180910390fd5b6105a68161066d565b50565b600260009054906101000a900473ffffffffffffffffffffffffffffffffffffffff1681565b60016020528060005260406000206000915054906101000a900460ff1681565b6105f76107a9565b73ffffffffffffffffffffffffffffffffffffffff166106156102dd565b73ffffffffffffffffffffffffffffffffffffffff161461066b576040517f08c379a0000000000000000000000000000000000000000000000000000000008152600401610662906112ec565b60405180910390fd5b565b60008060009054906101000a900473ffffffffffffffffffffffffffffffffffffffff169050816000806101000a81548173ffffffffffffffffffffffffffffffffffffffff021916908373ffffffffffffffffffffffffffffffffffffffff1602179055508173ffffffffffffffffffffffffffffffffffffffff168173ffffffffffffffffffffffffffffffffffffffff167f8be0079c531659141344cd1fd0a4f28419497f9722a3daafe3b4186f6b6457e060405160405180910390a35050565b6000818361073f919061133b565b905092915050565b600061075382516107b1565b8260405160200161076592919061149e565b604051602081830303815290604052805190602001209050919050565b60008060006107918585610912565b9150915061079e81610995565b819250505092915050565b600033905090565b606060008214156107f9576040518060400160405280600181526020017f3000000000000000000000000000000000000000000000000000000000000000815250905061090d565b600082905060005b6000821461082b578080610814906114cd565b915050600a826108249190611545565b9150610801565b60008167ffffffffffffffff81111561084757610846611576565b5b6040519080825280601f01601f1916602001820160405280156108795781602001600182028036833780820191505090505b5090505b600085146109065760018261089291906115a5565b9150600a856108a191906115d9565b60306108ad919061133b565b60f81b8183815181106108c3576108c261160a565b5b60200101907effffffffffffffffffffffffffffffffffffffffffffffffffffffffffffff1916908160001a905350600a856108ff9190611545565b945061087d565b8093505050505b919050565b6000806041835114156109545760008060006020860151925060408601519150606086015160001a905061094887828585610b6a565b9450945050505061098e565b60408351141561098557600080602085015191506040850151905061097a868383610c77565b93509350505061098e565b60006002915091505b9250929050565b600060048111156109a9576109a8611639565b5b8160048111156109bc576109bb611639565b5b14156109c757610b67565b600160048111156109db576109da611639565b5b8160048111156109ee576109ed611639565b5b1415610a2f576040517f08c379a0000000000000000000000000000000000000000000000000000000008152600401610a26906116b4565b60405180910390fd5b60026004811115610a4357610a42611639565b5b816004811115610a5657610a55611639565b5b1415610a97576040517f08c379a0000000000000000000000000000000000000000000000000000000008152600401610a8e90611720565b60405180910390fd5b60036004811115610aab57610aaa611639565b5b816004811115610abe57610abd611639565b5b1415610aff576040517f08c379a0000000000000000000000000000000000000000000000000000000008152600401610af6906117b2565b60405180910390fd5b600480811115610b1257610b11611639565b5b816004811115610b2557610b24611639565b5b1415610b66576040517f08c379a0000000000000000000000000000000000000000000000000000000008152600401610b5d90611844565b60405180910390fd5b5b50565b6000807f7fffffffffffffffffffffffffffffff5d576e7357a4501ddfe92f46681b20a08360001c1115610ba5576000600391509150610c6e565b601b8560ff1614158015610bbd5750601c8560ff1614155b15610bcf576000600491509150610c6e565b600060018787878760405160008152602001604052604051610bf4949392919061188f565b6020604051602081039080840390855afa158015610c16573d6000803e3d6000fd5b505050602060405103519050600073ffffffffffffffffffffffffffffffffffffffff168173ffffffffffffffffffffffffffffffffffffffff161415610c6557600060019250925050610c6e565b80600092509250505b94509492505050565b60008060007f7fffffffffffffffffffffffffffffffffffffffffffffffffffffffffffffff60001b841690506000601b60ff8660001c901c610cba919061133b565b9050610cc887828885610b6a565b935093505050935093915050565b6000819050919050565b610ce981610cd6565b82525050565b6000602082019050610d046000830184610ce0565b92915050565b600080fd5b600080fd5b610d1d81610cd6565b8114610d2857600080fd5b50565b600081359050610d3a81610d14565b92915050565b600060208284031215610d5657610d55610d0a565b5b6000610d6484828501610d2b565b91505092915050565b600073ffffffffffffffffffffffffffffffffffffffff82169050919050565b6000610d9882610d6d565b9050919050565b610da881610d8d565b82525050565b6000602082019050610dc36000830184610d9f565b92915050565b60008115159050919050565b610dde81610dc9565b82525050565b6000602082019050610df96000830184610dd5565b92915050565b6000819050919050565b610e1281610dff565b8114610e1d57600080fd5b50565b600081359050610e2f81610e09565b92915050565b600080fd5b600080fd5b600080fd5b60008083601f840112610e5a57610e59610e35565b5b8235905067ffffffffffffffff811115610e7757610e76610e3a565b5b602083019150836001820283011115610e9357610e92610e3f565b5b9250929050565b60008060008060608587031215610eb457610eb3610d0a565b5b6000610ec287828801610e20565b9450506020610ed387828801610e20565b935050604085013567ffffffffffffffff811115610ef457610ef3610d0f565b5b610f0087828801610e44565b925092505092959194509250565b610f1781610d8d565b8114610f2257600080fd5b50565b600081359050610f3481610f0e565b92915050565b600060208284031215610f5057610f4f610d0a565b5b6000610f5e84828501610f25565b91505092915050565b600060208284031215610f7d57610f7c610d0a565b5b6000610f8b84828501610e20565b91505092915050565b600082825260208201905092915050565b7f566572696679456e61626c656420697320616c72656164792066616c73650000600082015250565b6000610fdb601e83610f94565b9150610fe682610fa5565b602082019050919050565b6000602082019050818103600083015261100a81610fce565b9050919050565b7f566572696679456e61626c656420697320616c72656164792074727565000000600082015250565b6000611047601d83610f94565b915061105282611011565b602082019050919050565b600060208201905081810360008301526110768161103a565b9050919050565b7f416c676f7a436f6e73756d6564546f6b656e4572726f72000000000000000000600082015250565b60006110b3601783610f94565b91506110be8261107d565b602082019050919050565b600060208201905081810360008301526110e2816110a6565b9050919050565b7f416c676f7a546f6b656e457870697265644572726f7200000000000000000000600082015250565b600061111f601683610f94565b915061112a826110e9565b602082019050919050565b6000602082019050818103600083015261114e81611112565b9050919050565b6000819050919050565b61117061116b82610dff565b611155565b82525050565b6000611182828561115f565b602082019150611192828461115f565b6020820191508190509392505050565b7f416c676f7a5369676e61747572654572726f7200000000000000000000000000600082015250565b60006111d8601383610f94565b91506111e3826111a2565b602082019050919050565b60006020820190508181036000830152611207816111cb565b9050919050565b7f4f776e61626c653a206e6577206f776e657220697320746865207a65726f206160008201527f6464726573730000000000000000000000000000000000000000000000000000602082015250565b600061126a602683610f94565b91506112758261120e565b604082019050919050565b600060208201905081810360008301526112998161125d565b9050919050565b7f4f776e61626c653a2063616c6c6572206973206e6f7420746865206f776e6572600082015250565b60006112d6602083610f94565b91506112e1826112a0565b602082019050919050565b60006020820190508181036000830152611305816112c9565b9050919050565b7f4e487b7100000000000000000000000000000000000000000000000000000000600052601160045260246000fd5b600061134682610cd6565b915061135183610cd6565b9250827fffffffffffffffffffffffffffffffffffffffffffffffffffffffffffffffff038211156113865761138561130c565b5b828201905092915050565b600081905092915050565b7f19457468657265756d205369676e6564204d6573736167653a0a000000000000600082015250565b60006113d2601a83611391565b91506113dd8261139c565b601a82019050919050565b600081519050919050565b60005b838110156114115780820151818401526020810190506113f6565b83811115611420576000848401525b50505050565b6000611431826113e8565b61143b8185611391565b935061144b8185602086016113f3565b80840191505092915050565b600081519050919050565b600081905092915050565b600061147882611457565b6114828185611462565b93506114928185602086016113f3565b80840191505092915050565b60006114a9826113c5565b91506114b58285611426565b91506114c1828461146d565b91508190509392505050565b60006114d882610cd6565b91507fffffffffffffffffffffffffffffffffffffffffffffffffffffffffffffffff82141561150b5761150a61130c565b5b600182019050919050565b7f4e487b7100000000000000000000000000000000000000000000000000000000600052601260045260246000fd5b600061155082610cd6565b915061155b83610cd6565b92508261156b5761156a611516565b5b828204905092915050565b7f4e487b7100000000000000000000000000000000000000000000000000000000600052604160045260246000fd5b60006115b082610cd6565b91506115bb83610cd6565b9250828210156115ce576115cd61130c565b5b828203905092915050565b60006115e482610cd6565b91506115ef83610cd6565b9250826115ff576115fe611516565b5b828206905092915050565b7f4e487b7100000000000000000000000000000000000000000000000000000000600052603260045260246000fd5b7f4e487b7100000000000000000000000000000000000000000000000000000000600052602160045260246000fd5b7f45434453413a20696e76616c6964207369676e61747572650000000000000000600082015250565b600061169e601883610f94565b91506116a982611668565b602082019050919050565b600060208201905081810360008301526116cd81611691565b9050919050565b7f45434453413a20696e76616c6964207369676e6174757265206c656e67746800600082015250565b600061170a601f83610f94565b9150611715826116d4565b602082019050919050565b60006020820190508181036000830152611739816116fd565b9050919050565b7f45434453413a20696e76616c6964207369676e6174757265202773272076616c60008201527f7565000000000000000000000000000000000000000000000000000000000000602082015250565b600061179c602283610f94565b91506117a782611740565b604082019050919050565b600060208201905081810360008301526117cb8161178f565b9050919050565b7f45434453413a20696e76616c6964207369676e6174757265202776272076616c60008201527f7565000000000000000000000000000000000000000000000000000000000000602082015250565b600061182e602283610f94565b9150611839826117d2565b604082019050919050565b6000602082019050818103600083015261185d81611821565b9050919050565b61186d81610dff565b82525050565b600060ff82169050919050565b61188981611873565b82525050565b60006080820190506118a46000830187611864565b6118b16020830186611880565b6118be6040830185611864565b6118cb6060830184611864565b9594505050505056fea26469706673582212205cf384828dee2818dca7dad178d08f21c1b99bde0112de06e1f0b0bc7648c02964736f6c634300080a0033",
  "linkReferences": {},
  "deployedLinkReferences": {}
}