{
  "_format": "hh-sol-artifact-1",
  "contractName": "Domains",
  "sourceName": "contracts/Domains.sol",
  "abi": [
    {
      "inputs": [
        {
          "internalType": "uint256",
          "name": "_price",
          "type": "uint256"
        }
      ],
      "stateMutability": "payable",
      "type": "constructor"
    },
    {
      "inputs": [],
      "name": "AlreadyRegistered",
      "type": "error"
    },
    {
      "inputs": [
        {
          "internalType": "string",
          "name": "name",
          "type": "string"
        }
      ],
      "name": "InvalidName",
      "type": "error"
    },
    {
      "anonymous": false,
      "inputs": [
        {
          "indexed": true,
          "internalType": "address",
          "name": "owner",
          "type": "address"
        },
        {
          "indexed": true,
          "internalType": "address",
          "name": "approved",
          "type": "address"
        },
        {
          "indexed": true,
          "internalType": "uint256",
          "name": "tokenId",
          "type": "uint256"
        }
      ],
      "name": "Approval",
      "type": "event"
    },
    {
      "anonymous": false,
      "inputs": [
        {
          "indexed": true,
          "internalType": "address",
          "name": "owner",
          "type": "address"
        },
        {
          "indexed": true,
          "internalType": "address",
          "name": "operator",
          "type": "address"
        },
        {
          "indexed": false,
          "internalType": "bool",
          "name": "approved",
          "type": "bool"
        }
      ],
      "name": "ApprovalForAll",
      "type": "event"
    },
    {
      "anonymous": false,
      "inputs": [
        {
          "indexed": true,
          "internalType": "address",
          "name": "previousOwner",
          "type": "address"
        },
        {
          "indexed": true,
          "internalType": "address",
          "name": "newOwner",
          "type": "address"
        }
      ],
      "name": "OwnershipTransferred",
      "type": "event"
    },
    {
      "anonymous": false,
      "inputs": [
        {
          "indexed": false,
          "internalType": "address",
          "name": "account",
          "type": "address"
        }
      ],
      "name": "Paused",
      "type": "event"
    },
    {
      "anonymous": false,
      "inputs": [
        {
          "indexed": true,
          "internalType": "address",
          "name": "from",
          "type": "address"
        },
        {
          "indexed": true,
          "internalType": "address",
          "name": "to",
          "type": "address"
        },
        {
          "indexed": true,
          "internalType": "uint256",
          "name": "tokenId",
          "type": "uint256"
        }
      ],
      "name": "Transfer",
      "type": "event"
    },
    {
      "anonymous": false,
      "inputs": [
        {
          "indexed": false,
          "internalType": "address",
          "name": "account",
          "type": "address"
        }
      ],
      "name": "Unpaused",
      "type": "event"
    },
    {
      "inputs": [
        {
          "internalType": "address",
          "name": "to",
          "type": "address"
        },
        {
          "internalType": "uint256",
          "name": "tokenId",
          "type": "uint256"
        }
      ],
      "name": "approve",
      "outputs": [],
      "stateMutability": "nonpayable",
      "type": "function"
    },
    {
      "inputs": [
        {
          "internalType": "address",
          "name": "owner",
          "type": "address"
        }
      ],
      "name": "balanceOf",
      "outputs": [
        {
          "internalType": "uint256",
          "name": "",
          "type": "uint256"
        }
      ],
      "stateMutability": "view",
      "type": "function"
    },
    {
      "inputs": [
        {
          "internalType": "string",
          "name": "name",
          "type": "string"
        },
        {
          "internalType": "address",
          "name": "newAddress",
          "type": "address"
        }
      ],
      "name": "changeAddress",
      "outputs": [],
      "stateMutability": "nonpayable",
      "type": "function"
    },
    {
      "inputs": [
        {
          "internalType": "uint256",
          "name": "_proof_ttl",
          "type": "uint256"
        }
      ],
      "name": "changeProofTtl",
      "outputs": [],
      "stateMutability": "nonpayable",
      "type": "function"
    },
    {
      "inputs": [
        {
          "internalType": "bytes32",
          "name": "",
          "type": "bytes32"
        }
      ],
      "name": "consumed_token",
      "outputs": [
        {
          "internalType": "bool",
          "name": "",
          "type": "bool"
        }
      ],
      "stateMutability": "view",
      "type": "function"
    },
    {
      "inputs": [
        {
          "internalType": "string",
          "name": "",
          "type": "string"
        }
      ],
      "name": "domains",
      "outputs": [
        {
          "internalType": "address",
          "name": "",
          "type": "address"
        }
      ],
      "stateMutability": "view",
      "type": "function"
    },
    {
      "inputs": [
        {
          "internalType": "string",
          "name": "name",
          "type": "string"
        }
      ],
      "name": "getAddress",
      "outputs": [
        {
          "internalType": "address",
          "name": "",
          "type": "address"
        }
      ],
      "stateMutability": "view",
      "type": "function"
    },
    {
      "inputs": [],
      "name": "getAllNames",
      "outputs": [
        {
          "internalType": "string[]",
          "name": "",
          "type": "string[]"
        }
      ],
      "stateMutability": "view",
      "type": "function"
    },
    {
      "inputs": [
        {
          "internalType": "uint256",
          "name": "tokenId",
          "type": "uint256"
        }
      ],
      "name": "getApproved",
      "outputs": [
        {
          "internalType": "address",
          "name": "",
          "type": "address"
        }
      ],
      "stateMutability": "view",
      "type": "function"
    },
    {
      "inputs": [
        {
          "internalType": "string",
          "name": "name",
          "type": "string"
        }
      ],
      "name": "getTwitter",
      "outputs": [
        {
          "internalType": "string",
          "name": "",
          "type": "string"
        }
      ],
      "stateMutability": "view",
      "type": "function"
    },
    {
      "inputs": [
        {
          "internalType": "address",
          "name": "owner",
          "type": "address"
        },
        {
          "internalType": "address",
          "name": "operator",
          "type": "address"
        }
      ],
      "name": "isApprovedForAll",
      "outputs": [
        {
          "internalType": "bool",
          "name": "",
          "type": "bool"
        }
      ],
      "stateMutability": "view",
      "type": "function"
    },
    {
      "inputs": [],
      "name": "name",
      "outputs": [
        {
          "internalType": "string",
          "name": "",
          "type": "string"
        }
      ],
      "stateMutability": "view",
      "type": "function"
    },
    {
      "inputs": [
        {
          "internalType": "uint256",
          "name": "",
          "type": "uint256"
        }
      ],
      "name": "names",
      "outputs": [
        {
          "internalType": "string",
          "name": "",
          "type": "string"
        }
      ],
      "stateMutability": "view",
      "type": "function"
    },
    {
      "inputs": [],
      "name": "owner",
      "outputs": [
        {
          "internalType": "address",
          "name": "",
          "type": "address"
        }
      ],
      "stateMutability": "view",
      "type": "function"
    },
    {
      "inputs": [
        {
          "internalType": "uint256",
          "name": "tokenId",
          "type": "uint256"
        }
      ],
      "name": "ownerOf",
      "outputs": [
        {
          "internalType": "address",
          "name": "",
          "type": "address"
        }
      ],
      "stateMutability": "view",
      "type": "function"
    },
    {
      "inputs": [],
      "name": "pause",
      "outputs": [],
      "stateMutability": "nonpayable",
      "type": "function"
    },
    {
      "inputs": [],
      "name": "paused",
      "outputs": [
        {
          "internalType": "bool",
          "name": "",
          "type": "bool"
        }
      ],
      "stateMutability": "view",
      "type": "function"
    },
    {
      "inputs": [],
      "name": "price",
      "outputs": [
        {
          "internalType": "uint256",
          "name": "",
          "type": "uint256"
        }
      ],
      "stateMutability": "view",
      "type": "function"
    },
    {
      "inputs": [],
      "name": "proof_ttl",
      "outputs": [
        {
          "internalType": "uint256",
          "name": "",
          "type": "uint256"
        }
      ],
      "stateMutability": "view",
      "type": "function"
    },
    {
      "inputs": [
        {
          "internalType": "string",
          "name": "name",
          "type": "string"
        },
        {
          "internalType": "bytes32",
          "name": "expiry_token",
          "type": "bytes32"
        },
        {
          "internalType": "bytes32",
          "name": "auth_token",
          "type": "bytes32"
        },
        {
          "internalType": "bytes",
          "name": "signature_token",
          "type": "bytes"
        }
      ],
      "name": "register",
      "outputs": [],
      "stateMutability": "payable",
      "type": "function"
    },
    {
      "inputs": [],
      "name": "renounceOwnership",
      "outputs": [],
      "stateMutability": "nonpayable",
      "type": "function"
    },
    {
      "inputs": [
        {
          "internalType": "address",
          "name": "from",
          "type": "address"
        },
        {
          "internalType": "address",
          "name": "to",
          "type": "address"
        },
        {
          "internalType": "uint256",
          "name": "tokenId",
          "type": "uint256"
        }
      ],
      "name": "safeTransferFrom",
      "outputs": [],
      "stateMutability": "nonpayable",
      "type": "function"
    },
    {
      "inputs": [
        {
          "internalType": "address",
          "name": "from",
          "type": "address"
        },
        {
          "internalType": "address",
          "name": "to",
          "type": "address"
        },
        {
          "internalType": "uint256",
          "name": "tokenId",
          "type": "uint256"
        },
        {
          "internalType": "bytes",
          "name": "data",
          "type": "bytes"
        }
      ],
      "name": "safeTransferFrom",
      "outputs": [],
      "stateMutability": "nonpayable",
      "type": "function"
    },
    {
      "inputs": [
        {
          "internalType": "address",
          "name": "operator",
          "type": "address"
        },
        {
          "internalType": "bool",
          "name": "approved",
          "type": "bool"
        }
      ],
      "name": "setApprovalForAll",
      "outputs": [],
      "stateMutability": "nonpayable",
      "type": "function"
    },
    {
      "inputs": [
        {
          "internalType": "string",
          "name": "name",
          "type": "string"
        },
        {
          "internalType": "string",
          "name": "record",
          "type": "string"
        }
      ],
      "name": "setTwitter",
      "outputs": [],
      "stateMutability": "nonpayable",
      "type": "function"
    },
    {
      "inputs": [],
      "name": "setVerifiedEnabledFalse",
      "outputs": [],
      "stateMutability": "nonpayable",
      "type": "function"
    },
    {
      "inputs": [],
      "name": "setVerifiedEnabledTrue",
      "outputs": [],
      "stateMutability": "nonpayable",
      "type": "function"
    },
    {
      "inputs": [
        {
          "internalType": "bytes4",
          "name": "interfaceId",
          "type": "bytes4"
        }
      ],
      "name": "supportsInterface",
      "outputs": [
        {
          "internalType": "bool",
          "name": "",
          "type": "bool"
        }
      ],
      "stateMutability": "view",
      "type": "function"
    },
    {
      "inputs": [],
      "name": "symbol",
      "outputs": [
        {
          "internalType": "string",
          "name": "",
          "type": "string"
        }
      ],
      "stateMutability": "view",
      "type": "function"
    },
    {
      "inputs": [],
      "name": "tld",
      "outputs": [
        {
          "internalType": "string",
          "name": "",
          "type": "string"
        }
      ],
      "stateMutability": "view",
      "type": "function"
    },
    {
      "inputs": [
        {
          "internalType": "uint256",
          "name": "tokenId",
          "type": "uint256"
        }
      ],
      "name": "tokenURI",
      "outputs": [
        {
          "internalType": "string",
          "name": "",
          "type": "string"
        }
      ],
      "stateMutability": "view",
      "type": "function"
    },
    {
      "inputs": [],
      "name": "token_verifier",
      "outputs": [
        {
          "internalType": "address",
          "name": "",
          "type": "address"
        }
      ],
      "stateMutability": "view",
      "type": "function"
    },
    {
      "inputs": [
        {
          "internalType": "address",
          "name": "from",
          "type": "address"
        },
        {
          "internalType": "address",
          "name": "to",
          "type": "address"
        },
        {
          "internalType": "uint256",
          "name": "tokenId",
          "type": "uint256"
        }
      ],
      "name": "transferFrom",
      "outputs": [],
      "stateMutability": "nonpayable",
      "type": "function"
    },
    {
      "inputs": [
        {
          "internalType": "address",
          "name": "newOwner",
          "type": "address"
        }
      ],
      "name": "transferOwnership",
      "outputs": [],
      "stateMutability": "nonpayable",
      "type": "function"
    },
    {
      "inputs": [
        {
          "internalType": "string",
          "name": "",
          "type": "string"
        }
      ],
      "name": "twitter",
      "outputs": [
        {
          "internalType": "string",
          "name": "",
          "type": "string"
        }
      ],
      "stateMutability": "view",
      "type": "function"
    },
    {
      "inputs": [],
      "name": "unpause",
      "outputs": [],
      "stateMutability": "nonpayable",
      "type": "function"
    },
    {
      "inputs": [
        {
          "internalType": "uint256",
          "name": "newPrice",
          "type": "uint256"
        }
      ],
      "name": "updatePrice",
      "outputs": [],
      "stateMutability": "nonpayable",
      "type": "function"
    },
    {
      "inputs": [
        {
          "internalType": "string",
          "name": "name",
          "type": "string"
        }
      ],
      "name": "valid",
      "outputs": [
        {
          "internalType": "bool",
          "name": "",
          "type": "bool"
        }
      ],
      "stateMutability": "pure",
      "type": "function"
    },
    {
      "inputs": [
        {
          "internalType": "bytes32",
          "name": "expiry_token",
          "type": "bytes32"
        },
        {
          "internalType": "bytes32",
          "name": "auth_token",
          "type": "bytes32"
        },
        {
          "internalType": "bytes",
          "name": "signature_token",
          "type": "bytes"
        }
      ],
      "name": "validate_token",
      "outputs": [],
      "stateMutability": "nonpayable",
      "type": "function"
    },
    {
      "inputs": [],
      "name": "verify_enabled",
      "outputs": [
        {
          "internalType": "bool",
          "name": "",
          "type": "bool"
        }
      ],
      "stateMutability": "view",
      "type": "function"
    },
    {
      "inputs": [
        {
          "internalType": "address payable",
          "name": "_receiver",
          "type": "address"
        }
      ],
      "name": "withdraw",
      "outputs": [],
      "stateMutability": "nonpayable",
      "type": "function"
    }
  ],
  "bytecode": "0x60806040526040518061104001604052806110098152602001620064276110099139600e90805190602001906200003892919062000466565b506040518060400160405280600d81526020017f3c2f746578743e3c2f7376673e00000000000000000000000000000000000000815250600f90805190602001906200008692919062000466565b5060405162007430380380620074308339818101604052810190620000ac919062000556565b7325af8c6e36ee963d1de65bc82281a8e2d69b8c82600160326040518060400160405280601281526020017f50616e6461204e616d65205365727669636500000000000000000000000000008152506040518060400160405280600381526020017f504e53000000000000000000000000000000000000000000000000000000000081525081600090805190602001906200014992919062000466565b5080600190805190602001906200016292919062000466565b5050506000600760006101000a81548160ff021916908315150217905550620001a062000194620002b760201b60201c565b620002bf60201b60201c565b60008111620001e6576040517f08c379a0000000000000000000000000000000000000000000000000000000008152600401620001dd90620005e9565b60405180910390fd5b82600960006101000a81548173ffffffffffffffffffffffffffffffffffffffff021916908373ffffffffffffffffffffffffffffffffffffffff16021790555081600960146101000a81548160ff02191690831515021790555080600a819055505050506040518060400160405280600581526020017f70616e6461000000000000000000000000000000000000000000000000000000815250600c90805190602001906200029892919062000466565b5080600d81905550620002b06200038560201b60201c565b5062000744565b600033905090565b6000600760019054906101000a900473ffffffffffffffffffffffffffffffffffffffff16905081600760016101000a81548173ffffffffffffffffffffffffffffffffffffffff021916908373ffffffffffffffffffffffffffffffffffffffff1602179055508173ffffffffffffffffffffffffffffffffffffffff168173ffffffffffffffffffffffffffffffffffffffff167f8be0079c531659141344cd1fd0a4f28419497f9722a3daafe3b4186f6b6457e060405160405180910390a35050565b62000395620003fa60201b60201c565b6001600760006101000a81548160ff0219169083151502179055507f62e78cea01bee320cd4e420270b5ea74000d11b0c9f74754ebdbfc544b05a258620003e1620002b760201b60201c565b604051620003f0919062000650565b60405180910390a1565b6200040a6200044f60201b60201c565b156200044d576040517f08c379a00000000000000000000000000000000000000000000000000000000081526004016200044490620006bd565b60405180910390fd5b565b6000600760009054906101000a900460ff16905090565b82805462000474906200070e565b90600052602060002090601f016020900481019282620004985760008555620004e4565b82601f10620004b357805160ff1916838001178555620004e4565b82800160010185558215620004e4579182015b82811115620004e3578251825591602001919060010190620004c6565b5b509050620004f39190620004f7565b5090565b5b8082111562000512576000816000905550600101620004f8565b5090565b600080fd5b6000819050919050565b62000530816200051b565b81146200053c57600080fd5b50565b600081519050620005508162000525565b92915050565b6000602082840312156200056f576200056e62000516565b5b60006200057f848285016200053f565b91505092915050565b600082825260208201905092915050565b7f416c676f7a496e76616c6964546f6b656e54544c000000000000000000000000600082015250565b6000620005d160148362000588565b9150620005de8262000599565b602082019050919050565b600060208201905081810360008301526200060481620005c2565b9050919050565b600073ffffffffffffffffffffffffffffffffffffffff82169050919050565b600062000638826200060b565b9050919050565b6200064a816200062b565b82525050565b60006020820190506200066760008301846200063f565b92915050565b7f5061757361626c653a2070617573656400000000000000000000000000000000600082015250565b6000620006a560108362000588565b9150620006b2826200066d565b602082019050919050565b60006020820190508181036000830152620006d88162000696565b9050919050565b7f4e487b7100000000000000000000000000000000000000000000000000000000600052602260045260246000fd5b600060028204905060018216806200072757607f821691505b602082108114156200073e576200073d620006df565b5b50919050565b615cd380620007546000396000f3fe6080604052600436106102465760003560e01c80638456cb5911610139578063a7dbb402116100b6578063e61fc64f1161007a578063e61fc64f1461086b578063e985e9c514610894578063f2fde38b146108d1578063f3357b26146108fa578063fb825e5f14610925578063fe7ed9591461095057610246565b8063a7dbb40214610774578063b88d4fde1461079d578063bf40fac1146107c6578063c87b56dd14610803578063d2a0ec161461084057610246565b806395d89b41116100fd57806395d89b411461069c5780639791c097146106c757806399da857214610704578063a035b1fe14610720578063a22cb4651461074b57610246565b80638456cb59146105dd57806384666da8146105f45780638d6cc56d1461060b5780638da5cb5b1461063457806392f7424f1461065f57610246565b80633f4ba83a116101c75780635c975abb1161018b5780635c975abb1461050a5780635f8a5a78146105355780636352211e1461054c57806370a0823114610589578063715018a6146105c657610246565b80633f4ba83a1461042757806342842e0e1461043e5780634622ab031461046757806351cff8d9146104a457806353e69abc146104cd57610246565b806315dafafd1161020e57806315dafafd1461034457806323b872dd1461036d57806326449235146103965780632d551432146103d35780633b6e1c97146103fe57610246565b806301ffc9a71461024b5780630658ad991461028857806306fdde03146102b3578063081812fc146102de578063095ea7b31461031b575b600080fd5b34801561025757600080fd5b50610272600480360381019061026d9190613967565b61098d565b60405161027f91906139af565b60405180910390f35b34801561029457600080fd5b5061029d610a6f565b6040516102aa91906139e3565b60405180910390f35b3480156102bf57600080fd5b506102c8610a75565b6040516102d59190613a97565b60405180910390f35b3480156102ea57600080fd5b5061030560048036038101906103009190613ae5565b610b07565b6040516103129190613b53565b60405180910390f35b34801561032757600080fd5b50610342600480360381019061033d9190613b9a565b610b4d565b005b34801561035057600080fd5b5061036b60048036038101906103669190613ae5565b610c65565b005b34801561037957600080fd5b50610394600480360381019061038f9190613bda565b610c77565b005b3480156103a257600080fd5b506103bd60048036038101906103b89190613d62565b610cd7565b6040516103ca9190613b53565b60405180910390f35b3480156103df57600080fd5b506103e8610d20565b6040516103f59190613a97565b60405180910390f35b34801561040a57600080fd5b5061042560048036038101906104209190613e0b565b610dae565b005b34801561043357600080fd5b5061043c610e9a565b005b34801561044a57600080fd5b5061046560048036038101906104609190613bda565b610eb4565b005b34801561047357600080fd5b5061048e60048036038101906104899190613ae5565b610ed4565b60405161049b9190613a97565b60405180910390f35b3480156104b057600080fd5b506104cb60048036038101906104c69190613eca565b610f74565b005b3480156104d957600080fd5b506104f460048036038101906104ef9190613ef7565b611032565b6040516105019190613a97565b60405180910390f35b34801561051657600080fd5b5061051f6110e5565b60405161052c91906139af565b60405180910390f35b34801561054157600080fd5b5061054a6110fc565b005b34801561055857600080fd5b50610573600480360381019061056e9190613ae5565b611170565b6040516105809190613b53565b60405180910390f35b34801561059557600080fd5b506105b060048036038101906105ab9190613f44565b611222565b6040516105bd91906139e3565b60405180910390f35b3480156105d257600080fd5b506105db6112da565b005b3480156105e957600080fd5b506105f26112ee565b005b34801561060057600080fd5b50610609611308565b005b34801561061757600080fd5b50610632600480360381019061062d9190613ae5565b61137d565b005b34801561064057600080fd5b5061064961138f565b6040516106569190613b53565b60405180910390f35b34801561066b57600080fd5b5061068660048036038101906106819190613d62565b6113b9565b6040516106939190613a97565b60405180910390f35b3480156106a857600080fd5b506106b161146f565b6040516106be9190613a97565b60405180910390f35b3480156106d357600080fd5b506106ee60048036038101906106e99190613ef7565b611501565b6040516106fb91906139af565b60405180910390f35b61071e60048036038101906107199190613ffd565b6115b5565b005b34801561072c57600080fd5b506107356118cb565b60405161074291906139e3565b60405180910390f35b34801561075757600080fd5b50610772600480360381019061076d91906140d0565b6118d1565b005b34801561078057600080fd5b5061079b60048036038101906107969190614110565b6118e7565b005b3480156107a957600080fd5b506107c460048036038101906107bf9190614211565b611a01565b005b3480156107d257600080fd5b506107ed60048036038101906107e89190613ef7565b611a63565b6040516107fa9190613b53565b60405180910390f35b34801561080f57600080fd5b5061082a60048036038101906108259190613ae5565b611aae565b6040516108379190613a97565b60405180910390f35b34801561084c57600080fd5b50610855611bc1565b60405161086291906139af565b60405180910390f35b34801561087757600080fd5b50610892600480360381019061088d9190614294565b611bd4565b005b3480156108a057600080fd5b506108bb60048036038101906108b69190614308565b611de1565b6040516108c891906139af565b60405180910390f35b3480156108dd57600080fd5b506108f860048036038101906108f39190613f44565b611e75565b005b34801561090657600080fd5b5061090f611ef9565b60405161091c9190613b53565b60405180910390f35b34801561093157600080fd5b5061093a611f1f565b6040516109479190614454565b60405180910390f35b34801561095c57600080fd5b5061097760048036038101906109729190614476565b612065565b60405161098491906139af565b60405180910390f35b60007f80ac58cd000000000000000000000000000000000000000000000000000000007bffffffffffffffffffffffffffffffffffffffffffffffffffffffff1916827bffffffffffffffffffffffffffffffffffffffffffffffffffffffff19161480610a5857507f5b5e139f000000000000000000000000000000000000000000000000000000007bffffffffffffffffffffffffffffffffffffffffffffffffffffffff1916827bffffffffffffffffffffffffffffffffffffffffffffffffffffffff1916145b80610a685750610a6782612085565b5b9050919050565b600a5481565b606060008054610a84906144d2565b80601f0160208091040260200160405190810160405280929190818152602001828054610ab0906144d2565b8015610afd5780601f10610ad257610100808354040283529160200191610afd565b820191906000526020600020905b815481529060010190602001808311610ae057829003601f168201915b5050505050905090565b6000610b12826120ef565b6004600083815260200190815260200160002060009054906101000a900473ffffffffffffffffffffffffffffffffffffffff169050919050565b6000610b5882611170565b90508073ffffffffffffffffffffffffffffffffffffffff168373ffffffffffffffffffffffffffffffffffffffff161415610bc9576040517f08c379a0000000000000000000000000000000000000000000000000000000008152600401610bc090614576565b60405180910390fd5b8073ffffffffffffffffffffffffffffffffffffffff16610be861213a565b73ffffffffffffffffffffffffffffffffffffffff161480610c175750610c1681610c1161213a565b611de1565b5b610c56576040517f08c379a0000000000000000000000000000000000000000000000000000000008152600401610c4d90614608565b60405180910390fd5b610c608383612142565b505050565b610c6d6121fb565b80600a8190555050565b610c88610c8261213a565b82612279565b610cc7576040517f08c379a0000000000000000000000000000000000000000000000000000000008152600401610cbe9061469a565b60405180910390fd5b610cd283838361230e565b505050565b6010818051602081018201805184825260208301602085012081835280955050505050506000915054906101000a900473ffffffffffffffffffffffffffffffffffffffff1681565b600c8054610d2d906144d2565b80601f0160208091040260200160405190810160405280929190818152602001828054610d59906144d2565b8015610da65780601f10610d7b57610100808354040283529160200191610da6565b820191906000526020600020905b815481529060010190602001808311610d8957829003601f168201915b505050505081565b610db6612575565b3373ffffffffffffffffffffffffffffffffffffffff1660108585604051610ddf9291906146ea565b908152602001604051809103902060009054906101000a900473ffffffffffffffffffffffffffffffffffffffff1673ffffffffffffffffffffffffffffffffffffffff1614610e64576040517f08c379a0000000000000000000000000000000000000000000000000000000008152600401610e5b9061474f565b60405180910390fd5b818160118686604051610e789291906146ea565b90815260200160405180910390209190610e939291906137d2565b5050505050565b610ea26121fb565b610eaa6125bf565b610eb2612608565b565b610ecf83838360405180602001604052806000815250611a01565b505050565b60126020528060005260406000206000915090508054610ef3906144d2565b80601f0160208091040260200160405190810160405280929190818152602001828054610f1f906144d2565b8015610f6c5780601f10610f4157610100808354040283529160200191610f6c565b820191906000526020600020905b815481529060010190602001808311610f4f57829003601f168201915b505050505081565b610f7c6121fb565b600047905060008273ffffffffffffffffffffffffffffffffffffffff1682604051610fa7906147a0565b60006040518083038185875af1925050503d8060008114610fe4576040519150601f19603f3d011682016040523d82523d6000602084013e610fe9565b606091505b505090508061102d576040517f08c379a000000000000000000000000000000000000000000000000000000000815260040161102490614801565b60405180910390fd5b505050565b6060601183836040516110469291906146ea565b9081526020016040518091039020805461105f906144d2565b80601f016020809104026020016040519081016040528092919081815260200182805461108b906144d2565b80156110d85780601f106110ad576101008083540402835291602001916110d8565b820191906000526020600020905b8154815290600101906020018083116110bb57829003601f168201915b5050505050905092915050565b6000600760009054906101000a900460ff16905090565b6111046121fb565b600960149054906101000a900460ff16611153576040517f08c379a000000000000000000000000000000000000000000000000000000000815260040161114a9061486d565b60405180910390fd5b6000600960146101000a81548160ff021916908315150217905550565b6000806002600084815260200190815260200160002060009054906101000a900473ffffffffffffffffffffffffffffffffffffffff169050600073ffffffffffffffffffffffffffffffffffffffff168173ffffffffffffffffffffffffffffffffffffffff161415611219576040517f08c379a0000000000000000000000000000000000000000000000000000000008152600401611210906148d9565b60405180910390fd5b80915050919050565b60008073ffffffffffffffffffffffffffffffffffffffff168273ffffffffffffffffffffffffffffffffffffffff161415611293576040517f08c379a000000000000000000000000000000000000000000000000000000000815260040161128a9061496b565b60405180910390fd5b600360008373ffffffffffffffffffffffffffffffffffffffff1673ffffffffffffffffffffffffffffffffffffffff168152602001908152602001600020549050919050565b6112e26121fb565b6112ec600061266b565b565b6112f66121fb565b6112fe612575565b611306612731565b565b6113106121fb565b600960149054906101000a900460ff1615611360576040517f08c379a0000000000000000000000000000000000000000000000000000000008152600401611357906149d7565b60405180910390fd5b6001600960146101000a81548160ff021916908315150217905550565b6113856121fb565b80600d8190555050565b6000600760019054906101000a900473ffffffffffffffffffffffffffffffffffffffff16905090565b60118180516020810182018051848252602083016020850120818352809550505050505060009150905080546113ee906144d2565b80601f016020809104026020016040519081016040528092919081815260200182805461141a906144d2565b80156114675780601f1061143c57610100808354040283529160200191611467565b820191906000526020600020905b81548152906001019060200180831161144a57829003601f168201915b505050505081565b60606001805461147e906144d2565b80601f01602080910402602001604051908101604052809291908181526020018280546114aa906144d2565b80156114f75780601f106114cc576101008083540402835291602001916114f7565b820191906000526020600020905b8154815290600101906020018083116114da57829003601f168201915b5050505050905090565b6000600161155284848080601f016020809104026020016040519081016040528093929190818152602001838380828437600081840152601f19601f82011690508083019250505050505050612794565b101580156115ad5750608c6115aa84848080601f016020809104026020016040519081016040528093929190818152602001838380828437600081840152601f19601f82011690508083019250505050505050612794565b11155b905092915050565b6115bd612575565b600073ffffffffffffffffffffffffffffffffffffffff16601087876040516115e79291906146ea565b908152602001604051809103902060009054906101000a900473ffffffffffffffffffffffffffffffffffffffff1673ffffffffffffffffffffffffffffffffffffffff1614611663576040517f3a81d6fc00000000000000000000000000000000000000000000000000000000815260040160405180910390fd5b61166d8686611501565b6116b05785856040517f7f19f48d0000000000000000000000000000000000000000000000000000000081526004016116a7929190614a24565b60405180910390fd5b600d543410156116f5576040517f08c379a00000000000000000000000000000000000000000000000000000000081526004016116ec90614a94565b60405180910390fd5b61170184848484611bd4565b60008686600c60405160200161171993929190614b94565b60405160208183030381529060405290506000600e82600f60405160200161174393929190614bf6565b60405160208183030381529060405290506000611760600b612949565b905060006117b18a8a8080601f016020809104026020016040519081016040528093929190818152602001838380828437600081840152601f19601f82011690508083019250505050505050612794565b905060006117be82612957565b905060006117f6866117cf87612ab8565b846040516020016117e293929190614da3565b604051602081830303815290604052612ab8565b905060008160405160200161180b9190614e4c565b60405160208183030381529060405290506118263386612c50565b6118308582612c6e565b3360108e8e6040516118439291906146ea565b908152602001604051809103902060006101000a81548173ffffffffffffffffffffffffffffffffffffffff021916908373ffffffffffffffffffffffffffffffffffffffff1602179055508c8c6012600088815260200190815260200160002091906118b19291906137d2565b506118bc600b612ce2565b50505050505050505050505050565b600d5481565b6118e36118dc61213a565b8383612cf8565b5050565b6118ef612575565b3373ffffffffffffffffffffffffffffffffffffffff16601084846040516119189291906146ea565b908152602001604051809103902060009054906101000a900473ffffffffffffffffffffffffffffffffffffffff1673ffffffffffffffffffffffffffffffffffffffff161461199d576040517f08c379a000000000000000000000000000000000000000000000000000000000815260040161199490614ee0565b60405180910390fd5b80601084846040516119b09291906146ea565b908152602001604051809103902060006101000a81548173ffffffffffffffffffffffffffffffffffffffff021916908373ffffffffffffffffffffffffffffffffffffffff160217905550505050565b611a12611a0c61213a565b83612279565b611a51576040517f08c379a0000000000000000000000000000000000000000000000000000000008152600401611a489061469a565b60405180910390fd5b611a5d84848484612e65565b50505050565b600060108383604051611a779291906146ea565b908152602001604051809103902060009054906101000a900473ffffffffffffffffffffffffffffffffffffffff16905092915050565b6060611ab9826120ef565b6000600660008481526020019081526020016000208054611ad9906144d2565b80601f0160208091040260200160405190810160405280929190818152602001828054611b05906144d2565b8015611b525780601f10611b2757610100808354040283529160200191611b52565b820191906000526020600020905b815481529060010190602001808311611b3557829003601f168201915b505050505090506000611b63612ec1565b9050600081511415611b79578192505050611bbc565b600082511115611bae578082604051602001611b96929190614f00565b60405160208183030381529060405292505050611bbc565b611bb784612ed8565b925050505b919050565b600960149054906101000a900460ff1681565b600960149054906101000a900460ff16611bed57611ddb565b6008600084815260200190815260200160002060009054906101000a900460ff1615611c4e576040517f08c379a0000000000000000000000000000000000000000000000000000000008152600401611c4590614f70565b60405180910390fd5b43611c5e8560001c600a54612f40565b1015611c9f576040517f08c379a0000000000000000000000000000000000000000000000000000000008152600401611c9690614fdc565b60405180910390fd5b600960009054906101000a900473ffffffffffffffffffffffffffffffffffffffff1673ffffffffffffffffffffffffffffffffffffffff16611d5883838080601f016020809104026020016040519081016040528093929190818152602001838380828437600081840152601f19601f82011690508083019250505050505050611d4a8787604051602001611d3692919061501d565b604051602081830303815290604052612f56565b612f9190919063ffffffff16565b73ffffffffffffffffffffffffffffffffffffffff1614611dae576040517f08c379a0000000000000000000000000000000000000000000000000000000008152600401611da590615095565b60405180910390fd5b60016008600085815260200190815260200160002060006101000a81548160ff0219169083151502179055505b50505050565b6000600560008473ffffffffffffffffffffffffffffffffffffffff1673ffffffffffffffffffffffffffffffffffffffff16815260200190815260200160002060008373ffffffffffffffffffffffffffffffffffffffff1673ffffffffffffffffffffffffffffffffffffffff16815260200190815260200160002060009054906101000a900460ff16905092915050565b611e7d6121fb565b600073ffffffffffffffffffffffffffffffffffffffff168173ffffffffffffffffffffffffffffffffffffffff161415611eed576040517f08c379a0000000000000000000000000000000000000000000000000000000008152600401611ee490615127565b60405180910390fd5b611ef68161266b565b50565b600960009054906101000a900473ffffffffffffffffffffffffffffffffffffffff1681565b60606000611f2d600b612949565b67ffffffffffffffff811115611f4657611f45613c37565b5b604051908082528060200260200182016040528015611f7957816020015b6060815260200190600190039081611f645790505b50905060005b611f89600b612949565b81101561205d57601260008281526020019081526020016000208054611fae906144d2565b80601f0160208091040260200160405190810160405280929190818152602001828054611fda906144d2565b80156120275780601f10611ffc57610100808354040283529160200191612027565b820191906000526020600020905b81548152906001019060200180831161200a57829003601f168201915b505050505082828151811061203f5761203e615147565b5b60200260200101819052508080612055906151a5565b915050611f7f565b508091505090565b60086020528060005260406000206000915054906101000a900460ff1681565b60007f01ffc9a7000000000000000000000000000000000000000000000000000000007bffffffffffffffffffffffffffffffffffffffffffffffffffffffff1916827bffffffffffffffffffffffffffffffffffffffffffffffffffffffff1916149050919050565b6120f881612fb8565b612137576040517f08c379a000000000000000000000000000000000000000000000000000000000815260040161212e906148d9565b60405180910390fd5b50565b600033905090565b816004600083815260200190815260200160002060006101000a81548173ffffffffffffffffffffffffffffffffffffffff021916908373ffffffffffffffffffffffffffffffffffffffff160217905550808273ffffffffffffffffffffffffffffffffffffffff166121b583611170565b73ffffffffffffffffffffffffffffffffffffffff167f8c5be1e5ebec7d5bd14f71427d1e84f3dd0314c0f7b2291e5b200ac8c7c3b92560405160405180910390a45050565b61220361213a565b73ffffffffffffffffffffffffffffffffffffffff1661222161138f565b73ffffffffffffffffffffffffffffffffffffffff1614612277576040517f08c379a000000000000000000000000000000000000000000000000000000000815260040161226e9061523a565b60405180910390fd5b565b60008061228583611170565b90508073ffffffffffffffffffffffffffffffffffffffff168473ffffffffffffffffffffffffffffffffffffffff1614806122c757506122c68185611de1565b5b8061230557508373ffffffffffffffffffffffffffffffffffffffff166122ed84610b07565b73ffffffffffffffffffffffffffffffffffffffff16145b91505092915050565b8273ffffffffffffffffffffffffffffffffffffffff1661232e82611170565b73ffffffffffffffffffffffffffffffffffffffff1614612384576040517f08c379a000000000000000000000000000000000000000000000000000000000815260040161237b906152cc565b60405180910390fd5b600073ffffffffffffffffffffffffffffffffffffffff168273ffffffffffffffffffffffffffffffffffffffff1614156123f4576040517f08c379a00000000000000000000000000000000000000000000000000000000081526004016123eb9061535e565b60405180910390fd5b6123ff838383613024565b61240a600082612142565b6001600360008573ffffffffffffffffffffffffffffffffffffffff1673ffffffffffffffffffffffffffffffffffffffff168152602001908152602001600020600082825461245a919061537e565b925050819055506001600360008473ffffffffffffffffffffffffffffffffffffffff1673ffffffffffffffffffffffffffffffffffffffff16815260200190815260200160002060008282546124b191906153b2565b92505081905550816002600083815260200190815260200160002060006101000a81548173ffffffffffffffffffffffffffffffffffffffff021916908373ffffffffffffffffffffffffffffffffffffffff160217905550808273ffffffffffffffffffffffffffffffffffffffff168473ffffffffffffffffffffffffffffffffffffffff167fddf252ad1be2c89b69c2b068fc378daa952ba7f163c4a11628f55a4df523b3ef60405160405180910390a4612570838383613029565b505050565b61257d6110e5565b156125bd576040517f08c379a00000000000000000000000000000000000000000000000000000000081526004016125b490615454565b60405180910390fd5b565b6125c76110e5565b612606576040517f08c379a00000000000000000000000000000000000000000000000000000000081526004016125fd906154c0565b60405180910390fd5b565b6126106125bf565b6000600760006101000a81548160ff0219169083151502179055507f5db9ee0a495bf2e6ff9c91a7834c1ba4fdd244a5e8aa4e537bd38aeae4b073aa61265461213a565b6040516126619190613b53565b60405180910390a1565b6000600760019054906101000a900473ffffffffffffffffffffffffffffffffffffffff16905081600760016101000a81548173ffffffffffffffffffffffffffffffffffffffff021916908373ffffffffffffffffffffffffffffffffffffffff1602179055508173ffffffffffffffffffffffffffffffffffffffff168173ffffffffffffffffffffffffffffffffffffffff167f8be0079c531659141344cd1fd0a4f28419497f9722a3daafe3b4186f6b6457e060405160405180910390a35050565b612739612575565b6001600760006101000a81548160ff0219169083151502179055507f62e78cea01bee320cd4e420270b5ea74000d11b0c9f74754ebdbfc544b05a25861277d61213a565b60405161278a9190613b53565b60405180910390a1565b60008060008084519050600092505b8082101561293e5760008583815181106127c0576127bf615147565b5b602001015160f81c60f81b9050608060f81b817effffffffffffffffffffffffffffffffffffffffffffffffffffffffffffff1916101561280f5760018361280891906153b2565b925061292a565b60e060f81b817effffffffffffffffffffffffffffffffffffffffffffffffffffffffffffff191610156128515760028361284a91906153b2565b9250612929565b60f060f81b817effffffffffffffffffffffffffffffffffffffffffffffffffffffffffffff191610156128935760038361288c91906153b2565b9250612928565b60f8801b817effffffffffffffffffffffffffffffffffffffffffffffffffffffffffffff191610156128d4576004836128cd91906153b2565b9250612927565b60fc60f81b817effffffffffffffffffffffffffffffffffffffffffffffffffffffffffffff191610156129165760058361290f91906153b2565b9250612926565b60068361292391906153b2565b92505b5b5b5b5b508280612936906151a5565b9350506127a3565b829350505050919050565b600081600001549050919050565b6060600082141561299f576040518060400160405280600181526020017f30000000000000000000000000000000000000000000000000000000000000008152509050612ab3565b600082905060005b600082146129d15780806129ba906151a5565b915050600a826129ca919061550f565b91506129a7565b60008167ffffffffffffffff8111156129ed576129ec613c37565b5b6040519080825280601f01601f191660200182016040528015612a1f5781602001600182028036833780820191505090505b5090505b60008514612aac57600182612a38919061537e565b9150600a85612a479190615540565b6030612a5391906153b2565b60f81b818381518110612a6957612a68615147565b5b60200101907effffffffffffffffffffffffffffffffffffffffffffffffffffffffffffff1916908160001a905350600a85612aa5919061550f565b9450612a23565b8093505050505b919050565b60606000825190506000811415612ae15760405180602001604052806000815250915050612c4b565b60006003600283612af291906153b2565b612afc919061550f565b6004612b089190615571565b90506000602082612b1991906153b2565b67ffffffffffffffff811115612b3257612b31613c37565b5b6040519080825280601f01601f191660200182016040528015612b645781602001600182028036833780820191505090505b5090506000604051806060016040528060408152602001615c5e604091399050600181016020830160005b86811015612c085760038101905062ffffff818a015116603f8160121c168401518060081b905060ff603f83600c1c1686015116810190508060081b905060ff603f8360061c1686015116810190508060081b905060ff603f831686015116810190508060e01b90508084526004840193505050612b8f565b506003860660018114612c225760028114612c3257612c3d565b613d3d60f01b6002830352612c3d565b603d60f81b60018303525b508484525050819450505050505b919050565b612c6a82826040518060200160405280600081525061302e565b5050565b612c7782612fb8565b612cb6576040517f08c379a0000000000000000000000000000000000000000000000000000000008152600401612cad9061563d565b60405180910390fd5b80600660008481526020019081526020016000209080519060200190612cdd929190613858565b505050565b6001816000016000828254019250508190555050565b8173ffffffffffffffffffffffffffffffffffffffff168373ffffffffffffffffffffffffffffffffffffffff161415612d67576040517f08c379a0000000000000000000000000000000000000000000000000000000008152600401612d5e906156a9565b60405180910390fd5b80600560008573ffffffffffffffffffffffffffffffffffffffff1673ffffffffffffffffffffffffffffffffffffffff16815260200190815260200160002060008473ffffffffffffffffffffffffffffffffffffffff1673ffffffffffffffffffffffffffffffffffffffff16815260200190815260200160002060006101000a81548160ff0219169083151502179055508173ffffffffffffffffffffffffffffffffffffffff168373ffffffffffffffffffffffffffffffffffffffff167f17307eab39ab6107e8899845ad3d59bd9653f200f220920489ca2b5937696c3183604051612e5891906139af565b60405180910390a3505050565b612e7084848461230e565b612e7c84848484613089565b612ebb576040517f08c379a0000000000000000000000000000000000000000000000000000000008152600401612eb29061573b565b60405180910390fd5b50505050565b606060405180602001604052806000815250905090565b6060612ee3826120ef565b6000612eed612ec1565b90506000815111612f0d5760405180602001604052806000815250612f38565b80612f1784612957565b604051602001612f28929190614f00565b6040516020818303038152906040525b915050919050565b60008183612f4e91906153b2565b905092915050565b6000612f628251612957565b82604051602001612f749291906157e3565b604051602081830303815290604052805190602001209050919050565b6000806000612fa08585613211565b91509150612fad81613294565b819250505092915050565b60008073ffffffffffffffffffffffffffffffffffffffff166002600084815260200190815260200160002060009054906101000a900473ffffffffffffffffffffffffffffffffffffffff1673ffffffffffffffffffffffffffffffffffffffff1614159050919050565b505050565b505050565b6130388383613469565b6130456000848484613089565b613084576040517f08c379a000000000000000000000000000000000000000000000000000000000815260040161307b9061573b565b60405180910390fd5b505050565b60006130aa8473ffffffffffffffffffffffffffffffffffffffff16613643565b15613204578373ffffffffffffffffffffffffffffffffffffffff1663150b7a026130d361213a565b8786866040518563ffffffff1660e01b81526004016130f5949392919061585c565b6020604051808303816000875af192505050801561313157506040513d601f19601f8201168201806040525081019061312e91906158bd565b60015b6131b4573d8060008114613161576040519150601f19603f3d011682016040523d82523d6000602084013e613166565b606091505b506000815114156131ac576040517f08c379a00000000000000000000000000000000000000000000000000000000081526004016131a39061573b565b60405180910390fd5b805181602001fd5b63150b7a0260e01b7bffffffffffffffffffffffffffffffffffffffffffffffffffffffff1916817bffffffffffffffffffffffffffffffffffffffffffffffffffffffff191614915050613209565b600190505b949350505050565b6000806041835114156132535760008060006020860151925060408601519150606086015160001a905061324787828585613666565b9450945050505061328d565b604083511415613284576000806020850151915060408501519050613279868383613773565b93509350505061328d565b60006002915091505b9250929050565b600060048111156132a8576132a76158ea565b5b8160048111156132bb576132ba6158ea565b5b14156132c657613466565b600160048111156132da576132d96158ea565b5b8160048111156132ed576132ec6158ea565b5b141561332e576040517f08c379a000000000000000000000000000000000000000000000000000000000815260040161332590615965565b60405180910390fd5b60026004811115613342576133416158ea565b5b816004811115613355576133546158ea565b5b1415613396576040517f08c379a000000000000000000000000000000000000000000000000000000000815260040161338d906159d1565b60405180910390fd5b600360048111156133aa576133a96158ea565b5b8160048111156133bd576133bc6158ea565b5b14156133fe576040517f08c379a00000000000000000000000000000000000000000000000000000000081526004016133f590615a63565b60405180910390fd5b600480811115613411576134106158ea565b5b816004811115613424576134236158ea565b5b1415613465576040517f08c379a000000000000000000000000000000000000000000000000000000000815260040161345c90615af5565b60405180910390fd5b5b50565b600073ffffffffffffffffffffffffffffffffffffffff168273ffffffffffffffffffffffffffffffffffffffff1614156134d9576040517f08c379a00000000000000000000000000000000000000000000000000000000081526004016134d090615b61565b60405180910390fd5b6134e281612fb8565b15613522576040517f08c379a000000000000000000000000000000000000000000000000000000000815260040161351990615bcd565b60405180910390fd5b61352e60008383613024565b6001600360008473ffffffffffffffffffffffffffffffffffffffff1673ffffffffffffffffffffffffffffffffffffffff168152602001908152602001600020600082825461357e91906153b2565b92505081905550816002600083815260200190815260200160002060006101000a81548173ffffffffffffffffffffffffffffffffffffffff021916908373ffffffffffffffffffffffffffffffffffffffff160217905550808273ffffffffffffffffffffffffffffffffffffffff16600073ffffffffffffffffffffffffffffffffffffffff167fddf252ad1be2c89b69c2b068fc378daa952ba7f163c4a11628f55a4df523b3ef60405160405180910390a461363f60008383613029565b5050565b6000808273ffffffffffffffffffffffffffffffffffffffff163b119050919050565b6000807f7fffffffffffffffffffffffffffffff5d576e7357a4501ddfe92f46681b20a08360001c11156136a157600060039150915061376a565b601b8560ff16141580156136b95750601c8560ff1614155b156136cb57600060049150915061376a565b6000600187878787604051600081526020016040526040516136f09493929190615c18565b6020604051602081039080840390855afa158015613712573d6000803e3d6000fd5b505050602060405103519050600073ffffffffffffffffffffffffffffffffffffffff168173ffffffffffffffffffffffffffffffffffffffff1614156137615760006001925092505061376a565b80600092509250505b94509492505050565b60008060007f7fffffffffffffffffffffffffffffffffffffffffffffffffffffffffffffff60001b841690506000601b60ff8660001c901c6137b691906153b2565b90506137c487828885613666565b935093505050935093915050565b8280546137de906144d2565b90600052602060002090601f0160209004810192826138005760008555613847565b82601f1061381957803560ff1916838001178555613847565b82800160010185558215613847579182015b8281111561384657823582559160200191906001019061382b565b5b50905061385491906138de565b5090565b828054613864906144d2565b90600052602060002090601f01602090048101928261388657600085556138cd565b82601f1061389f57805160ff19168380011785556138cd565b828001600101855582156138cd579182015b828111156138cc5782518255916020019190600101906138b1565b5b5090506138da91906138de565b5090565b5b808211156138f75760008160009055506001016138df565b5090565b6000604051905090565b600080fd5b600080fd5b60007fffffffff0000000000000000000000000000000000000000000000000000000082169050919050565b6139448161390f565b811461394f57600080fd5b50565b6000813590506139618161393b565b92915050565b60006020828403121561397d5761397c613905565b5b600061398b84828501613952565b91505092915050565b60008115159050919050565b6139a981613994565b82525050565b60006020820190506139c460008301846139a0565b92915050565b6000819050919050565b6139dd816139ca565b82525050565b60006020820190506139f860008301846139d4565b92915050565b600081519050919050565b600082825260208201905092915050565b60005b83811015613a38578082015181840152602081019050613a1d565b83811115613a47576000848401525b50505050565b6000601f19601f8301169050919050565b6000613a69826139fe565b613a738185613a09565b9350613a83818560208601613a1a565b613a8c81613a4d565b840191505092915050565b60006020820190508181036000830152613ab18184613a5e565b905092915050565b613ac2816139ca565b8114613acd57600080fd5b50565b600081359050613adf81613ab9565b92915050565b600060208284031215613afb57613afa613905565b5b6000613b0984828501613ad0565b91505092915050565b600073ffffffffffffffffffffffffffffffffffffffff82169050919050565b6000613b3d82613b12565b9050919050565b613b4d81613b32565b82525050565b6000602082019050613b686000830184613b44565b92915050565b613b7781613b32565b8114613b8257600080fd5b50565b600081359050613b9481613b6e565b92915050565b60008060408385031215613bb157613bb0613905565b5b6000613bbf85828601613b85565b9250506020613bd085828601613ad0565b9150509250929050565b600080600060608486031215613bf357613bf2613905565b5b6000613c0186828701613b85565b9350506020613c1286828701613b85565b9250506040613c2386828701613ad0565b9150509250925092565b600080fd5b600080fd5b7f4e487b7100000000000000000000000000000000000000000000000000000000600052604160045260246000fd5b613c6f82613a4d565b810181811067ffffffffffffffff82111715613c8e57613c8d613c37565b5b80604052505050565b6000613ca16138fb565b9050613cad8282613c66565b919050565b600067ffffffffffffffff821115613ccd57613ccc613c37565b5b613cd682613a4d565b9050602081019050919050565b82818337600083830152505050565b6000613d05613d0084613cb2565b613c97565b905082815260208101848484011115613d2157613d20613c32565b5b613d2c848285613ce3565b509392505050565b600082601f830112613d4957613d48613c2d565b5b8135613d59848260208601613cf2565b91505092915050565b600060208284031215613d7857613d77613905565b5b600082013567ffffffffffffffff811115613d9657613d9561390a565b5b613da284828501613d34565b91505092915050565b600080fd5b600080fd5b60008083601f840112613dcb57613dca613c2d565b5b8235905067ffffffffffffffff811115613de857613de7613dab565b5b602083019150836001820283011115613e0457613e03613db0565b5b9250929050565b60008060008060408587031215613e2557613e24613905565b5b600085013567ffffffffffffffff811115613e4357613e4261390a565b5b613e4f87828801613db5565b9450945050602085013567ffffffffffffffff811115613e7257613e7161390a565b5b613e7e87828801613db5565b925092505092959194509250565b6000613e9782613b12565b9050919050565b613ea781613e8c565b8114613eb257600080fd5b50565b600081359050613ec481613e9e565b92915050565b600060208284031215613ee057613edf613905565b5b6000613eee84828501613eb5565b91505092915050565b60008060208385031215613f0e57613f0d613905565b5b600083013567ffffffffffffffff811115613f2c57613f2b61390a565b5b613f3885828601613db5565b92509250509250929050565b600060208284031215613f5a57613f59613905565b5b6000613f6884828501613b85565b91505092915050565b6000819050919050565b613f8481613f71565b8114613f8f57600080fd5b50565b600081359050613fa181613f7b565b92915050565b60008083601f840112613fbd57613fbc613c2d565b5b8235905067ffffffffffffffff811115613fda57613fd9613dab565b5b602083019150836001820283011115613ff657613ff5613db0565b5b9250929050565b6000806000806000806080878903121561401a57614019613905565b5b600087013567ffffffffffffffff8111156140385761403761390a565b5b61404489828a01613db5565b9650965050602061405789828a01613f92565b945050604061406889828a01613f92565b935050606087013567ffffffffffffffff8111156140895761408861390a565b5b61409589828a01613fa7565b92509250509295509295509295565b6140ad81613994565b81146140b857600080fd5b50565b6000813590506140ca816140a4565b92915050565b600080604083850312156140e7576140e6613905565b5b60006140f585828601613b85565b9250506020614106858286016140bb565b9150509250929050565b60008060006040848603121561412957614128613905565b5b600084013567ffffffffffffffff8111156141475761414661390a565b5b61415386828701613db5565b9350935050602061416686828701613b85565b9150509250925092565b600067ffffffffffffffff82111561418b5761418a613c37565b5b61419482613a4d565b9050602081019050919050565b60006141b46141af84614170565b613c97565b9050828152602081018484840111156141d0576141cf613c32565b5b6141db848285613ce3565b509392505050565b600082601f8301126141f8576141f7613c2d565b5b81356142088482602086016141a1565b91505092915050565b6000806000806080858703121561422b5761422a613905565b5b600061423987828801613b85565b945050602061424a87828801613b85565b935050604061425b87828801613ad0565b925050606085013567ffffffffffffffff81111561427c5761427b61390a565b5b614288878288016141e3565b91505092959194509250565b600080600080606085870312156142ae576142ad613905565b5b60006142bc87828801613f92565b94505060206142cd87828801613f92565b935050604085013567ffffffffffffffff8111156142ee576142ed61390a565b5b6142fa87828801613fa7565b925092505092959194509250565b6000806040838503121561431f5761431e613905565b5b600061432d85828601613b85565b925050602061433e85828601613b85565b9150509250929050565b600081519050919050565b600082825260208201905092915050565b6000819050602082019050919050565b600082825260208201905092915050565b6000614390826139fe565b61439a8185614374565b93506143aa818560208601613a1a565b6143b381613a4d565b840191505092915050565b60006143ca8383614385565b905092915050565b6000602082019050919050565b60006143ea82614348565b6143f48185614353565b93508360208202850161440685614364565b8060005b85811015614442578484038952815161442385826143be565b945061442e836143d2565b925060208a0199505060018101905061440a565b50829750879550505050505092915050565b6000602082019050818103600083015261446e81846143df565b905092915050565b60006020828403121561448c5761448b613905565b5b600061449a84828501613f92565b91505092915050565b7f4e487b7100000000000000000000000000000000000000000000000000000000600052602260045260246000fd5b600060028204905060018216806144ea57607f821691505b602082108114156144fe576144fd6144a3565b5b50919050565b7f4552433732313a20617070726f76616c20746f2063757272656e74206f776e6560008201527f7200000000000000000000000000000000000000000000000000000000000000602082015250565b6000614560602183613a09565b915061456b82614504565b604082019050919050565b6000602082019050818103600083015261458f81614553565b9050919050565b7f4552433732313a20617070726f76652063616c6c6572206973206e6f7420746f60008201527f6b656e206f776e6572206e6f7220617070726f76656420666f7220616c6c0000602082015250565b60006145f2603e83613a09565b91506145fd82614596565b604082019050919050565b60006020820190508181036000830152614621816145e5565b9050919050565b7f4552433732313a2063616c6c6572206973206e6f7420746f6b656e206f776e6560008201527f72206e6f7220617070726f766564000000000000000000000000000000000000602082015250565b6000614684602e83613a09565b915061468f82614628565b604082019050919050565b600060208201905081810360008301526146b381614677565b9050919050565b600081905092915050565b60006146d183856146ba565b93506146de838584613ce3565b82840190509392505050565b60006146f78284866146c5565b91508190509392505050565b7f4f6e6c792061637475616c206f776e65722063616e20736574207265636f7264600082015250565b6000614739602083613a09565b915061474482614703565b602082019050919050565b600060208201905081810360008301526147688161472c565b9050919050565b600081905092915050565b50565b600061478a60008361476f565b91506147958261477a565b600082019050919050565b60006147ab8261477d565b9150819050919050565b7f4661696c656420746f2077697468647261772066756e64000000000000000000600082015250565b60006147eb601783613a09565b91506147f6826147b5565b602082019050919050565b6000602082019050818103600083015261481a816147de565b9050919050565b7f566572696679456e61626c656420697320616c72656164792066616c73650000600082015250565b6000614857601e83613a09565b915061486282614821565b602082019050919050565b600060208201905081810360008301526148868161484a565b9050919050565b7f4552433732313a20696e76616c696420746f6b656e2049440000000000000000600082015250565b60006148c3601883613a09565b91506148ce8261488d565b602082019050919050565b600060208201905081810360008301526148f2816148b6565b9050919050565b7f4552433732313a2061646472657373207a65726f206973206e6f74206120766160008201527f6c6964206f776e65720000000000000000000000000000000000000000000000602082015250565b6000614955602983613a09565b9150614960826148f9565b604082019050919050565b6000602082019050818103600083015261498481614948565b9050919050565b7f566572696679456e61626c656420697320616c72656164792074727565000000600082015250565b60006149c1601d83613a09565b91506149cc8261498b565b602082019050919050565b600060208201905081810360008301526149f0816149b4565b9050919050565b6000614a038385613a09565b9350614a10838584613ce3565b614a1983613a4d565b840190509392505050565b60006020820190508181036000830152614a3f8184866149f7565b90509392505050565b7f4e6f7420656e6f756768206d6f6e657900000000000000000000000000000000600082015250565b6000614a7e601083613a09565b9150614a8982614a48565b602082019050919050565b60006020820190508181036000830152614aad81614a71565b9050919050565b7f2e00000000000000000000000000000000000000000000000000000000000000600082015250565b6000614aea6001836146ba565b9150614af582614ab4565b600182019050919050565b60008190508160005260206000209050919050565b60008154614b22816144d2565b614b2c81866146ba565b94506001821660008114614b475760018114614b5857614b8b565b60ff19831686528186019350614b8b565b614b6185614b00565b60005b83811015614b8357815481890152600182019150602081019050614b64565b838801955050505b50505092915050565b6000614ba18285876146c5565b9150614bac82614add565b9150614bb88284614b15565b9150819050949350505050565b6000614bd0826139fe565b614bda81856146ba565b9350614bea818560208601613a1a565b80840191505092915050565b6000614c028286614b15565b9150614c0e8285614bc5565b9150614c1a8284614b15565b9150819050949350505050565b7f7b226e616d65223a202200000000000000000000000000000000000000000000600082015250565b6000614c5d600a836146ba565b9150614c6882614c27565b600a82019050919050565b7f222c20226465736372697074696f6e223a20224120646f6d61696e206f6e207460008201527f68652050616e6461206e616d652073657276696365222c2022696d616765223a60208201527f2022646174613a696d6167652f7376672b786d6c3b6261736536342c00000000604082015250565b6000614cf5605c836146ba565b9150614d0082614c73565b605c82019050919050565b7f222c226c656e677468223a220000000000000000000000000000000000000000600082015250565b6000614d41600c836146ba565b9150614d4c82614d0b565b600c82019050919050565b7f227d000000000000000000000000000000000000000000000000000000000000600082015250565b6000614d8d6002836146ba565b9150614d9882614d57565b600282019050919050565b6000614dae82614c50565b9150614dba8286614bc5565b9150614dc582614ce8565b9150614dd18285614bc5565b9150614ddc82614d34565b9150614de88284614bc5565b9150614df382614d80565b9150819050949350505050565b7f646174613a6170706c69636174696f6e2f6a736f6e3b6261736536342c000000600082015250565b6000614e36601d836146ba565b9150614e4182614e00565b601d82019050919050565b6000614e5782614e29565b9150614e638284614bc5565b915081905092915050565b7f4f6e6c792061637475616c206f776e65722063616e206368616e67652061646460008201527f7265737300000000000000000000000000000000000000000000000000000000602082015250565b6000614eca602483613a09565b9150614ed582614e6e565b604082019050919050565b60006020820190508181036000830152614ef981614ebd565b9050919050565b6000614f0c8285614bc5565b9150614f188284614bc5565b91508190509392505050565b7f416c676f7a436f6e73756d6564546f6b656e4572726f72000000000000000000600082015250565b6000614f5a601783613a09565b9150614f6582614f24565b602082019050919050565b60006020820190508181036000830152614f8981614f4d565b9050919050565b7f416c676f7a546f6b656e457870697265644572726f7200000000000000000000600082015250565b6000614fc6601683613a09565b9150614fd182614f90565b602082019050919050565b60006020820190508181036000830152614ff581614fb9565b9050919050565b6000819050919050565b61501761501282613f71565b614ffc565b82525050565b60006150298285615006565b6020820191506150398284615006565b6020820191508190509392505050565b7f416c676f7a5369676e61747572654572726f7200000000000000000000000000600082015250565b600061507f601383613a09565b915061508a82615049565b602082019050919050565b600060208201905081810360008301526150ae81615072565b9050919050565b7f4f776e61626c653a206e6577206f776e657220697320746865207a65726f206160008201527f6464726573730000000000000000000000000000000000000000000000000000602082015250565b6000615111602683613a09565b915061511c826150b5565b604082019050919050565b6000602082019050818103600083015261514081615104565b9050919050565b7f4e487b7100000000000000000000000000000000000000000000000000000000600052603260045260246000fd5b7f4e487b7100000000000000000000000000000000000000000000000000000000600052601160045260246000fd5b60006151b0826139ca565b91507fffffffffffffffffffffffffffffffffffffffffffffffffffffffffffffffff8214156151e3576151e2615176565b5b600182019050919050565b7f4f776e61626c653a2063616c6c6572206973206e6f7420746865206f776e6572600082015250565b6000615224602083613a09565b915061522f826151ee565b602082019050919050565b6000602082019050818103600083015261525381615217565b9050919050565b7f4552433732313a207472616e736665722066726f6d20696e636f72726563742060008201527f6f776e6572000000000000000000000000000000000000000000000000000000602082015250565b60006152b6602583613a09565b91506152c18261525a565b604082019050919050565b600060208201905081810360008301526152e5816152a9565b9050919050565b7f4552433732313a207472616e7366657220746f20746865207a65726f2061646460008201527f7265737300000000000000000000000000000000000000000000000000000000602082015250565b6000615348602483613a09565b9150615353826152ec565b604082019050919050565b600060208201905081810360008301526153778161533b565b9050919050565b6000615389826139ca565b9150615394836139ca565b9250828210156153a7576153a6615176565b5b828203905092915050565b60006153bd826139ca565b91506153c8836139ca565b9250827fffffffffffffffffffffffffffffffffffffffffffffffffffffffffffffffff038211156153fd576153fc615176565b5b828201905092915050565b7f5061757361626c653a2070617573656400000000000000000000000000000000600082015250565b600061543e601083613a09565b915061544982615408565b602082019050919050565b6000602082019050818103600083015261546d81615431565b9050919050565b7f5061757361626c653a206e6f7420706175736564000000000000000000000000600082015250565b60006154aa601483613a09565b91506154b582615474565b602082019050919050565b600060208201905081810360008301526154d98161549d565b9050919050565b7f4e487b7100000000000000000000000000000000000000000000000000000000600052601260045260246000fd5b600061551a826139ca565b9150615525836139ca565b925082615535576155346154e0565b5b828204905092915050565b600061554b826139ca565b9150615556836139ca565b925082615566576155656154e0565b5b828206905092915050565b600061557c826139ca565b9150615587836139ca565b9250817fffffffffffffffffffffffffffffffffffffffffffffffffffffffffffffffff04831182151516156155c0576155bf615176565b5b828202905092915050565b7f45524337323155524953746f726167653a2055524920736574206f66206e6f6e60008201527f6578697374656e7420746f6b656e000000000000000000000000000000000000602082015250565b6000615627602e83613a09565b9150615632826155cb565b604082019050919050565b600060208201905081810360008301526156568161561a565b9050919050565b7f4552433732313a20617070726f766520746f2063616c6c657200000000000000600082015250565b6000615693601983613a09565b915061569e8261565d565b602082019050919050565b600060208201905081810360008301526156c281615686565b9050919050565b7f4552433732313a207472616e7366657220746f206e6f6e20455243373231526560008201527f63656976657220696d706c656d656e7465720000000000000000000000000000602082015250565b6000615725603283613a09565b9150615730826156c9565b604082019050919050565b6000602082019050818103600083015261575481615718565b9050919050565b7f19457468657265756d205369676e6564204d6573736167653a0a000000000000600082015250565b6000615791601a836146ba565b915061579c8261575b565b601a82019050919050565b600081519050919050565b60006157bd826157a7565b6157c7818561476f565b93506157d7818560208601613a1a565b80840191505092915050565b60006157ee82615784565b91506157fa8285614bc5565b915061580682846157b2565b91508190509392505050565b600082825260208201905092915050565b600061582e826157a7565b6158388185615812565b9350615848818560208601613a1a565b61585181613a4d565b840191505092915050565b60006080820190506158716000830187613b44565b61587e6020830186613b44565b61588b60408301856139d4565b818103606083015261589d8184615823565b905095945050505050565b6000815190506158b78161393b565b92915050565b6000602082840312156158d3576158d2613905565b5b60006158e1848285016158a8565b91505092915050565b7f4e487b7100000000000000000000000000000000000000000000000000000000600052602160045260246000fd5b7f45434453413a20696e76616c6964207369676e61747572650000000000000000600082015250565b600061594f601883613a09565b915061595a82615919565b602082019050919050565b6000602082019050818103600083015261597e81615942565b9050919050565b7f45434453413a20696e76616c6964207369676e6174757265206c656e67746800600082015250565b60006159bb601f83613a09565b91506159c682615985565b602082019050919050565b600060208201905081810360008301526159ea816159ae565b9050919050565b7f45434453413a20696e76616c6964207369676e6174757265202773272076616c60008201527f7565000000000000000000000000000000000000000000000000000000000000602082015250565b6000615a4d602283613a09565b9150615a58826159f1565b604082019050919050565b60006020820190508181036000830152615a7c81615a40565b9050919050565b7f45434453413a20696e76616c6964207369676e6174757265202776272076616c60008201527f7565000000000000000000000000000000000000000000000000000000000000602082015250565b6000615adf602283613a09565b9150615aea82615a83565b604082019050919050565b60006020820190508181036000830152615b0e81615ad2565b9050919050565b7f4552433732313a206d696e7420746f20746865207a65726f2061646472657373600082015250565b6000615b4b602083613a09565b9150615b5682615b15565b602082019050919050565b60006020820190508181036000830152615b7a81615b3e565b9050919050565b7f4552433732313a20746f6b656e20616c7265616479206d696e74656400000000600082015250565b6000615bb7601c83613a09565b9150615bc282615b81565b602082019050919050565b60006020820190508181036000830152615be681615baa565b9050919050565b615bf681613f71565b82525050565b600060ff82169050919050565b615c1281615bfc565b82525050565b6000608082019050615c2d6000830187615bed565b615c3a6020830186615c09565b615c476040830185615bed565b615c546060830184615bed565b9594505050505056fe4142434445464748494a4b4c4d4e4f505152535455565758595a6162636465666768696a6b6c6d6e6f707172737475767778797a303132333435363738392b2fa26469706673582212204f70a2ea19c215e7ca5c5f71fbb19f8943dbe231f4986cad106420ebdb9db30a64736f6c634300080a00333c73766720786d6c6e733d22687474703a2f2f7777772e77332e6f72672f323030302f737667222077696474683d2232373022206865696768743d22323730222066696c6c3d226e6f6e65223e3c706174682066696c6c3d2275726c282361292220643d224d302030683237307632373048307a222f3e3c646566733e3c66696c7465722069643d22622220636f6c6f722d696e746572706f6c6174696f6e2d66696c746572733d2273524742222066696c746572556e6974733d227573657253706163654f6e55736522206865696768743d22323730222077696474683d22323730223e3c666544726f70536861646f772064783d2230222064793d22312220737464446576696174696f6e3d22322220666c6f6f642d6f7061636974793d222e323235222077696474683d223230302522206865696768743d2232303025222f3e3c2f66696c7465723e3c2f646566733e3c7061746820643d226d3134332e3735362037322e38312d372e3531392d372e353739632d2e3430352d332e3232392d322e3530352d31332e39362d31322e3839352d32302e3233612e3935352e3935352030203020302d2e31342d2e3037352038362e3030362038362e3030362030203020302d312e3338352d332e37363920322e333420322e33342030203020302d332e35312d312e303534632d2e31382e3133312d312e3031362e3731362d322e30323520312e362d322e3733342d312e3332352d31302e3633392d342e3738352d32312e3330342d362e33373561372e393820372e39382030203020302d322e3332352d312e363435632d322e37382d312e3330352d372e3931352d312e3636352d31332e39333920312e32343561342e323320342e32332030203020302d2e3631352e3336632d31332e3834312d322e36372d32362e32382d322e3930352d33362e39382d2e3638352d392e31363120312e392d31372e31323520352e3539352d32332e36362031302e393843332e3130352035372e333620302037332e35373520302037362e3935633020352e33393620332e303920392e31303520342e36382031302e3635342d322e3734392031332e3233352d322e3231362032312e3532392d322e3137392032312e39353661322e333420322e333420302030203020322e33333520322e3136356831342e393761322e333420322e333420302030203020322e33342d322e333463302d322e3332312d2e3637352d342e3030352d312e35332d352e313735613230372e363035203230372e36303520302030203020372e3333392d382e38632e3620342e313420312e39303520392e38313520342e3736362031352e303961322e333420322e333420302030203020322e30353520312e32326831372e34373161322e333420322e333420302030203020322e3333352d322e3438362031372e3132372031372e3132372030203020302d2e3934312d342e333939632d312e3034352d322e3836312d322e36312d342e322d342e30352d342e3831762d382e31393463342e3837352d2e30383620392e3937392d2e3634352031342e3533352d322e3036362e33332031302e33353420332e3138352031392e373720332e3334392032302e32393961322e333420322e333420302030203020322e32333520312e36356831372e34373161322e333420322e333420302030203020322e33342d322e323436632e3031352d2e3332362e3037352d332e3231342d312e39382d352e3335352d2e35392d2e3631392d312e3531352d312e33322d322e3836312d312e3732352e3439352d332e31333920322e31332d382e30313420342e3437342d31332e3138356139322e3539392039322e35393920302030203120312e3039352d322e33323563332e313720362e323820392e3735352031382e3036342031362e3930352032332e353820312e3035342e38323120322e33383120312e32353620332e3820312e3235366831332e363661322e333420322e333420302030203020322e33342d322e333835632d2e30362d322e38322d312e39322d362e39362d362e3736352d372e3237312d312e3634352d312e382d352e3131312d31302e3639312d372e3732392d31382e39353620322e36342e3320342e3937362e363620362e35363620312e303820372e313920312e3930352031352e303620322e3534362031352e333920322e35363561322e333420322e333420302030203020322e3035352d2e39336c372e3438352d392e39373961322e333420322e33342030203020302d2e32312d332e30357a6d2d32372e3130352d32342e36632e3436352d2e373820312e31392d312e35383520312e3933352d322e3239352e33373520312e3036352e373720322e32363520312e30353420332e3331352d2e3631392e3439352d312e383620312e3231352d332e323920312e39322d2e31322d312e3134352d2e3038362d322e33312e332d322e39357a4d31352e353835203130322e383235632d2e3535352e3630352d2e383720312e3431342d2e363320322e3230352e3232352e3736352e373220312e33323520312e34383520312e3534352e30392e30362e3237342e3139352e3436352e343736682d392e3738632e3031312d312e3336392e30362d332e33362e3237342d352e3837352e33392d342e363820312e34312d31322e31393520342e30332d32312e3337352e32312d2e37322e37352d312e33333520312e3434342d312e36333520322e3632352d312e31313520372e3833352d322e3731352031322e37322d332e3620372e322d312e33303520392e30372d2e32383920392e3334352d2e3039352d2e30313520352e32352d31312e38372032302e3137352d31392e33352032382e3335347a6d32302e36323520342e3233632d332e3333342d362e38382d332e3934352d31342e3434312d342e30362d31362e38343520322e37392e363420372e343520312e33342031322e37363520312e3537317631302e31323561322e333420322e333420302030203020322e333420322e333463312e303835203020312e37383520312e343120322e313920322e3830354833362e32317a4d36362e33332037312e3838613538352e333235203538352e3332352030203020312d312e33393520372e303935632d2e333920312e3930352d2e363320332e38372d2e37343620352e3835342d392e343820332e3532352d32322e383920322e3336352d32392e3420312e31343520342e3832352d372e35303520342e3832352d31302e33393920342e3832352d31312e353220302d312e36322d2e37362d332e3031312d322e31332d332e3931352d352e3537352d332e3637392d32322e323320312e3531392d32362e343520332e333261372e31393420372e3139342030203020302d342e313120342e363535203133352e303435203133352e3034352030203020302d2e38383920332e323734632d2e3733352d312e32372d312e3335352d322e39312d312e3335352d342e38343520302d322e34343120322e37332d31372e3038352031352e37322d32372e37372031322e38312d31302e3534352033312e3130352d31332e3831352035342e33392d392e37352d332e323120362e3139352d352e3634342031372e3830352d382e3437312033322e34357a6d31332e35332033322e35393561322e333420322e333420302030203020322e333420322e323635632e363435203020312e3135392e31303520312e3534352e3331354837312e343934632d312e3137352d342e34362d342e30352d31372e312d312e39382d32372e3133352e3433352d322e312e3930342d342e353520312e34312d372e31353520312e3239342d362e373220322e3930352d31352e303920342e3732352d32312e38323120322e37382d31302e32373120342e37312d31312e36343520352e30372d31312e383220332e3634352d312e37353520372e3732352d322e323620392e39332d312e32322e3934312e343420312e3520312e31323920312e373620322e3137352e32353520312e30322e363920322e34313520312e31383520342e303220322e313620362e39363420362e36362032312e34363520312e39332032362e3139352d362e39373520362e3937352d31352e392032362e34352d31352e36362033342e31377a6d33392e373720322e323635632e363435203020312e3039352e313220312e3432392e333135682d31302e313035632d2e33373520302d2e3731362d2e3039352d2e3934352d2e3237342d372e3731342d352e3935352d31352e3138342d32312e30362d31372e3032392d32342e393620322e3233352e30383620382e34322e3334312031342e3434312e3832352e3130392e333720312e37383520352e38313620332e3835392031312e33353520342e30322031302e37313420362e30342031322e373520382e3334352031322e37357a6d31332e38392d32342e373631632d322e3437352d2e3235352d382e3134352d2e3934352d31332e32392d322e3330352d352e3436342d312e3434342d31382e3133352d322e31362d32342e3338362d322e34343120312e3033352d312e343620322e30342d322e36383920322e3938312d332e363320362e3732342d362e37323420322e30342d32312e3835352d2e3736352d33302e3838392d2e3235352d2e3832312d2e3439312d312e3537352d2e36392d322e32343620372e313320312e3338352031322e37303120332e35362031352e353720342e38346131302e39322031302e39322030203020302d2e3330342e343931632d322e30303620332e3333342d2e353420382e3431352d2e32323520392e34303561322e333420322e333420302030203020332e31303920312e3435352035302e34332035302e343320302030203020342e31322d312e39333563312e38352d2e393920332e3538352d322e30383520342e3338352d332e34323520332e34323520332e30343120352e33323520362e373220362e33363520392e36392030202e30362030202e31322e3031312e3139312e31303520312e3031362d312e323920332e3739312d322e35393520352e363461322e333420322e333420302030203020332e38323120322e372032362e3936352032362e393635203020302030202e3930342d312e3336396c362e343720362e3532352d352e343920372e33327a222066696c6c3d2223666666222f3e3c646566733e3c6c696e6561724772616469656e742069643d2261222078313d2230222079313d2230222078323d22323730222079323d2232373022206772616469656e74556e6974733d227573657253706163654f6e557365223e3c73746f702073746f702d636f6c6f723d2223464646222f3e3c73746f70206f66667365743d2231222073746f702d6f7061636974793d222e3939222f3e3c2f6c696e6561724772616469656e743e3c2f646566733e3c7465787420783d2233322e352220793d223233312220666f6e742d73697a653d223237222066696c6c3d2223666666222066696c7465723d2275726c282362292220666f6e742d66616d696c793d2273616e732d73657269662c4e6f746f20436f6c6f7220456d6f6a692c204170706c6520436f6c6f7220456d6f6a692220666f6e742d7765696768743d22626f6c64223e",
  "linkReferences": {},
  "deployedLinkReferences": {}
}