{
  "_format": "hh-sol-artifact-1",
  "contractName": "Domains",
  "sourceName": "contracts/Domains.sol",
  "abi": [
    {
      "inputs": [
        {
          "internalType": "uint256",
          "name": "_price",
          "type": "uint256"
        }
      ],
      "stateMutability": "payable",
      "type": "constructor"
    },
    {
      "inputs": [],
      "name": "AlreadyRegistered",
      "type": "error"
    },
    {
      "inputs": [
        {
          "internalType": "string",
          "name": "name",
          "type": "string"
        }
      ],
      "name": "InvalidName",
      "type": "error"
    },
    {
      "anonymous": false,
      "inputs": [
        {
          "indexed": true,
          "internalType": "address",
          "name": "owner",
          "type": "address"
        },
        {
          "indexed": true,
          "internalType": "address",
          "name": "approved",
          "type": "address"
        },
        {
          "indexed": true,
          "internalType": "uint256",
          "name": "tokenId",
          "type": "uint256"
        }
      ],
      "name": "Approval",
      "type": "event"
    },
    {
      "anonymous": false,
      "inputs": [
        {
          "indexed": true,
          "internalType": "address",
          "name": "owner",
          "type": "address"
        },
        {
          "indexed": true,
          "internalType": "address",
          "name": "operator",
          "type": "address"
        },
        {
          "indexed": false,
          "internalType": "bool",
          "name": "approved",
          "type": "bool"
        }
      ],
      "name": "ApprovalForAll",
      "type": "event"
    },
    {
      "anonymous": false,
      "inputs": [
        {
          "indexed": true,
          "internalType": "address",
          "name": "previousOwner",
          "type": "address"
        },
        {
          "indexed": true,
          "internalType": "address",
          "name": "newOwner",
          "type": "address"
        }
      ],
      "name": "OwnershipTransferred",
      "type": "event"
    },
    {
      "anonymous": false,
      "inputs": [
        {
          "indexed": false,
          "internalType": "address",
          "name": "account",
          "type": "address"
        }
      ],
      "name": "Paused",
      "type": "event"
    },
    {
      "anonymous": false,
      "inputs": [
        {
          "indexed": true,
          "internalType": "address",
          "name": "from",
          "type": "address"
        },
        {
          "indexed": true,
          "internalType": "address",
          "name": "to",
          "type": "address"
        },
        {
          "indexed": true,
          "internalType": "uint256",
          "name": "tokenId",
          "type": "uint256"
        }
      ],
      "name": "Transfer",
      "type": "event"
    },
    {
      "anonymous": false,
      "inputs": [
        {
          "indexed": false,
          "internalType": "address",
          "name": "account",
          "type": "address"
        }
      ],
      "name": "Unpaused",
      "type": "event"
    },
    {
      "inputs": [
        {
          "internalType": "address",
          "name": "to",
          "type": "address"
        },
        {
          "internalType": "uint256",
          "name": "tokenId",
          "type": "uint256"
        }
      ],
      "name": "approve",
      "outputs": [],
      "stateMutability": "nonpayable",
      "type": "function"
    },
    {
      "inputs": [
        {
          "internalType": "address",
          "name": "owner",
          "type": "address"
        }
      ],
      "name": "balanceOf",
      "outputs": [
        {
          "internalType": "uint256",
          "name": "",
          "type": "uint256"
        }
      ],
      "stateMutability": "view",
      "type": "function"
    },
    {
      "inputs": [
        {
          "internalType": "string",
          "name": "name",
          "type": "string"
        },
        {
          "internalType": "address",
          "name": "newAddress",
          "type": "address"
        }
      ],
      "name": "changeAddress",
      "outputs": [],
      "stateMutability": "nonpayable",
      "type": "function"
    },
    {
      "inputs": [
        {
          "internalType": "string",
          "name": "",
          "type": "string"
        }
      ],
      "name": "domains",
      "outputs": [
        {
          "internalType": "address",
          "name": "",
          "type": "address"
        }
      ],
      "stateMutability": "view",
      "type": "function"
    },
    {
      "inputs": [
        {
          "internalType": "string",
          "name": "name",
          "type": "string"
        }
      ],
      "name": "getAddress",
      "outputs": [
        {
          "internalType": "address",
          "name": "",
          "type": "address"
        }
      ],
      "stateMutability": "view",
      "type": "function"
    },
    {
      "inputs": [],
      "name": "getAllNames",
      "outputs": [
        {
          "internalType": "string[]",
          "name": "",
          "type": "string[]"
        }
      ],
      "stateMutability": "view",
      "type": "function"
    },
    {
      "inputs": [
        {
          "internalType": "uint256",
          "name": "tokenId",
          "type": "uint256"
        }
      ],
      "name": "getApproved",
      "outputs": [
        {
          "internalType": "address",
          "name": "",
          "type": "address"
        }
      ],
      "stateMutability": "view",
      "type": "function"
    },
    {
      "inputs": [
        {
          "internalType": "string",
          "name": "name",
          "type": "string"
        }
      ],
      "name": "getTwitter",
      "outputs": [
        {
          "internalType": "string",
          "name": "",
          "type": "string"
        }
      ],
      "stateMutability": "view",
      "type": "function"
    },
    {
      "inputs": [
        {
          "internalType": "address",
          "name": "owner",
          "type": "address"
        },
        {
          "internalType": "address",
          "name": "operator",
          "type": "address"
        }
      ],
      "name": "isApprovedForAll",
      "outputs": [
        {
          "internalType": "bool",
          "name": "",
          "type": "bool"
        }
      ],
      "stateMutability": "view",
      "type": "function"
    },
    {
      "inputs": [],
      "name": "name",
      "outputs": [
        {
          "internalType": "string",
          "name": "",
          "type": "string"
        }
      ],
      "stateMutability": "view",
      "type": "function"
    },
    {
      "inputs": [
        {
          "internalType": "uint256",
          "name": "",
          "type": "uint256"
        }
      ],
      "name": "names",
      "outputs": [
        {
          "internalType": "string",
          "name": "",
          "type": "string"
        }
      ],
      "stateMutability": "view",
      "type": "function"
    },
    {
      "inputs": [],
      "name": "owner",
      "outputs": [
        {
          "internalType": "address",
          "name": "",
          "type": "address"
        }
      ],
      "stateMutability": "view",
      "type": "function"
    },
    {
      "inputs": [
        {
          "internalType": "uint256",
          "name": "tokenId",
          "type": "uint256"
        }
      ],
      "name": "ownerOf",
      "outputs": [
        {
          "internalType": "address",
          "name": "",
          "type": "address"
        }
      ],
      "stateMutability": "view",
      "type": "function"
    },
    {
      "inputs": [],
      "name": "pause",
      "outputs": [],
      "stateMutability": "nonpayable",
      "type": "function"
    },
    {
      "inputs": [],
      "name": "paused",
      "outputs": [
        {
          "internalType": "bool",
          "name": "",
          "type": "bool"
        }
      ],
      "stateMutability": "view",
      "type": "function"
    },
    {
      "inputs": [],
      "name": "price",
      "outputs": [
        {
          "internalType": "uint256",
          "name": "",
          "type": "uint256"
        }
      ],
      "stateMutability": "view",
      "type": "function"
    },
    {
      "inputs": [
        {
          "internalType": "string",
          "name": "name",
          "type": "string"
        }
      ],
      "name": "register",
      "outputs": [],
      "stateMutability": "payable",
      "type": "function"
    },
    {
      "inputs": [],
      "name": "renounceOwnership",
      "outputs": [],
      "stateMutability": "nonpayable",
      "type": "function"
    },
    {
      "inputs": [
        {
          "internalType": "address",
          "name": "from",
          "type": "address"
        },
        {
          "internalType": "address",
          "name": "to",
          "type": "address"
        },
        {
          "internalType": "uint256",
          "name": "tokenId",
          "type": "uint256"
        }
      ],
      "name": "safeTransferFrom",
      "outputs": [],
      "stateMutability": "nonpayable",
      "type": "function"
    },
    {
      "inputs": [
        {
          "internalType": "address",
          "name": "from",
          "type": "address"
        },
        {
          "internalType": "address",
          "name": "to",
          "type": "address"
        },
        {
          "internalType": "uint256",
          "name": "tokenId",
          "type": "uint256"
        },
        {
          "internalType": "bytes",
          "name": "data",
          "type": "bytes"
        }
      ],
      "name": "safeTransferFrom",
      "outputs": [],
      "stateMutability": "nonpayable",
      "type": "function"
    },
    {
      "inputs": [
        {
          "internalType": "address",
          "name": "operator",
          "type": "address"
        },
        {
          "internalType": "bool",
          "name": "approved",
          "type": "bool"
        }
      ],
      "name": "setApprovalForAll",
      "outputs": [],
      "stateMutability": "nonpayable",
      "type": "function"
    },
    {
      "inputs": [
        {
          "internalType": "string",
          "name": "name",
          "type": "string"
        },
        {
          "internalType": "string",
          "name": "record",
          "type": "string"
        }
      ],
      "name": "setTwitter",
      "outputs": [],
      "stateMutability": "nonpayable",
      "type": "function"
    },
    {
      "inputs": [
        {
          "internalType": "bytes4",
          "name": "interfaceId",
          "type": "bytes4"
        }
      ],
      "name": "supportsInterface",
      "outputs": [
        {
          "internalType": "bool",
          "name": "",
          "type": "bool"
        }
      ],
      "stateMutability": "view",
      "type": "function"
    },
    {
      "inputs": [],
      "name": "symbol",
      "outputs": [
        {
          "internalType": "string",
          "name": "",
          "type": "string"
        }
      ],
      "stateMutability": "view",
      "type": "function"
    },
    {
      "inputs": [],
      "name": "tld",
      "outputs": [
        {
          "internalType": "string",
          "name": "",
          "type": "string"
        }
      ],
      "stateMutability": "view",
      "type": "function"
    },
    {
      "inputs": [
        {
          "internalType": "uint256",
          "name": "tokenId",
          "type": "uint256"
        }
      ],
      "name": "tokenURI",
      "outputs": [
        {
          "internalType": "string",
          "name": "",
          "type": "string"
        }
      ],
      "stateMutability": "view",
      "type": "function"
    },
    {
      "inputs": [
        {
          "internalType": "address",
          "name": "from",
          "type": "address"
        },
        {
          "internalType": "address",
          "name": "to",
          "type": "address"
        },
        {
          "internalType": "uint256",
          "name": "tokenId",
          "type": "uint256"
        }
      ],
      "name": "transferFrom",
      "outputs": [],
      "stateMutability": "nonpayable",
      "type": "function"
    },
    {
      "inputs": [
        {
          "internalType": "address",
          "name": "newOwner",
          "type": "address"
        }
      ],
      "name": "transferOwnership",
      "outputs": [],
      "stateMutability": "nonpayable",
      "type": "function"
    },
    {
      "inputs": [
        {
          "internalType": "string",
          "name": "",
          "type": "string"
        }
      ],
      "name": "twitter",
      "outputs": [
        {
          "internalType": "string",
          "name": "",
          "type": "string"
        }
      ],
      "stateMutability": "view",
      "type": "function"
    },
    {
      "inputs": [],
      "name": "unpause",
      "outputs": [],
      "stateMutability": "nonpayable",
      "type": "function"
    },
    {
      "inputs": [
        {
          "internalType": "uint256",
          "name": "newPrice",
          "type": "uint256"
        }
      ],
      "name": "updatePrice",
      "outputs": [],
      "stateMutability": "nonpayable",
      "type": "function"
    },
    {
      "inputs": [
        {
          "internalType": "string",
          "name": "name",
          "type": "string"
        }
      ],
      "name": "valid",
      "outputs": [
        {
          "internalType": "bool",
          "name": "",
          "type": "bool"
        }
      ],
      "stateMutability": "pure",
      "type": "function"
    },
    {
      "inputs": [
        {
          "internalType": "address payable",
          "name": "_receiver",
          "type": "address"
        }
      ],
      "name": "withdraw",
      "outputs": [],
      "stateMutability": "nonpayable",
      "type": "function"
    }
  ],
  "bytecode": "0x60806040526040518061104001604052806110098152602001620052246110099139600b908051906020019062000038929190620003a2565b506040518060400160405280600d81526020017f3c2f746578743e3c2f7376673e00000000000000000000000000000000000000815250600c908051906020019062000086929190620003a2565b506040516200622d3803806200622d8339818101604052810190620000ac919062000492565b6040518060400160405280601281526020017f50616e6461204e616d65205365727669636500000000000000000000000000008152506040518060400160405280600381526020017f504e530000000000000000000000000000000000000000000000000000000000815250816000908051906020019062000130929190620003a2565b50806001908051906020019062000149929190620003a2565b5050506000600760006101000a81548160ff021916908315150217905550620001876200017b620001f360201b60201c565b620001fb60201b60201c565b6040518060400160405280600581526020017f70616e646100000000000000000000000000000000000000000000000000000081525060099080519060200190620001d4929190620003a2565b5080600a81905550620001ec620002c160201b60201c565b506200060e565b600033905090565b6000600760019054906101000a900473ffffffffffffffffffffffffffffffffffffffff16905081600760016101000a81548173ffffffffffffffffffffffffffffffffffffffff021916908373ffffffffffffffffffffffffffffffffffffffff1602179055508173ffffffffffffffffffffffffffffffffffffffff168173ffffffffffffffffffffffffffffffffffffffff167f8be0079c531659141344cd1fd0a4f28419497f9722a3daafe3b4186f6b6457e060405160405180910390a35050565b620002d16200033660201b60201c565b6001600760006101000a81548160ff0219169083151502179055507f62e78cea01bee320cd4e420270b5ea74000d11b0c9f74754ebdbfc544b05a2586200031d620001f360201b60201c565b6040516200032c919062000509565b60405180910390a1565b620003466200038b60201b60201c565b1562000389576040517f08c379a0000000000000000000000000000000000000000000000000000000008152600401620003809062000587565b60405180910390fd5b565b6000600760009054906101000a900460ff16905090565b828054620003b090620005d8565b90600052602060002090601f016020900481019282620003d4576000855562000420565b82601f10620003ef57805160ff191683800117855562000420565b8280016001018555821562000420579182015b828111156200041f57825182559160200191906001019062000402565b5b5090506200042f919062000433565b5090565b5b808211156200044e57600081600090555060010162000434565b5090565b600080fd5b6000819050919050565b6200046c8162000457565b81146200047857600080fd5b50565b6000815190506200048c8162000461565b92915050565b600060208284031215620004ab57620004aa62000452565b5b6000620004bb848285016200047b565b91505092915050565b600073ffffffffffffffffffffffffffffffffffffffff82169050919050565b6000620004f182620004c4565b9050919050565b6200050381620004e4565b82525050565b6000602082019050620005206000830184620004f8565b92915050565b600082825260208201905092915050565b7f5061757361626c653a2070617573656400000000000000000000000000000000600082015250565b60006200056f60108362000526565b91506200057c8262000537565b602082019050919050565b60006020820190508181036000830152620005a28162000560565b9050919050565b7f4e487b7100000000000000000000000000000000000000000000000000000000600052602260045260246000fd5b60006002820490506001821680620005f157607f821691505b60208210811415620006085762000607620005a9565b5b50919050565b614c06806200061e6000396000f3fe6080604052600436106101ee5760003560e01c8063715018a61161010d578063a22cb465116100a0578063c87b56dd1161006f578063c87b56dd1461070d578063e985e9c51461074a578063f2c298be14610787578063f2fde38b146107a3578063fb825e5f146107cc576101ee565b8063a22cb46514610655578063a7dbb4021461067e578063b88d4fde146106a7578063bf40fac1146106d0576101ee565b806392f7424f116100dc57806392f7424f1461058557806395d89b41146105c25780639791c097146105ed578063a035b1fe1461062a576101ee565b8063715018a6146105035780638456cb591461051a5780638d6cc56d146105315780638da5cb5b1461055a576101ee565b80633f4ba83a1161018557806353e69abc1161015457806353e69abc146104215780635c975abb1461045e5780636352211e1461048957806370a08231146104c6576101ee565b80633f4ba83a1461037b57806342842e0e146103925780634622ab03146103bb57806351cff8d9146103f8576101ee565b806323b872dd116101c157806323b872dd146102c157806326449235146102ea5780632d551432146103275780633b6e1c9714610352576101ee565b806301ffc9a7146101f357806306fdde0314610230578063081812fc1461025b578063095ea7b314610298575b600080fd5b3480156101ff57600080fd5b5061021a6004803603810190610215919061301e565b6107f7565b6040516102279190613066565b60405180910390f35b34801561023c57600080fd5b506102456108d9565b604051610252919061311a565b60405180910390f35b34801561026757600080fd5b50610282600480360381019061027d9190613172565b61096b565b60405161028f91906131e0565b60405180910390f35b3480156102a457600080fd5b506102bf60048036038101906102ba9190613227565b6109b1565b005b3480156102cd57600080fd5b506102e860048036038101906102e39190613267565b610ac9565b005b3480156102f657600080fd5b50610311600480360381019061030c91906133ef565b610b29565b60405161031e91906131e0565b60405180910390f35b34801561033357600080fd5b5061033c610b72565b604051610349919061311a565b60405180910390f35b34801561035e57600080fd5b5061037960048036038101906103749190613498565b610c00565b005b34801561038757600080fd5b50610390610cec565b005b34801561039e57600080fd5b506103b960048036038101906103b49190613267565b610d06565b005b3480156103c757600080fd5b506103e260048036038101906103dd9190613172565b610d26565b6040516103ef919061311a565b60405180910390f35b34801561040457600080fd5b5061041f600480360381019061041a9190613557565b610dc6565b005b34801561042d57600080fd5b5061044860048036038101906104439190613584565b610e84565b604051610455919061311a565b60405180910390f35b34801561046a57600080fd5b50610473610f37565b6040516104809190613066565b60405180910390f35b34801561049557600080fd5b506104b060048036038101906104ab9190613172565b610f4e565b6040516104bd91906131e0565b60405180910390f35b3480156104d257600080fd5b506104ed60048036038101906104e891906135d1565b611000565b6040516104fa919061360d565b60405180910390f35b34801561050f57600080fd5b506105186110b8565b005b34801561052657600080fd5b5061052f6110cc565b005b34801561053d57600080fd5b5061055860048036038101906105539190613172565b6110e6565b005b34801561056657600080fd5b5061056f6110f8565b60405161057c91906131e0565b60405180910390f35b34801561059157600080fd5b506105ac60048036038101906105a791906133ef565b611122565b6040516105b9919061311a565b60405180910390f35b3480156105ce57600080fd5b506105d76111d8565b6040516105e4919061311a565b60405180910390f35b3480156105f957600080fd5b50610614600480360381019061060f9190613584565b61126a565b6040516106219190613066565b60405180910390f35b34801561063657600080fd5b5061063f61131e565b60405161064c919061360d565b60405180910390f35b34801561066157600080fd5b5061067c60048036038101906106779190613654565b611324565b005b34801561068a57600080fd5b506106a560048036038101906106a09190613694565b61133a565b005b3480156106b357600080fd5b506106ce60048036038101906106c99190613795565b611454565b005b3480156106dc57600080fd5b506106f760048036038101906106f29190613584565b6114b6565b60405161070491906131e0565b60405180910390f35b34801561071957600080fd5b50610734600480360381019061072f9190613172565b611501565b604051610741919061311a565b60405180910390f35b34801561075657600080fd5b50610771600480360381019061076c9190613818565b611614565b60405161077e9190613066565b60405180910390f35b6107a1600480360381019061079c9190613584565b6116a8565b005b3480156107af57600080fd5b506107ca60048036038101906107c591906135d1565b6119ae565b005b3480156107d857600080fd5b506107e1611a32565b6040516107ee9190613964565b60405180910390f35b60007f80ac58cd000000000000000000000000000000000000000000000000000000007bffffffffffffffffffffffffffffffffffffffffffffffffffffffff1916827bffffffffffffffffffffffffffffffffffffffffffffffffffffffff191614806108c257507f5b5e139f000000000000000000000000000000000000000000000000000000007bffffffffffffffffffffffffffffffffffffffffffffffffffffffff1916827bffffffffffffffffffffffffffffffffffffffffffffffffffffffff1916145b806108d257506108d182611b78565b5b9050919050565b6060600080546108e8906139b5565b80601f0160208091040260200160405190810160405280929190818152602001828054610914906139b5565b80156109615780601f1061093657610100808354040283529160200191610961565b820191906000526020600020905b81548152906001019060200180831161094457829003601f168201915b5050505050905090565b600061097682611be2565b6004600083815260200190815260200160002060009054906101000a900473ffffffffffffffffffffffffffffffffffffffff169050919050565b60006109bc82610f4e565b90508073ffffffffffffffffffffffffffffffffffffffff168373ffffffffffffffffffffffffffffffffffffffff161415610a2d576040517f08c379a0000000000000000000000000000000000000000000000000000000008152600401610a2490613a59565b60405180910390fd5b8073ffffffffffffffffffffffffffffffffffffffff16610a4c611c2d565b73ffffffffffffffffffffffffffffffffffffffff161480610a7b5750610a7a81610a75611c2d565b611614565b5b610aba576040517f08c379a0000000000000000000000000000000000000000000000000000000008152600401610ab190613aeb565b60405180910390fd5b610ac48383611c35565b505050565b610ada610ad4611c2d565b82611cee565b610b19576040517f08c379a0000000000000000000000000000000000000000000000000000000008152600401610b1090613b7d565b60405180910390fd5b610b24838383611d83565b505050565b600d818051602081018201805184825260208301602085012081835280955050505050506000915054906101000a900473ffffffffffffffffffffffffffffffffffffffff1681565b60098054610b7f906139b5565b80601f0160208091040260200160405190810160405280929190818152602001828054610bab906139b5565b8015610bf85780601f10610bcd57610100808354040283529160200191610bf8565b820191906000526020600020905b815481529060010190602001808311610bdb57829003601f168201915b505050505081565b610c08611fea565b3373ffffffffffffffffffffffffffffffffffffffff16600d8585604051610c31929190613bcd565b908152602001604051809103902060009054906101000a900473ffffffffffffffffffffffffffffffffffffffff1673ffffffffffffffffffffffffffffffffffffffff1614610cb6576040517f08c379a0000000000000000000000000000000000000000000000000000000008152600401610cad90613c32565b60405180910390fd5b8181600e8686604051610cca929190613bcd565b90815260200160405180910390209190610ce5929190612e89565b5050505050565b610cf4612034565b610cfc6120b2565b610d046120fb565b565b610d2183838360405180602001604052806000815250611454565b505050565b600f6020528060005260406000206000915090508054610d45906139b5565b80601f0160208091040260200160405190810160405280929190818152602001828054610d71906139b5565b8015610dbe5780601f10610d9357610100808354040283529160200191610dbe565b820191906000526020600020905b815481529060010190602001808311610da157829003601f168201915b505050505081565b610dce612034565b600047905060008273ffffffffffffffffffffffffffffffffffffffff1682604051610df990613c83565b60006040518083038185875af1925050503d8060008114610e36576040519150601f19603f3d011682016040523d82523d6000602084013e610e3b565b606091505b5050905080610e7f576040517f08c379a0000000000000000000000000000000000000000000000000000000008152600401610e7690613ce4565b60405180910390fd5b505050565b6060600e8383604051610e98929190613bcd565b90815260200160405180910390208054610eb1906139b5565b80601f0160208091040260200160405190810160405280929190818152602001828054610edd906139b5565b8015610f2a5780601f10610eff57610100808354040283529160200191610f2a565b820191906000526020600020905b815481529060010190602001808311610f0d57829003601f168201915b5050505050905092915050565b6000600760009054906101000a900460ff16905090565b6000806002600084815260200190815260200160002060009054906101000a900473ffffffffffffffffffffffffffffffffffffffff169050600073ffffffffffffffffffffffffffffffffffffffff168173ffffffffffffffffffffffffffffffffffffffff161415610ff7576040517f08c379a0000000000000000000000000000000000000000000000000000000008152600401610fee90613d50565b60405180910390fd5b80915050919050565b60008073ffffffffffffffffffffffffffffffffffffffff168273ffffffffffffffffffffffffffffffffffffffff161415611071576040517f08c379a000000000000000000000000000000000000000000000000000000000815260040161106890613de2565b60405180910390fd5b600360008373ffffffffffffffffffffffffffffffffffffffff1673ffffffffffffffffffffffffffffffffffffffff168152602001908152602001600020549050919050565b6110c0612034565b6110ca600061215e565b565b6110d4612034565b6110dc611fea565b6110e4612224565b565b6110ee612034565b80600a8190555050565b6000600760019054906101000a900473ffffffffffffffffffffffffffffffffffffffff16905090565b600e818051602081018201805184825260208301602085012081835280955050505050506000915090508054611157906139b5565b80601f0160208091040260200160405190810160405280929190818152602001828054611183906139b5565b80156111d05780601f106111a5576101008083540402835291602001916111d0565b820191906000526020600020905b8154815290600101906020018083116111b357829003601f168201915b505050505081565b6060600180546111e7906139b5565b80601f0160208091040260200160405190810160405280929190818152602001828054611213906139b5565b80156112605780601f1061123557610100808354040283529160200191611260565b820191906000526020600020905b81548152906001019060200180831161124357829003601f168201915b5050505050905090565b600060016112bb84848080601f016020809104026020016040519081016040528093929190818152602001838380828437600081840152601f19601f82011690508083019250505050505050612287565b101580156113165750608c61131384848080601f016020809104026020016040519081016040528093929190818152602001838380828437600081840152601f19601f82011690508083019250505050505050612287565b11155b905092915050565b600a5481565b61133661132f611c2d565b838361243c565b5050565b611342611fea565b3373ffffffffffffffffffffffffffffffffffffffff16600d848460405161136b929190613bcd565b908152602001604051809103902060009054906101000a900473ffffffffffffffffffffffffffffffffffffffff1673ffffffffffffffffffffffffffffffffffffffff16146113f0576040517f08c379a00000000000000000000000000000000000000000000000000000000081526004016113e790613e74565b60405180910390fd5b80600d8484604051611403929190613bcd565b908152602001604051809103902060006101000a81548173ffffffffffffffffffffffffffffffffffffffff021916908373ffffffffffffffffffffffffffffffffffffffff160217905550505050565b61146561145f611c2d565b83611cee565b6114a4576040517f08c379a000000000000000000000000000000000000000000000000000000000815260040161149b90613b7d565b60405180910390fd5b6114b0848484846125a9565b50505050565b6000600d83836040516114ca929190613bcd565b908152602001604051809103902060009054906101000a900473ffffffffffffffffffffffffffffffffffffffff16905092915050565b606061150c82611be2565b600060066000848152602001908152602001600020805461152c906139b5565b80601f0160208091040260200160405190810160405280929190818152602001828054611558906139b5565b80156115a55780601f1061157a576101008083540402835291602001916115a5565b820191906000526020600020905b81548152906001019060200180831161158857829003601f168201915b5050505050905060006115b6612605565b90506000815114156115cc57819250505061160f565b6000825111156116015780826040516020016115e9929190613ec5565b6040516020818303038152906040529250505061160f565b61160a8461261c565b925050505b919050565b6000600560008473ffffffffffffffffffffffffffffffffffffffff1673ffffffffffffffffffffffffffffffffffffffff16815260200190815260200160002060008373ffffffffffffffffffffffffffffffffffffffff1673ffffffffffffffffffffffffffffffffffffffff16815260200190815260200160002060009054906101000a900460ff16905092915050565b6116b0611fea565b600073ffffffffffffffffffffffffffffffffffffffff16600d83836040516116da929190613bcd565b908152602001604051809103902060009054906101000a900473ffffffffffffffffffffffffffffffffffffffff1673ffffffffffffffffffffffffffffffffffffffff1614611756576040517f3a81d6fc00000000000000000000000000000000000000000000000000000000815260040160405180910390fd5b611760828261126a565b6117a35781816040517f7f19f48d00000000000000000000000000000000000000000000000000000000815260040161179a929190613f16565b60405180910390fd5b600a543410156117e8576040517f08c379a00000000000000000000000000000000000000000000000000000000081526004016117df90613f86565b60405180910390fd5b60008282600960405160200161180093929190614086565b60405160208183030381529060405290506000600b82600c60405160200161182a939291906140b7565b604051602081830303815290604052905060006118476008612684565b9050600061189886868080601f016020809104026020016040519081016040528093929190818152602001838380828437600081840152601f19601f82011690508083019250505050505050612287565b905060006118a582612692565b905060006118dd866118b6876127f3565b846040516020016118c993929190614264565b6040516020818303038152906040526127f3565b90506000816040516020016118f2919061430d565b604051602081830303815290604052905061190d338661298b565b61191785826129a9565b33600d8a8a60405161192a929190613bcd565b908152602001604051809103902060006101000a81548173ffffffffffffffffffffffffffffffffffffffff021916908373ffffffffffffffffffffffffffffffffffffffff1602179055508888600f60008881526020019081526020016000209190611998929190612e89565b506119a36008612a1d565b505050505050505050565b6119b6612034565b600073ffffffffffffffffffffffffffffffffffffffff168173ffffffffffffffffffffffffffffffffffffffff161415611a26576040517f08c379a0000000000000000000000000000000000000000000000000000000008152600401611a1d906143a1565b60405180910390fd5b611a2f8161215e565b50565b60606000611a406008612684565b67ffffffffffffffff811115611a5957611a586132c4565b5b604051908082528060200260200182016040528015611a8c57816020015b6060815260200190600190039081611a775790505b50905060005b611a9c6008612684565b811015611b7057600f60008281526020019081526020016000208054611ac1906139b5565b80601f0160208091040260200160405190810160405280929190818152602001828054611aed906139b5565b8015611b3a5780601f10611b0f57610100808354040283529160200191611b3a565b820191906000526020600020905b815481529060010190602001808311611b1d57829003601f168201915b5050505050828281518110611b5257611b516143c1565b5b60200260200101819052508080611b689061441f565b915050611a92565b508091505090565b60007f01ffc9a7000000000000000000000000000000000000000000000000000000007bffffffffffffffffffffffffffffffffffffffffffffffffffffffff1916827bffffffffffffffffffffffffffffffffffffffffffffffffffffffff1916149050919050565b611beb81612a33565b611c2a576040517f08c379a0000000000000000000000000000000000000000000000000000000008152600401611c2190613d50565b60405180910390fd5b50565b600033905090565b816004600083815260200190815260200160002060006101000a81548173ffffffffffffffffffffffffffffffffffffffff021916908373ffffffffffffffffffffffffffffffffffffffff160217905550808273ffffffffffffffffffffffffffffffffffffffff16611ca883610f4e565b73ffffffffffffffffffffffffffffffffffffffff167f8c5be1e5ebec7d5bd14f71427d1e84f3dd0314c0f7b2291e5b200ac8c7c3b92560405160405180910390a45050565b600080611cfa83610f4e565b90508073ffffffffffffffffffffffffffffffffffffffff168473ffffffffffffffffffffffffffffffffffffffff161480611d3c5750611d3b8185611614565b5b80611d7a57508373ffffffffffffffffffffffffffffffffffffffff16611d628461096b565b73ffffffffffffffffffffffffffffffffffffffff16145b91505092915050565b8273ffffffffffffffffffffffffffffffffffffffff16611da382610f4e565b73ffffffffffffffffffffffffffffffffffffffff1614611df9576040517f08c379a0000000000000000000000000000000000000000000000000000000008152600401611df0906144da565b60405180910390fd5b600073ffffffffffffffffffffffffffffffffffffffff168273ffffffffffffffffffffffffffffffffffffffff161415611e69576040517f08c379a0000000000000000000000000000000000000000000000000000000008152600401611e609061456c565b60405180910390fd5b611e74838383612a9f565b611e7f600082611c35565b6001600360008573ffffffffffffffffffffffffffffffffffffffff1673ffffffffffffffffffffffffffffffffffffffff1681526020019081526020016000206000828254611ecf919061458c565b925050819055506001600360008473ffffffffffffffffffffffffffffffffffffffff1673ffffffffffffffffffffffffffffffffffffffff1681526020019081526020016000206000828254611f2691906145c0565b92505081905550816002600083815260200190815260200160002060006101000a81548173ffffffffffffffffffffffffffffffffffffffff021916908373ffffffffffffffffffffffffffffffffffffffff160217905550808273ffffffffffffffffffffffffffffffffffffffff168473ffffffffffffffffffffffffffffffffffffffff167fddf252ad1be2c89b69c2b068fc378daa952ba7f163c4a11628f55a4df523b3ef60405160405180910390a4611fe5838383612aa4565b505050565b611ff2610f37565b15612032576040517f08c379a000000000000000000000000000000000000000000000000000000000815260040161202990614662565b60405180910390fd5b565b61203c611c2d565b73ffffffffffffffffffffffffffffffffffffffff1661205a6110f8565b73ffffffffffffffffffffffffffffffffffffffff16146120b0576040517f08c379a00000000000000000000000000000000000000000000000000000000081526004016120a7906146ce565b60405180910390fd5b565b6120ba610f37565b6120f9576040517f08c379a00000000000000000000000000000000000000000000000000000000081526004016120f09061473a565b60405180910390fd5b565b6121036120b2565b6000600760006101000a81548160ff0219169083151502179055507f5db9ee0a495bf2e6ff9c91a7834c1ba4fdd244a5e8aa4e537bd38aeae4b073aa612147611c2d565b60405161215491906131e0565b60405180910390a1565b6000600760019054906101000a900473ffffffffffffffffffffffffffffffffffffffff16905081600760016101000a81548173ffffffffffffffffffffffffffffffffffffffff021916908373ffffffffffffffffffffffffffffffffffffffff1602179055508173ffffffffffffffffffffffffffffffffffffffff168173ffffffffffffffffffffffffffffffffffffffff167f8be0079c531659141344cd1fd0a4f28419497f9722a3daafe3b4186f6b6457e060405160405180910390a35050565b61222c611fea565b6001600760006101000a81548160ff0219169083151502179055507f62e78cea01bee320cd4e420270b5ea74000d11b0c9f74754ebdbfc544b05a258612270611c2d565b60405161227d91906131e0565b60405180910390a1565b60008060008084519050600092505b808210156124315760008583815181106122b3576122b26143c1565b5b602001015160f81c60f81b9050608060f81b817effffffffffffffffffffffffffffffffffffffffffffffffffffffffffffff19161015612302576001836122fb91906145c0565b925061241d565b60e060f81b817effffffffffffffffffffffffffffffffffffffffffffffffffffffffffffff191610156123445760028361233d91906145c0565b925061241c565b60f060f81b817effffffffffffffffffffffffffffffffffffffffffffffffffffffffffffff191610156123865760038361237f91906145c0565b925061241b565b60f8801b817effffffffffffffffffffffffffffffffffffffffffffffffffffffffffffff191610156123c7576004836123c091906145c0565b925061241a565b60fc60f81b817effffffffffffffffffffffffffffffffffffffffffffffffffffffffffffff191610156124095760058361240291906145c0565b9250612419565b60068361241691906145c0565b92505b5b5b5b5b5082806124299061441f565b935050612296565b829350505050919050565b8173ffffffffffffffffffffffffffffffffffffffff168373ffffffffffffffffffffffffffffffffffffffff1614156124ab576040517f08c379a00000000000000000000000000000000000000000000000000000000081526004016124a2906147a6565b60405180910390fd5b80600560008573ffffffffffffffffffffffffffffffffffffffff1673ffffffffffffffffffffffffffffffffffffffff16815260200190815260200160002060008473ffffffffffffffffffffffffffffffffffffffff1673ffffffffffffffffffffffffffffffffffffffff16815260200190815260200160002060006101000a81548160ff0219169083151502179055508173ffffffffffffffffffffffffffffffffffffffff168373ffffffffffffffffffffffffffffffffffffffff167f17307eab39ab6107e8899845ad3d59bd9653f200f220920489ca2b5937696c318360405161259c9190613066565b60405180910390a3505050565b6125b4848484611d83565b6125c084848484612aa9565b6125ff576040517f08c379a00000000000000000000000000000000000000000000000000000000081526004016125f690614838565b60405180910390fd5b50505050565b606060405180602001604052806000815250905090565b606061262782611be2565b6000612631612605565b90506000815111612651576040518060200160405280600081525061267c565b8061265b84612692565b60405160200161266c929190613ec5565b6040516020818303038152906040525b915050919050565b600081600001549050919050565b606060008214156126da576040518060400160405280600181526020017f300000000000000000000000000000000000000000000000000000000000000081525090506127ee565b600082905060005b6000821461270c5780806126f59061441f565b915050600a826127059190614887565b91506126e2565b60008167ffffffffffffffff811115612728576127276132c4565b5b6040519080825280601f01601f19166020018201604052801561275a5781602001600182028036833780820191505090505b5090505b600085146127e757600182612773919061458c565b9150600a8561278291906148b8565b603061278e91906145c0565b60f81b8183815181106127a4576127a36143c1565b5b60200101907effffffffffffffffffffffffffffffffffffffffffffffffffffffffffffff1916908160001a905350600a856127e09190614887565b945061275e565b8093505050505b919050565b6060600082519050600081141561281c5760405180602001604052806000815250915050612986565b6000600360028361282d91906145c0565b6128379190614887565b600461284391906148e9565b9050600060208261285491906145c0565b67ffffffffffffffff81111561286d5761286c6132c4565b5b6040519080825280601f01601f19166020018201604052801561289f5781602001600182028036833780820191505090505b5090506000604051806060016040528060408152602001614b91604091399050600181016020830160005b868110156129435760038101905062ffffff818a015116603f8160121c168401518060081b905060ff603f83600c1c1686015116810190508060081b905060ff603f8360061c1686015116810190508060081b905060ff603f831686015116810190508060e01b905080845260048401935050506128ca565b50600386066001811461295d576002811461296d57612978565b613d3d60f01b6002830352612978565b603d60f81b60018303525b508484525050819450505050505b919050565b6129a5828260405180602001604052806000815250612c31565b5050565b6129b282612a33565b6129f1576040517f08c379a00000000000000000000000000000000000000000000000000000000081526004016129e8906149b5565b60405180910390fd5b80600660008481526020019081526020016000209080519060200190612a18929190612f0f565b505050565b6001816000016000828254019250508190555050565b60008073ffffffffffffffffffffffffffffffffffffffff166002600084815260200190815260200160002060009054906101000a900473ffffffffffffffffffffffffffffffffffffffff1673ffffffffffffffffffffffffffffffffffffffff1614159050919050565b505050565b505050565b6000612aca8473ffffffffffffffffffffffffffffffffffffffff16612c8c565b15612c24578373ffffffffffffffffffffffffffffffffffffffff1663150b7a02612af3611c2d565b8786866040518563ffffffff1660e01b8152600401612b159493929190614a2a565b6020604051808303816000875af1925050508015612b5157506040513d601f19601f82011682018060405250810190612b4e9190614a8b565b60015b612bd4573d8060008114612b81576040519150601f19603f3d011682016040523d82523d6000602084013e612b86565b606091505b50600081511415612bcc576040517f08c379a0000000000000000000000000000000000000000000000000000000008152600401612bc390614838565b60405180910390fd5b805181602001fd5b63150b7a0260e01b7bffffffffffffffffffffffffffffffffffffffffffffffffffffffff1916817bffffffffffffffffffffffffffffffffffffffffffffffffffffffff191614915050612c29565b600190505b949350505050565b612c3b8383612caf565b612c486000848484612aa9565b612c87576040517f08c379a0000000000000000000000000000000000000000000000000000000008152600401612c7e90614838565b60405180910390fd5b505050565b6000808273ffffffffffffffffffffffffffffffffffffffff163b119050919050565b600073ffffffffffffffffffffffffffffffffffffffff168273ffffffffffffffffffffffffffffffffffffffff161415612d1f576040517f08c379a0000000000000000000000000000000000000000000000000000000008152600401612d1690614b04565b60405180910390fd5b612d2881612a33565b15612d68576040517f08c379a0000000000000000000000000000000000000000000000000000000008152600401612d5f90614b70565b60405180910390fd5b612d7460008383612a9f565b6001600360008473ffffffffffffffffffffffffffffffffffffffff1673ffffffffffffffffffffffffffffffffffffffff1681526020019081526020016000206000828254612dc491906145c0565b92505081905550816002600083815260200190815260200160002060006101000a81548173ffffffffffffffffffffffffffffffffffffffff021916908373ffffffffffffffffffffffffffffffffffffffff160217905550808273ffffffffffffffffffffffffffffffffffffffff16600073ffffffffffffffffffffffffffffffffffffffff167fddf252ad1be2c89b69c2b068fc378daa952ba7f163c4a11628f55a4df523b3ef60405160405180910390a4612e8560008383612aa4565b5050565b828054612e95906139b5565b90600052602060002090601f016020900481019282612eb75760008555612efe565b82601f10612ed057803560ff1916838001178555612efe565b82800160010185558215612efe579182015b82811115612efd578235825591602001919060010190612ee2565b5b509050612f0b9190612f95565b5090565b828054612f1b906139b5565b90600052602060002090601f016020900481019282612f3d5760008555612f84565b82601f10612f5657805160ff1916838001178555612f84565b82800160010185558215612f84579182015b82811115612f83578251825591602001919060010190612f68565b5b509050612f919190612f95565b5090565b5b80821115612fae576000816000905550600101612f96565b5090565b6000604051905090565b600080fd5b600080fd5b60007fffffffff0000000000000000000000000000000000000000000000000000000082169050919050565b612ffb81612fc6565b811461300657600080fd5b50565b60008135905061301881612ff2565b92915050565b60006020828403121561303457613033612fbc565b5b600061304284828501613009565b91505092915050565b60008115159050919050565b6130608161304b565b82525050565b600060208201905061307b6000830184613057565b92915050565b600081519050919050565b600082825260208201905092915050565b60005b838110156130bb5780820151818401526020810190506130a0565b838111156130ca576000848401525b50505050565b6000601f19601f8301169050919050565b60006130ec82613081565b6130f6818561308c565b935061310681856020860161309d565b61310f816130d0565b840191505092915050565b6000602082019050818103600083015261313481846130e1565b905092915050565b6000819050919050565b61314f8161313c565b811461315a57600080fd5b50565b60008135905061316c81613146565b92915050565b60006020828403121561318857613187612fbc565b5b60006131968482850161315d565b91505092915050565b600073ffffffffffffffffffffffffffffffffffffffff82169050919050565b60006131ca8261319f565b9050919050565b6131da816131bf565b82525050565b60006020820190506131f560008301846131d1565b92915050565b613204816131bf565b811461320f57600080fd5b50565b600081359050613221816131fb565b92915050565b6000806040838503121561323e5761323d612fbc565b5b600061324c85828601613212565b925050602061325d8582860161315d565b9150509250929050565b6000806000606084860312156132805761327f612fbc565b5b600061328e86828701613212565b935050602061329f86828701613212565b92505060406132b08682870161315d565b9150509250925092565b600080fd5b600080fd5b7f4e487b7100000000000000000000000000000000000000000000000000000000600052604160045260246000fd5b6132fc826130d0565b810181811067ffffffffffffffff8211171561331b5761331a6132c4565b5b80604052505050565b600061332e612fb2565b905061333a82826132f3565b919050565b600067ffffffffffffffff82111561335a576133596132c4565b5b613363826130d0565b9050602081019050919050565b82818337600083830152505050565b600061339261338d8461333f565b613324565b9050828152602081018484840111156133ae576133ad6132bf565b5b6133b9848285613370565b509392505050565b600082601f8301126133d6576133d56132ba565b5b81356133e684826020860161337f565b91505092915050565b60006020828403121561340557613404612fbc565b5b600082013567ffffffffffffffff81111561342357613422612fc1565b5b61342f848285016133c1565b91505092915050565b600080fd5b600080fd5b60008083601f840112613458576134576132ba565b5b8235905067ffffffffffffffff81111561347557613474613438565b5b6020830191508360018202830111156134915761349061343d565b5b9250929050565b600080600080604085870312156134b2576134b1612fbc565b5b600085013567ffffffffffffffff8111156134d0576134cf612fc1565b5b6134dc87828801613442565b9450945050602085013567ffffffffffffffff8111156134ff576134fe612fc1565b5b61350b87828801613442565b925092505092959194509250565b60006135248261319f565b9050919050565b61353481613519565b811461353f57600080fd5b50565b6000813590506135518161352b565b92915050565b60006020828403121561356d5761356c612fbc565b5b600061357b84828501613542565b91505092915050565b6000806020838503121561359b5761359a612fbc565b5b600083013567ffffffffffffffff8111156135b9576135b8612fc1565b5b6135c585828601613442565b92509250509250929050565b6000602082840312156135e7576135e6612fbc565b5b60006135f584828501613212565b91505092915050565b6136078161313c565b82525050565b600060208201905061362260008301846135fe565b92915050565b6136318161304b565b811461363c57600080fd5b50565b60008135905061364e81613628565b92915050565b6000806040838503121561366b5761366a612fbc565b5b600061367985828601613212565b925050602061368a8582860161363f565b9150509250929050565b6000806000604084860312156136ad576136ac612fbc565b5b600084013567ffffffffffffffff8111156136cb576136ca612fc1565b5b6136d786828701613442565b935093505060206136ea86828701613212565b9150509250925092565b600067ffffffffffffffff82111561370f5761370e6132c4565b5b613718826130d0565b9050602081019050919050565b6000613738613733846136f4565b613324565b905082815260208101848484011115613754576137536132bf565b5b61375f848285613370565b509392505050565b600082601f83011261377c5761377b6132ba565b5b813561378c848260208601613725565b91505092915050565b600080600080608085870312156137af576137ae612fbc565b5b60006137bd87828801613212565b94505060206137ce87828801613212565b93505060406137df8782880161315d565b925050606085013567ffffffffffffffff811115613800576137ff612fc1565b5b61380c87828801613767565b91505092959194509250565b6000806040838503121561382f5761382e612fbc565b5b600061383d85828601613212565b925050602061384e85828601613212565b9150509250929050565b600081519050919050565b600082825260208201905092915050565b6000819050602082019050919050565b600082825260208201905092915050565b60006138a082613081565b6138aa8185613884565b93506138ba81856020860161309d565b6138c3816130d0565b840191505092915050565b60006138da8383613895565b905092915050565b6000602082019050919050565b60006138fa82613858565b6139048185613863565b93508360208202850161391685613874565b8060005b85811015613952578484038952815161393385826138ce565b945061393e836138e2565b925060208a0199505060018101905061391a565b50829750879550505050505092915050565b6000602082019050818103600083015261397e81846138ef565b905092915050565b7f4e487b7100000000000000000000000000000000000000000000000000000000600052602260045260246000fd5b600060028204905060018216806139cd57607f821691505b602082108114156139e1576139e0613986565b5b50919050565b7f4552433732313a20617070726f76616c20746f2063757272656e74206f776e6560008201527f7200000000000000000000000000000000000000000000000000000000000000602082015250565b6000613a4360218361308c565b9150613a4e826139e7565b604082019050919050565b60006020820190508181036000830152613a7281613a36565b9050919050565b7f4552433732313a20617070726f76652063616c6c6572206973206e6f7420746f60008201527f6b656e206f776e6572206e6f7220617070726f76656420666f7220616c6c0000602082015250565b6000613ad5603e8361308c565b9150613ae082613a79565b604082019050919050565b60006020820190508181036000830152613b0481613ac8565b9050919050565b7f4552433732313a2063616c6c6572206973206e6f7420746f6b656e206f776e6560008201527f72206e6f7220617070726f766564000000000000000000000000000000000000602082015250565b6000613b67602e8361308c565b9150613b7282613b0b565b604082019050919050565b60006020820190508181036000830152613b9681613b5a565b9050919050565b600081905092915050565b6000613bb48385613b9d565b9350613bc1838584613370565b82840190509392505050565b6000613bda828486613ba8565b91508190509392505050565b7f4f6e6c792061637475616c206f776e65722063616e20736574207265636f7264600082015250565b6000613c1c60208361308c565b9150613c2782613be6565b602082019050919050565b60006020820190508181036000830152613c4b81613c0f565b9050919050565b600081905092915050565b50565b6000613c6d600083613c52565b9150613c7882613c5d565b600082019050919050565b6000613c8e82613c60565b9150819050919050565b7f4661696c656420746f2077697468647261772066756e64000000000000000000600082015250565b6000613cce60178361308c565b9150613cd982613c98565b602082019050919050565b60006020820190508181036000830152613cfd81613cc1565b9050919050565b7f4552433732313a20696e76616c696420746f6b656e2049440000000000000000600082015250565b6000613d3a60188361308c565b9150613d4582613d04565b602082019050919050565b60006020820190508181036000830152613d6981613d2d565b9050919050565b7f4552433732313a2061646472657373207a65726f206973206e6f74206120766160008201527f6c6964206f776e65720000000000000000000000000000000000000000000000602082015250565b6000613dcc60298361308c565b9150613dd782613d70565b604082019050919050565b60006020820190508181036000830152613dfb81613dbf565b9050919050565b7f4f6e6c792061637475616c206f776e65722063616e206368616e67652061646460008201527f7265737300000000000000000000000000000000000000000000000000000000602082015250565b6000613e5e60248361308c565b9150613e6982613e02565b604082019050919050565b60006020820190508181036000830152613e8d81613e51565b9050919050565b6000613e9f82613081565b613ea98185613b9d565b9350613eb981856020860161309d565b80840191505092915050565b6000613ed18285613e94565b9150613edd8284613e94565b91508190509392505050565b6000613ef5838561308c565b9350613f02838584613370565b613f0b836130d0565b840190509392505050565b60006020820190508181036000830152613f31818486613ee9565b90509392505050565b7f4e6f7420656e6f756768206d6f6e657900000000000000000000000000000000600082015250565b6000613f7060108361308c565b9150613f7b82613f3a565b602082019050919050565b60006020820190508181036000830152613f9f81613f63565b9050919050565b7f2e00000000000000000000000000000000000000000000000000000000000000600082015250565b6000613fdc600183613b9d565b9150613fe782613fa6565b600182019050919050565b60008190508160005260206000209050919050565b60008154614014816139b5565b61401e8186613b9d565b94506001821660008114614039576001811461404a5761407d565b60ff1983168652818601935061407d565b61405385613ff2565b60005b8381101561407557815481890152600182019150602081019050614056565b838801955050505b50505092915050565b6000614093828587613ba8565b915061409e82613fcf565b91506140aa8284614007565b9150819050949350505050565b60006140c38286614007565b91506140cf8285613e94565b91506140db8284614007565b9150819050949350505050565b7f7b226e616d65223a202200000000000000000000000000000000000000000000600082015250565b600061411e600a83613b9d565b9150614129826140e8565b600a82019050919050565b7f222c20226465736372697074696f6e223a20224120646f6d61696e206f6e207460008201527f68652050616e6461206e616d652073657276696365222c2022696d616765223a60208201527f2022646174613a696d6167652f7376672b786d6c3b6261736536342c00000000604082015250565b60006141b6605c83613b9d565b91506141c182614134565b605c82019050919050565b7f222c226c656e677468223a220000000000000000000000000000000000000000600082015250565b6000614202600c83613b9d565b915061420d826141cc565b600c82019050919050565b7f227d000000000000000000000000000000000000000000000000000000000000600082015250565b600061424e600283613b9d565b915061425982614218565b600282019050919050565b600061426f82614111565b915061427b8286613e94565b9150614286826141a9565b91506142928285613e94565b915061429d826141f5565b91506142a98284613e94565b91506142b482614241565b9150819050949350505050565b7f646174613a6170706c69636174696f6e2f6a736f6e3b6261736536342c000000600082015250565b60006142f7601d83613b9d565b9150614302826142c1565b601d82019050919050565b6000614318826142ea565b91506143248284613e94565b915081905092915050565b7f4f776e61626c653a206e6577206f776e657220697320746865207a65726f206160008201527f6464726573730000000000000000000000000000000000000000000000000000602082015250565b600061438b60268361308c565b91506143968261432f565b604082019050919050565b600060208201905081810360008301526143ba8161437e565b9050919050565b7f4e487b7100000000000000000000000000000000000000000000000000000000600052603260045260246000fd5b7f4e487b7100000000000000000000000000000000000000000000000000000000600052601160045260246000fd5b600061442a8261313c565b91507fffffffffffffffffffffffffffffffffffffffffffffffffffffffffffffffff82141561445d5761445c6143f0565b5b600182019050919050565b7f4552433732313a207472616e736665722066726f6d20696e636f72726563742060008201527f6f776e6572000000000000000000000000000000000000000000000000000000602082015250565b60006144c460258361308c565b91506144cf82614468565b604082019050919050565b600060208201905081810360008301526144f3816144b7565b9050919050565b7f4552433732313a207472616e7366657220746f20746865207a65726f2061646460008201527f7265737300000000000000000000000000000000000000000000000000000000602082015250565b600061455660248361308c565b9150614561826144fa565b604082019050919050565b6000602082019050818103600083015261458581614549565b9050919050565b60006145978261313c565b91506145a28361313c565b9250828210156145b5576145b46143f0565b5b828203905092915050565b60006145cb8261313c565b91506145d68361313c565b9250827fffffffffffffffffffffffffffffffffffffffffffffffffffffffffffffffff0382111561460b5761460a6143f0565b5b828201905092915050565b7f5061757361626c653a2070617573656400000000000000000000000000000000600082015250565b600061464c60108361308c565b915061465782614616565b602082019050919050565b6000602082019050818103600083015261467b8161463f565b9050919050565b7f4f776e61626c653a2063616c6c6572206973206e6f7420746865206f776e6572600082015250565b60006146b860208361308c565b91506146c382614682565b602082019050919050565b600060208201905081810360008301526146e7816146ab565b9050919050565b7f5061757361626c653a206e6f7420706175736564000000000000000000000000600082015250565b600061472460148361308c565b915061472f826146ee565b602082019050919050565b6000602082019050818103600083015261475381614717565b9050919050565b7f4552433732313a20617070726f766520746f2063616c6c657200000000000000600082015250565b600061479060198361308c565b915061479b8261475a565b602082019050919050565b600060208201905081810360008301526147bf81614783565b9050919050565b7f4552433732313a207472616e7366657220746f206e6f6e20455243373231526560008201527f63656976657220696d706c656d656e7465720000000000000000000000000000602082015250565b600061482260328361308c565b915061482d826147c6565b604082019050919050565b6000602082019050818103600083015261485181614815565b9050919050565b7f4e487b7100000000000000000000000000000000000000000000000000000000600052601260045260246000fd5b60006148928261313c565b915061489d8361313c565b9250826148ad576148ac614858565b5b828204905092915050565b60006148c38261313c565b91506148ce8361313c565b9250826148de576148dd614858565b5b828206905092915050565b60006148f48261313c565b91506148ff8361313c565b9250817fffffffffffffffffffffffffffffffffffffffffffffffffffffffffffffffff0483118215151615614938576149376143f0565b5b828202905092915050565b7f45524337323155524953746f726167653a2055524920736574206f66206e6f6e60008201527f6578697374656e7420746f6b656e000000000000000000000000000000000000602082015250565b600061499f602e8361308c565b91506149aa82614943565b604082019050919050565b600060208201905081810360008301526149ce81614992565b9050919050565b600081519050919050565b600082825260208201905092915050565b60006149fc826149d5565b614a0681856149e0565b9350614a1681856020860161309d565b614a1f816130d0565b840191505092915050565b6000608082019050614a3f60008301876131d1565b614a4c60208301866131d1565b614a5960408301856135fe565b8181036060830152614a6b81846149f1565b905095945050505050565b600081519050614a8581612ff2565b92915050565b600060208284031215614aa157614aa0612fbc565b5b6000614aaf84828501614a76565b91505092915050565b7f4552433732313a206d696e7420746f20746865207a65726f2061646472657373600082015250565b6000614aee60208361308c565b9150614af982614ab8565b602082019050919050565b60006020820190508181036000830152614b1d81614ae1565b9050919050565b7f4552433732313a20746f6b656e20616c7265616479206d696e74656400000000600082015250565b6000614b5a601c8361308c565b9150614b6582614b24565b602082019050919050565b60006020820190508181036000830152614b8981614b4d565b905091905056fe4142434445464748494a4b4c4d4e4f505152535455565758595a6162636465666768696a6b6c6d6e6f707172737475767778797a303132333435363738392b2fa2646970667358221220c2eeac8fb0a83f1dfaaa57dfc5704ce486efb6c271922a5feaa621442c3947f564736f6c634300080a00333c73766720786d6c6e733d22687474703a2f2f7777772e77332e6f72672f323030302f737667222077696474683d2232373022206865696768743d22323730222066696c6c3d226e6f6e65223e3c706174682066696c6c3d2275726c282361292220643d224d302030683237307632373048307a222f3e3c646566733e3c66696c7465722069643d22622220636f6c6f722d696e746572706f6c6174696f6e2d66696c746572733d2273524742222066696c746572556e6974733d227573657253706163654f6e55736522206865696768743d22323730222077696474683d22323730223e3c666544726f70536861646f772064783d2230222064793d22312220737464446576696174696f6e3d22322220666c6f6f642d6f7061636974793d222e323235222077696474683d223230302522206865696768743d2232303025222f3e3c2f66696c7465723e3c2f646566733e3c7061746820643d226d3134332e3735362037322e38312d372e3531392d372e353739632d2e3430352d332e3232392d322e3530352d31332e39362d31322e3839352d32302e3233612e3935352e3935352030203020302d2e31342d2e3037352038362e3030362038362e3030362030203020302d312e3338352d332e37363920322e333420322e33342030203020302d332e35312d312e303534632d2e31382e3133312d312e3031362e3731362d322e30323520312e362d322e3733342d312e3332352d31302e3633392d342e3738352d32312e3330342d362e33373561372e393820372e39382030203020302d322e3332352d312e363435632d322e37382d312e3330352d372e3931352d312e3636352d31332e39333920312e32343561342e323320342e32332030203020302d2e3631352e3336632d31332e3834312d322e36372d32362e32382d322e3930352d33362e39382d2e3638352d392e31363120312e392d31372e31323520352e3539352d32332e36362031302e393843332e3130352035372e333620302037332e35373520302037362e3935633020352e33393620332e303920392e31303520342e36382031302e3635342d322e3734392031332e3233352d322e3231362032312e3532392d322e3137392032312e39353661322e333420322e333420302030203020322e33333520322e3136356831342e393761322e333420322e333420302030203020322e33342d322e333463302d322e3332312d2e3637352d342e3030352d312e35332d352e313735613230372e363035203230372e36303520302030203020372e3333392d382e38632e3620342e313420312e39303520392e38313520342e3736362031352e303961322e333420322e333420302030203020322e30353520312e32326831372e34373161322e333420322e333420302030203020322e3333352d322e3438362031372e3132372031372e3132372030203020302d2e3934312d342e333939632d312e3034352d322e3836312d322e36312d342e322d342e30352d342e3831762d382e31393463342e3837352d2e30383620392e3937392d2e3634352031342e3533352d322e3036362e33332031302e33353420332e3138352031392e373720332e3334392032302e32393961322e333420322e333420302030203020322e32333520312e36356831372e34373161322e333420322e333420302030203020322e33342d322e323436632e3031352d2e3332362e3037352d332e3231342d312e39382d352e3335352d2e35392d2e3631392d312e3531352d312e33322d322e3836312d312e3732352e3439352d332e31333920322e31332d382e30313420342e3437342d31332e3138356139322e3539392039322e35393920302030203120312e3039352d322e33323563332e313720362e323820392e3735352031382e3036342031362e3930352032332e353820312e3035342e38323120322e33383120312e32353620332e3820312e3235366831332e363661322e333420322e333420302030203020322e33342d322e333835632d2e30362d322e38322d312e39322d362e39362d362e3736352d372e3237312d312e3634352d312e382d352e3131312d31302e3639312d372e3732392d31382e39353620322e36342e3320342e3937362e363620362e35363620312e303820372e313920312e3930352031352e303620322e3534362031352e333920322e35363561322e333420322e333420302030203020322e3035352d2e39336c372e3438352d392e39373961322e333420322e33342030203020302d2e32312d332e30357a6d2d32372e3130352d32342e36632e3436352d2e373820312e31392d312e35383520312e3933352d322e3239352e33373520312e3036352e373720322e32363520312e30353420332e3331352d2e3631392e3439352d312e383620312e3231352d332e323920312e39322d2e31322d312e3134352d2e3038362d322e33312e332d322e39357a4d31352e353835203130322e383235632d2e3535352e3630352d2e383720312e3431342d2e363320322e3230352e3232352e3736352e373220312e33323520312e34383520312e3534352e30392e30362e3237342e3139352e3436352e343736682d392e3738632e3031312d312e3336392e30362d332e33362e3237342d352e3837352e33392d342e363820312e34312d31322e31393520342e30332d32312e3337352e32312d2e37322e37352d312e33333520312e3434342d312e36333520322e3632352d312e31313520372e3833352d322e3731352031322e37322d332e3620372e322d312e33303520392e30372d2e32383920392e3334352d2e3039352d2e30313520352e32352d31312e38372032302e3137352d31392e33352032382e3335347a6d32302e36323520342e3233632d332e3333342d362e38382d332e3934352d31342e3434312d342e30362d31362e38343520322e37392e363420372e343520312e33342031322e37363520312e3537317631302e31323561322e333420322e333420302030203020322e333420322e333463312e303835203020312e37383520312e343120322e313920322e3830354833362e32317a4d36362e33332037312e3838613538352e333235203538352e3332352030203020312d312e33393520372e303935632d2e333920312e3930352d2e363320332e38372d2e37343620352e3835342d392e343820332e3532352d32322e383920322e3336352d32392e3420312e31343520342e3832352d372e35303520342e3832352d31302e33393920342e3832352d31312e353220302d312e36322d2e37362d332e3031312d322e31332d332e3931352d352e3537352d332e3637392d32322e323320312e3531392d32362e343520332e333261372e31393420372e3139342030203020302d342e313120342e363535203133352e303435203133352e3034352030203020302d2e38383920332e323734632d2e3733352d312e32372d312e3335352d322e39312d312e3335352d342e38343520302d322e34343120322e37332d31372e3038352031352e37322d32372e37372031322e38312d31302e3534352033312e3130352d31332e3831352035342e33392d392e37352d332e323120362e3139352d352e3634342031372e3830352d382e3437312033322e34357a6d31332e35332033322e35393561322e333420322e333420302030203020322e333420322e323635632e363435203020312e3135392e31303520312e3534352e3331354837312e343934632d312e3137352d342e34362d342e30352d31372e312d312e39382d32372e3133352e3433352d322e312e3930342d342e353520312e34312d372e31353520312e3239342d362e373220322e3930352d31352e303920342e3732352d32312e38323120322e37382d31302e32373120342e37312d31312e36343520352e30372d31312e383220332e3634352d312e37353520372e3732352d322e323620392e39332d312e32322e3934312e343420312e3520312e31323920312e373620322e3137352e32353520312e30322e363920322e34313520312e31383520342e303220322e313620362e39363420362e36362032312e34363520312e39332032362e3139352d362e39373520362e3937352d31352e392032362e34352d31352e36362033342e31377a6d33392e373720322e323635632e363435203020312e3039352e313220312e3432392e333135682d31302e313035632d2e33373520302d2e3731362d2e3039352d2e3934352d2e3237342d372e3731342d352e3935352d31352e3138342d32312e30362d31372e3032392d32342e393620322e3233352e30383620382e34322e3334312031342e3434312e3832352e3130392e333720312e37383520352e38313620332e3835392031312e33353520342e30322031302e37313420362e30342031322e373520382e3334352031322e37357a6d31332e38392d32342e373631632d322e3437352d2e3235352d382e3134352d2e3934352d31332e32392d322e3330352d352e3436342d312e3434342d31382e3133352d322e31362d32342e3338362d322e34343120312e3033352d312e343620322e30342d322e36383920322e3938312d332e363320362e3732342d362e37323420322e30342d32312e3835352d2e3736352d33302e3838392d2e3235352d2e3832312d2e3439312d312e3537352d2e36392d322e32343620372e313320312e3338352031322e37303120332e35362031352e353720342e38346131302e39322031302e39322030203020302d2e3330342e343931632d322e30303620332e3333342d2e353420382e3431352d2e32323520392e34303561322e333420322e333420302030203020332e31303920312e3435352035302e34332035302e343320302030203020342e31322d312e39333563312e38352d2e393920332e3538352d322e30383520342e3338352d332e34323520332e34323520332e30343120352e33323520362e373220362e33363520392e36392030202e30362030202e31322e3031312e3139312e31303520312e3031362d312e323920332e3739312d322e35393520352e363461322e333420322e333420302030203020332e38323120322e372032362e3936352032362e393635203020302030202e3930342d312e3336396c362e343720362e3532352d352e343920372e33327a222066696c6c3d2223666666222f3e3c646566733e3c6c696e6561724772616469656e742069643d2261222078313d2230222079313d2230222078323d22323730222079323d2232373022206772616469656e74556e6974733d227573657253706163654f6e557365223e3c73746f702073746f702d636f6c6f723d2223464646222f3e3c73746f70206f66667365743d2231222073746f702d6f7061636974793d222e3939222f3e3c2f6c696e6561724772616469656e743e3c2f646566733e3c7465787420783d2233322e352220793d223233312220666f6e742d73697a653d223237222066696c6c3d2223666666222066696c7465723d2275726c282362292220666f6e742d66616d696c793d2273616e732d73657269662c4e6f746f20436f6c6f7220456d6f6a692c204170706c6520436f6c6f7220456d6f6a692220666f6e742d7765696768743d22626f6c64223e",
  "linkReferences": {},
  "deployedLinkReferences": {}
}