{
  "_format": "hh-sol-artifact-1",
  "contractName": "Domains",
  "sourceName": "contracts/Domains.sol",
  "abi": [
    {
      "inputs": [
        {
          "internalType": "uint256",
          "name": "_price",
          "type": "uint256"
        }
      ],
      "stateMutability": "payable",
      "type": "constructor"
    },
    {
      "anonymous": false,
      "inputs": [
        {
          "indexed": true,
          "internalType": "address",
          "name": "owner",
          "type": "address"
        },
        {
          "indexed": true,
          "internalType": "address",
          "name": "approved",
          "type": "address"
        },
        {
          "indexed": true,
          "internalType": "uint256",
          "name": "tokenId",
          "type": "uint256"
        }
      ],
      "name": "Approval",
      "type": "event"
    },
    {
      "anonymous": false,
      "inputs": [
        {
          "indexed": true,
          "internalType": "address",
          "name": "owner",
          "type": "address"
        },
        {
          "indexed": true,
          "internalType": "address",
          "name": "operator",
          "type": "address"
        },
        {
          "indexed": false,
          "internalType": "bool",
          "name": "approved",
          "type": "bool"
        }
      ],
      "name": "ApprovalForAll",
      "type": "event"
    },
    {
      "anonymous": false,
      "inputs": [
        {
          "indexed": true,
          "internalType": "address",
          "name": "from",
          "type": "address"
        },
        {
          "indexed": true,
          "internalType": "address",
          "name": "to",
          "type": "address"
        },
        {
          "indexed": true,
          "internalType": "uint256",
          "name": "tokenId",
          "type": "uint256"
        }
      ],
      "name": "Transfer",
      "type": "event"
    },
    {
      "inputs": [
        {
          "internalType": "address",
          "name": "to",
          "type": "address"
        },
        {
          "internalType": "uint256",
          "name": "tokenId",
          "type": "uint256"
        }
      ],
      "name": "approve",
      "outputs": [],
      "stateMutability": "nonpayable",
      "type": "function"
    },
    {
      "inputs": [
        {
          "internalType": "address",
          "name": "owner",
          "type": "address"
        }
      ],
      "name": "balanceOf",
      "outputs": [
        {
          "internalType": "uint256",
          "name": "",
          "type": "uint256"
        }
      ],
      "stateMutability": "view",
      "type": "function"
    },
    {
      "inputs": [
        {
          "internalType": "string",
          "name": "name",
          "type": "string"
        },
        {
          "internalType": "address",
          "name": "newAddress",
          "type": "address"
        }
      ],
      "name": "changeAddress",
      "outputs": [],
      "stateMutability": "nonpayable",
      "type": "function"
    },
    {
      "inputs": [],
      "name": "changeIsPausedStatus",
      "outputs": [],
      "stateMutability": "nonpayable",
      "type": "function"
    },
    {
      "inputs": [],
      "name": "contractOwner",
      "outputs": [
        {
          "internalType": "address",
          "name": "",
          "type": "address"
        }
      ],
      "stateMutability": "view",
      "type": "function"
    },
    {
      "inputs": [
        {
          "internalType": "string",
          "name": "",
          "type": "string"
        }
      ],
      "name": "domains",
      "outputs": [
        {
          "internalType": "address",
          "name": "",
          "type": "address"
        }
      ],
      "stateMutability": "view",
      "type": "function"
    },
    {
      "inputs": [
        {
          "internalType": "string",
          "name": "name",
          "type": "string"
        }
      ],
      "name": "getAddress",
      "outputs": [
        {
          "internalType": "address",
          "name": "",
          "type": "address"
        }
      ],
      "stateMutability": "view",
      "type": "function"
    },
    {
      "inputs": [
        {
          "internalType": "uint256",
          "name": "tokenId",
          "type": "uint256"
        }
      ],
      "name": "getApproved",
      "outputs": [
        {
          "internalType": "address",
          "name": "",
          "type": "address"
        }
      ],
      "stateMutability": "view",
      "type": "function"
    },
    {
      "inputs": [
        {
          "internalType": "string",
          "name": "name",
          "type": "string"
        }
      ],
      "name": "getTwitter",
      "outputs": [
        {
          "internalType": "string",
          "name": "",
          "type": "string"
        }
      ],
      "stateMutability": "view",
      "type": "function"
    },
    {
      "inputs": [
        {
          "internalType": "address",
          "name": "owner",
          "type": "address"
        },
        {
          "internalType": "address",
          "name": "operator",
          "type": "address"
        }
      ],
      "name": "isApprovedForAll",
      "outputs": [
        {
          "internalType": "bool",
          "name": "",
          "type": "bool"
        }
      ],
      "stateMutability": "view",
      "type": "function"
    },
    {
      "inputs": [],
      "name": "isPaused",
      "outputs": [
        {
          "internalType": "bool",
          "name": "",
          "type": "bool"
        }
      ],
      "stateMutability": "view",
      "type": "function"
    },
    {
      "inputs": [],
      "name": "name",
      "outputs": [
        {
          "internalType": "string",
          "name": "",
          "type": "string"
        }
      ],
      "stateMutability": "view",
      "type": "function"
    },
    {
      "inputs": [
        {
          "internalType": "uint256",
          "name": "tokenId",
          "type": "uint256"
        }
      ],
      "name": "ownerOf",
      "outputs": [
        {
          "internalType": "address",
          "name": "",
          "type": "address"
        }
      ],
      "stateMutability": "view",
      "type": "function"
    },
    {
      "inputs": [],
      "name": "price",
      "outputs": [
        {
          "internalType": "uint256",
          "name": "",
          "type": "uint256"
        }
      ],
      "stateMutability": "view",
      "type": "function"
    },
    {
      "inputs": [
        {
          "internalType": "string",
          "name": "name",
          "type": "string"
        }
      ],
      "name": "register",
      "outputs": [],
      "stateMutability": "payable",
      "type": "function"
    },
    {
      "inputs": [
        {
          "internalType": "address",
          "name": "from",
          "type": "address"
        },
        {
          "internalType": "address",
          "name": "to",
          "type": "address"
        },
        {
          "internalType": "uint256",
          "name": "tokenId",
          "type": "uint256"
        }
      ],
      "name": "safeTransferFrom",
      "outputs": [],
      "stateMutability": "nonpayable",
      "type": "function"
    },
    {
      "inputs": [
        {
          "internalType": "address",
          "name": "from",
          "type": "address"
        },
        {
          "internalType": "address",
          "name": "to",
          "type": "address"
        },
        {
          "internalType": "uint256",
          "name": "tokenId",
          "type": "uint256"
        },
        {
          "internalType": "bytes",
          "name": "data",
          "type": "bytes"
        }
      ],
      "name": "safeTransferFrom",
      "outputs": [],
      "stateMutability": "nonpayable",
      "type": "function"
    },
    {
      "inputs": [
        {
          "internalType": "address",
          "name": "operator",
          "type": "address"
        },
        {
          "internalType": "bool",
          "name": "approved",
          "type": "bool"
        }
      ],
      "name": "setApprovalForAll",
      "outputs": [],
      "stateMutability": "nonpayable",
      "type": "function"
    },
    {
      "inputs": [
        {
          "internalType": "string",
          "name": "name",
          "type": "string"
        },
        {
          "internalType": "string",
          "name": "record",
          "type": "string"
        }
      ],
      "name": "setTwitter",
      "outputs": [],
      "stateMutability": "nonpayable",
      "type": "function"
    },
    {
      "inputs": [
        {
          "internalType": "bytes4",
          "name": "interfaceId",
          "type": "bytes4"
        }
      ],
      "name": "supportsInterface",
      "outputs": [
        {
          "internalType": "bool",
          "name": "",
          "type": "bool"
        }
      ],
      "stateMutability": "view",
      "type": "function"
    },
    {
      "inputs": [],
      "name": "symbol",
      "outputs": [
        {
          "internalType": "string",
          "name": "",
          "type": "string"
        }
      ],
      "stateMutability": "view",
      "type": "function"
    },
    {
      "inputs": [],
      "name": "tld",
      "outputs": [
        {
          "internalType": "string",
          "name": "",
          "type": "string"
        }
      ],
      "stateMutability": "view",
      "type": "function"
    },
    {
      "inputs": [
        {
          "internalType": "uint256",
          "name": "tokenId",
          "type": "uint256"
        }
      ],
      "name": "tokenURI",
      "outputs": [
        {
          "internalType": "string",
          "name": "",
          "type": "string"
        }
      ],
      "stateMutability": "view",
      "type": "function"
    },
    {
      "inputs": [
        {
          "internalType": "address",
          "name": "from",
          "type": "address"
        },
        {
          "internalType": "address",
          "name": "to",
          "type": "address"
        },
        {
          "internalType": "uint256",
          "name": "tokenId",
          "type": "uint256"
        }
      ],
      "name": "transferFrom",
      "outputs": [],
      "stateMutability": "nonpayable",
      "type": "function"
    },
    {
      "inputs": [
        {
          "internalType": "string",
          "name": "",
          "type": "string"
        }
      ],
      "name": "twitter",
      "outputs": [
        {
          "internalType": "string",
          "name": "",
          "type": "string"
        }
      ],
      "stateMutability": "view",
      "type": "function"
    },
    {
      "inputs": [
        {
          "internalType": "uint256",
          "name": "newPrice",
          "type": "uint256"
        }
      ],
      "name": "updatePrice",
      "outputs": [],
      "stateMutability": "nonpayable",
      "type": "function"
    }
  ],
  "bytecode": "0x60806040526040518061104001604052806110098152602001620047a76110099139600b90805190602001906200003892919062000204565b506040518060400160405280600d81526020017f3c2f746578743e3c2f7376673e00000000000000000000000000000000000000815250600c90805190602001906200008692919062000204565b50604051620057b0380380620057b08339818101604052810190620000ac9190620002f4565b6040518060400160405280601281526020017f50616e6461204e616d65205365727669636500000000000000000000000000008152506040518060400160405280600381526020017f504e53000000000000000000000000000000000000000000000000000000000081525081600090805190602001906200013092919062000204565b5080600190805190602001906200014992919062000204565b5050506040518060400160405280600581526020017f70616e6461000000000000000000000000000000000000000000000000000000815250600890805190602001906200019992919062000204565b508060098190555033600a60006101000a81548173ffffffffffffffffffffffffffffffffffffffff021916908373ffffffffffffffffffffffffffffffffffffffff1602179055506001600a60146101000a81548160ff021916908315150217905550506200038b565b828054620002129062000355565b90600052602060002090601f01602090048101928262000236576000855562000282565b82601f106200025157805160ff191683800117855562000282565b8280016001018555821562000282579182015b828111156200028157825182559160200191906001019062000264565b5b50905062000291919062000295565b5090565b5b80821115620002b057600081600090555060010162000296565b5090565b600080fd5b6000819050919050565b620002ce81620002b9565b8114620002da57600080fd5b50565b600081519050620002ee81620002c3565b92915050565b6000602082840312156200030d576200030c620002b4565b5b60006200031d84828501620002dd565b91505092915050565b7f4e487b7100000000000000000000000000000000000000000000000000000000600052602260045260246000fd5b600060028204905060018216806200036e57607f821691505b6020821081141562000385576200038462000326565b5b50919050565b61440c806200039b6000396000f3fe6080604052600436106101815760003560e01c806392f7424f116100d1578063b88d4fde1161008a578063cd26031911610064578063cd260319146105ca578063ce606ee0146105e1578063e985e9c51461060c578063f2c298be1461064957610181565b8063b88d4fde14610527578063bf40fac114610550578063c87b56dd1461058d57610181565b806392f7424f1461041757806395d89b4114610454578063a035b1fe1461047f578063a22cb465146104aa578063a7dbb402146104d3578063b187bd26146104fc57610181565b80632d5514321161013e57806353e69abc1161011857806353e69abc146103375780636352211e1461037457806370a08231146103b15780638d6cc56d146103ee57610181565b80632d551432146102ba5780633b6e1c97146102e557806342842e0e1461030e57610181565b806301ffc9a71461018657806306fdde03146101c3578063081812fc146101ee578063095ea7b31461022b57806323b872dd14610254578063264492351461027d575b600080fd5b34801561019257600080fd5b506101ad60048036038101906101a89190612a2e565b610665565b6040516101ba9190612a76565b60405180910390f35b3480156101cf57600080fd5b506101d8610747565b6040516101e59190612b2a565b60405180910390f35b3480156101fa57600080fd5b5061021560048036038101906102109190612b82565b6107d9565b6040516102229190612bf0565b60405180910390f35b34801561023757600080fd5b50610252600480360381019061024d9190612c37565b61081f565b005b34801561026057600080fd5b5061027b60048036038101906102769190612c77565b610937565b005b34801561028957600080fd5b506102a4600480360381019061029f9190612dff565b610997565b6040516102b19190612bf0565b60405180910390f35b3480156102c657600080fd5b506102cf6109e0565b6040516102dc9190612b2a565b60405180910390f35b3480156102f157600080fd5b5061030c60048036038101906103079190612ea8565b610a6e565b005b34801561031a57600080fd5b5061033560048036038101906103309190612c77565b610ba2565b005b34801561034357600080fd5b5061035e60048036038101906103599190612f29565b610bc2565b60405161036b9190612b2a565b60405180910390f35b34801561038057600080fd5b5061039b60048036038101906103969190612b82565b610c75565b6040516103a89190612bf0565b60405180910390f35b3480156103bd57600080fd5b506103d860048036038101906103d39190612f76565b610d27565b6040516103e59190612fb2565b60405180910390f35b3480156103fa57600080fd5b5061041560048036038101906104109190612b82565b610ddf565b005b34801561042357600080fd5b5061043e60048036038101906104399190612dff565b610e79565b60405161044b9190612b2a565b60405180910390f35b34801561046057600080fd5b50610469610f2f565b6040516104769190612b2a565b60405180910390f35b34801561048b57600080fd5b50610494610fc1565b6040516104a19190612fb2565b60405180910390f35b3480156104b657600080fd5b506104d160048036038101906104cc9190612ff9565b610fc7565b005b3480156104df57600080fd5b506104fa60048036038101906104f59190613039565b610fdd565b005b34801561050857600080fd5b5061051161113f565b60405161051e9190612a76565b60405180910390f35b34801561053357600080fd5b5061054e6004803603810190610549919061313a565b611152565b005b34801561055c57600080fd5b5061057760048036038101906105729190612f29565b6111b4565b6040516105849190612bf0565b60405180910390f35b34801561059957600080fd5b506105b460048036038101906105af9190612b82565b6111ff565b6040516105c19190612b2a565b60405180910390f35b3480156105d657600080fd5b506105df611312565b005b3480156105ed57600080fd5b506105f66113f5565b6040516106039190612bf0565b60405180910390f35b34801561061857600080fd5b50610633600480360381019061062e91906131bd565b61141b565b6040516106409190612a76565b60405180910390f35b610663600480360381019061065e9190612f29565b6114af565b005b60007f80ac58cd000000000000000000000000000000000000000000000000000000007bffffffffffffffffffffffffffffffffffffffffffffffffffffffff1916827bffffffffffffffffffffffffffffffffffffffffffffffffffffffff1916148061073057507f5b5e139f000000000000000000000000000000000000000000000000000000007bffffffffffffffffffffffffffffffffffffffffffffffffffffffff1916827bffffffffffffffffffffffffffffffffffffffffffffffffffffffff1916145b80610740575061073f82611825565b5b9050919050565b6060600080546107569061322c565b80601f01602080910402602001604051908101604052809291908181526020018280546107829061322c565b80156107cf5780601f106107a4576101008083540402835291602001916107cf565b820191906000526020600020905b8154815290600101906020018083116107b257829003601f168201915b5050505050905090565b60006107e48261188f565b6004600083815260200190815260200160002060009054906101000a900473ffffffffffffffffffffffffffffffffffffffff169050919050565b600061082a82610c75565b90508073ffffffffffffffffffffffffffffffffffffffff168373ffffffffffffffffffffffffffffffffffffffff16141561089b576040517f08c379a0000000000000000000000000000000000000000000000000000000008152600401610892906132d0565b60405180910390fd5b8073ffffffffffffffffffffffffffffffffffffffff166108ba6118da565b73ffffffffffffffffffffffffffffffffffffffff1614806108e957506108e8816108e36118da565b61141b565b5b610928576040517f08c379a000000000000000000000000000000000000000000000000000000000815260040161091f90613362565b60405180910390fd5b61093283836118e2565b505050565b6109486109426118da565b8261199b565b610987576040517f08c379a000000000000000000000000000000000000000000000000000000000815260040161097e906133f4565b60405180910390fd5b610992838383611a30565b505050565b600d818051602081018201805184825260208301602085012081835280955050505050506000915054906101000a900473ffffffffffffffffffffffffffffffffffffffff1681565b600880546109ed9061322c565b80601f0160208091040260200160405190810160405280929190818152602001828054610a199061322c565b8015610a665780601f10610a3b57610100808354040283529160200191610a66565b820191906000526020600020905b815481529060010190602001808311610a4957829003601f168201915b505050505081565b600a60149054906101000a900460ff1615610abe576040517f08c379a0000000000000000000000000000000000000000000000000000000008152600401610ab590613460565b60405180910390fd5b3373ffffffffffffffffffffffffffffffffffffffff16600d8585604051610ae79291906134b0565b908152602001604051809103902060009054906101000a900473ffffffffffffffffffffffffffffffffffffffff1673ffffffffffffffffffffffffffffffffffffffff1614610b6c576040517f08c379a0000000000000000000000000000000000000000000000000000000008152600401610b6390613515565b60405180910390fd5b8181600e8686604051610b809291906134b0565b90815260200160405180910390209190610b9b929190612899565b5050505050565b610bbd83838360405180602001604052806000815250611152565b505050565b6060600e8383604051610bd69291906134b0565b90815260200160405180910390208054610bef9061322c565b80601f0160208091040260200160405190810160405280929190818152602001828054610c1b9061322c565b8015610c685780601f10610c3d57610100808354040283529160200191610c68565b820191906000526020600020905b815481529060010190602001808311610c4b57829003601f168201915b5050505050905092915050565b6000806002600084815260200190815260200160002060009054906101000a900473ffffffffffffffffffffffffffffffffffffffff169050600073ffffffffffffffffffffffffffffffffffffffff168173ffffffffffffffffffffffffffffffffffffffff161415610d1e576040517f08c379a0000000000000000000000000000000000000000000000000000000008152600401610d1590613581565b60405180910390fd5b80915050919050565b60008073ffffffffffffffffffffffffffffffffffffffff168273ffffffffffffffffffffffffffffffffffffffff161415610d98576040517f08c379a0000000000000000000000000000000000000000000000000000000008152600401610d8f90613613565b60405180910390fd5b600360008373ffffffffffffffffffffffffffffffffffffffff1673ffffffffffffffffffffffffffffffffffffffff168152602001908152602001600020549050919050565b600a60009054906101000a900473ffffffffffffffffffffffffffffffffffffffff1673ffffffffffffffffffffffffffffffffffffffff163373ffffffffffffffffffffffffffffffffffffffff1614610e6f576040517f08c379a0000000000000000000000000000000000000000000000000000000008152600401610e66906136a5565b60405180910390fd5b8060098190555050565b600e818051602081018201805184825260208301602085012081835280955050505050506000915090508054610eae9061322c565b80601f0160208091040260200160405190810160405280929190818152602001828054610eda9061322c565b8015610f275780601f10610efc57610100808354040283529160200191610f27565b820191906000526020600020905b815481529060010190602001808311610f0a57829003601f168201915b505050505081565b606060018054610f3e9061322c565b80601f0160208091040260200160405190810160405280929190818152602001828054610f6a9061322c565b8015610fb75780601f10610f8c57610100808354040283529160200191610fb7565b820191906000526020600020905b815481529060010190602001808311610f9a57829003601f168201915b5050505050905090565b60095481565b610fd9610fd26118da565b8383611c97565b5050565b600a60149054906101000a900460ff161561102d576040517f08c379a000000000000000000000000000000000000000000000000000000000815260040161102490613460565b60405180910390fd5b3373ffffffffffffffffffffffffffffffffffffffff16600d84846040516110569291906134b0565b908152602001604051809103902060009054906101000a900473ffffffffffffffffffffffffffffffffffffffff1673ffffffffffffffffffffffffffffffffffffffff16146110db576040517f08c379a00000000000000000000000000000000000000000000000000000000081526004016110d290613737565b60405180910390fd5b80600d84846040516110ee9291906134b0565b908152602001604051809103902060006101000a81548173ffffffffffffffffffffffffffffffffffffffff021916908373ffffffffffffffffffffffffffffffffffffffff160217905550505050565b600a60149054906101000a900460ff1681565b61116361115d6118da565b8361199b565b6111a2576040517f08c379a0000000000000000000000000000000000000000000000000000000008152600401611199906133f4565b60405180910390fd5b6111ae84848484611e04565b50505050565b6000600d83836040516111c89291906134b0565b908152602001604051809103902060009054906101000a900473ffffffffffffffffffffffffffffffffffffffff16905092915050565b606061120a8261188f565b600060066000848152602001908152602001600020805461122a9061322c565b80601f01602080910402602001604051908101604052809291908181526020018280546112569061322c565b80156112a35780601f10611278576101008083540402835291602001916112a3565b820191906000526020600020905b81548152906001019060200180831161128657829003601f168201915b5050505050905060006112b4611e60565b90506000815114156112ca57819250505061130d565b6000825111156112ff5780826040516020016112e7929190613788565b6040516020818303038152906040529250505061130d565b61130884611e77565b925050505b919050565b600a60009054906101000a900473ffffffffffffffffffffffffffffffffffffffff1673ffffffffffffffffffffffffffffffffffffffff163373ffffffffffffffffffffffffffffffffffffffff16146113a2576040517f08c379a00000000000000000000000000000000000000000000000000000000081526004016113999061381e565b60405180910390fd5b600a60149054906101000a900460ff16156113d7576000600a60146101000a81548160ff0219169083151502179055506113f3565b6001600a60146101000a81548160ff0219169083151502179055505b565b600a60009054906101000a900473ffffffffffffffffffffffffffffffffffffffff1681565b6000600560008473ffffffffffffffffffffffffffffffffffffffff1673ffffffffffffffffffffffffffffffffffffffff16815260200190815260200160002060008373ffffffffffffffffffffffffffffffffffffffff1673ffffffffffffffffffffffffffffffffffffffff16815260200190815260200160002060009054906101000a900460ff16905092915050565b600a60149054906101000a900460ff16156114ff576040517f08c379a00000000000000000000000000000000000000000000000000000000081526004016114f690613460565b60405180910390fd5b600073ffffffffffffffffffffffffffffffffffffffff16600d83836040516115299291906134b0565b908152602001604051809103902060009054906101000a900473ffffffffffffffffffffffffffffffffffffffff1673ffffffffffffffffffffffffffffffffffffffff16146115ae576040517f08c379a00000000000000000000000000000000000000000000000000000000081526004016115a59061388a565b60405180910390fd5b60006115fd83838080601f016020809104026020016040519081016040528093929190818152602001838380828437600081840152601f19601f82011690508083019250505050505050611edf565b1161163d576040517f08c379a0000000000000000000000000000000000000000000000000000000008152600401611634906138f6565b60405180910390fd5b600954341015611682576040517f08c379a000000000000000000000000000000000000000000000000000000000815260040161167990613962565b60405180910390fd5b60008282600860405160200161169a93929190613a62565b60405160208183030381529060405290506000600b82600c6040516020016116c493929190613a93565b604051602081830303815290604052905060006116e16007612094565b9050600061173286868080601f016020809104026020016040519081016040528093929190818152602001838380828437600081840152601f19601f82011690508083019250505050505050611edf565b9050600061173f826120a2565b905060006117778661175087612203565b8460405160200161176393929190613c40565b604051602081830303815290604052612203565b905060008160405160200161178c9190613ce9565b60405160208183030381529060405290506117a7338661239b565b6117b185826123b9565b33600d8a8a6040516117c49291906134b0565b908152602001604051809103902060006101000a81548173ffffffffffffffffffffffffffffffffffffffff021916908373ffffffffffffffffffffffffffffffffffffffff16021790555061181a600761242d565b505050505050505050565b60007f01ffc9a7000000000000000000000000000000000000000000000000000000007bffffffffffffffffffffffffffffffffffffffffffffffffffffffff1916827bffffffffffffffffffffffffffffffffffffffffffffffffffffffff1916149050919050565b61189881612443565b6118d7576040517f08c379a00000000000000000000000000000000000000000000000000000000081526004016118ce90613581565b60405180910390fd5b50565b600033905090565b816004600083815260200190815260200160002060006101000a81548173ffffffffffffffffffffffffffffffffffffffff021916908373ffffffffffffffffffffffffffffffffffffffff160217905550808273ffffffffffffffffffffffffffffffffffffffff1661195583610c75565b73ffffffffffffffffffffffffffffffffffffffff167f8c5be1e5ebec7d5bd14f71427d1e84f3dd0314c0f7b2291e5b200ac8c7c3b92560405160405180910390a45050565b6000806119a783610c75565b90508073ffffffffffffffffffffffffffffffffffffffff168473ffffffffffffffffffffffffffffffffffffffff1614806119e957506119e8818561141b565b5b80611a2757508373ffffffffffffffffffffffffffffffffffffffff16611a0f846107d9565b73ffffffffffffffffffffffffffffffffffffffff16145b91505092915050565b8273ffffffffffffffffffffffffffffffffffffffff16611a5082610c75565b73ffffffffffffffffffffffffffffffffffffffff1614611aa6576040517f08c379a0000000000000000000000000000000000000000000000000000000008152600401611a9d90613d7d565b60405180910390fd5b600073ffffffffffffffffffffffffffffffffffffffff168273ffffffffffffffffffffffffffffffffffffffff161415611b16576040517f08c379a0000000000000000000000000000000000000000000000000000000008152600401611b0d90613e0f565b60405180910390fd5b611b218383836124af565b611b2c6000826118e2565b6001600360008573ffffffffffffffffffffffffffffffffffffffff1673ffffffffffffffffffffffffffffffffffffffff1681526020019081526020016000206000828254611b7c9190613e5e565b925050819055506001600360008473ffffffffffffffffffffffffffffffffffffffff1673ffffffffffffffffffffffffffffffffffffffff1681526020019081526020016000206000828254611bd39190613e92565b92505081905550816002600083815260200190815260200160002060006101000a81548173ffffffffffffffffffffffffffffffffffffffff021916908373ffffffffffffffffffffffffffffffffffffffff160217905550808273ffffffffffffffffffffffffffffffffffffffff168473ffffffffffffffffffffffffffffffffffffffff167fddf252ad1be2c89b69c2b068fc378daa952ba7f163c4a11628f55a4df523b3ef60405160405180910390a4611c928383836124b4565b505050565b8173ffffffffffffffffffffffffffffffffffffffff168373ffffffffffffffffffffffffffffffffffffffff161415611d06576040517f08c379a0000000000000000000000000000000000000000000000000000000008152600401611cfd90613f34565b60405180910390fd5b80600560008573ffffffffffffffffffffffffffffffffffffffff1673ffffffffffffffffffffffffffffffffffffffff16815260200190815260200160002060008473ffffffffffffffffffffffffffffffffffffffff1673ffffffffffffffffffffffffffffffffffffffff16815260200190815260200160002060006101000a81548160ff0219169083151502179055508173ffffffffffffffffffffffffffffffffffffffff168373ffffffffffffffffffffffffffffffffffffffff167f17307eab39ab6107e8899845ad3d59bd9653f200f220920489ca2b5937696c3183604051611df79190612a76565b60405180910390a3505050565b611e0f848484611a30565b611e1b848484846124b9565b611e5a576040517f08c379a0000000000000000000000000000000000000000000000000000000008152600401611e5190613fc6565b60405180910390fd5b50505050565b606060405180602001604052806000815250905090565b6060611e828261188f565b6000611e8c611e60565b90506000815111611eac5760405180602001604052806000815250611ed7565b80611eb6846120a2565b604051602001611ec7929190613788565b6040516020818303038152906040525b915050919050565b60008060008084519050600092505b80821015612089576000858381518110611f0b57611f0a613fe6565b5b602001015160f81c60f81b9050608060f81b817effffffffffffffffffffffffffffffffffffffffffffffffffffffffffffff19161015611f5a57600183611f539190613e92565b9250612075565b60e060f81b817effffffffffffffffffffffffffffffffffffffffffffffffffffffffffffff19161015611f9c57600283611f959190613e92565b9250612074565b60f060f81b817effffffffffffffffffffffffffffffffffffffffffffffffffffffffffffff19161015611fde57600383611fd79190613e92565b9250612073565b60f8801b817effffffffffffffffffffffffffffffffffffffffffffffffffffffffffffff1916101561201f576004836120189190613e92565b9250612072565b60fc60f81b817effffffffffffffffffffffffffffffffffffffffffffffffffffffffffffff191610156120615760058361205a9190613e92565b9250612071565b60068361206e9190613e92565b92505b5b5b5b5b50828061208190614015565b935050611eee565b829350505050919050565b600081600001549050919050565b606060008214156120ea576040518060400160405280600181526020017f300000000000000000000000000000000000000000000000000000000000000081525090506121fe565b600082905060005b6000821461211c57808061210590614015565b915050600a82612115919061408d565b91506120f2565b60008167ffffffffffffffff81111561213857612137612cd4565b5b6040519080825280601f01601f19166020018201604052801561216a5781602001600182028036833780820191505090505b5090505b600085146121f7576001826121839190613e5e565b9150600a8561219291906140be565b603061219e9190613e92565b60f81b8183815181106121b4576121b3613fe6565b5b60200101907effffffffffffffffffffffffffffffffffffffffffffffffffffffffffffff1916908160001a905350600a856121f0919061408d565b945061216e565b8093505050505b919050565b6060600082519050600081141561222c5760405180602001604052806000815250915050612396565b6000600360028361223d9190613e92565b612247919061408d565b600461225391906140ef565b905060006020826122649190613e92565b67ffffffffffffffff81111561227d5761227c612cd4565b5b6040519080825280601f01601f1916602001820160405280156122af5781602001600182028036833780820191505090505b5090506000604051806060016040528060408152602001614397604091399050600181016020830160005b868110156123535760038101905062ffffff818a015116603f8160121c168401518060081b905060ff603f83600c1c1686015116810190508060081b905060ff603f8360061c1686015116810190508060081b905060ff603f831686015116810190508060e01b905080845260048401935050506122da565b50600386066001811461236d576002811461237d57612388565b613d3d60f01b6002830352612388565b603d60f81b60018303525b508484525050819450505050505b919050565b6123b5828260405180602001604052806000815250612641565b5050565b6123c282612443565b612401576040517f08c379a00000000000000000000000000000000000000000000000000000000081526004016123f8906141bb565b60405180910390fd5b8060066000848152602001908152602001600020908051906020019061242892919061291f565b505050565b6001816000016000828254019250508190555050565b60008073ffffffffffffffffffffffffffffffffffffffff166002600084815260200190815260200160002060009054906101000a900473ffffffffffffffffffffffffffffffffffffffff1673ffffffffffffffffffffffffffffffffffffffff1614159050919050565b505050565b505050565b60006124da8473ffffffffffffffffffffffffffffffffffffffff1661269c565b15612634578373ffffffffffffffffffffffffffffffffffffffff1663150b7a026125036118da565b8786866040518563ffffffff1660e01b81526004016125259493929190614230565b6020604051808303816000875af192505050801561256157506040513d601f19601f8201168201806040525081019061255e9190614291565b60015b6125e4573d8060008114612591576040519150601f19603f3d011682016040523d82523d6000602084013e612596565b606091505b506000815114156125dc576040517f08c379a00000000000000000000000000000000000000000000000000000000081526004016125d390613fc6565b60405180910390fd5b805181602001fd5b63150b7a0260e01b7bffffffffffffffffffffffffffffffffffffffffffffffffffffffff1916817bffffffffffffffffffffffffffffffffffffffffffffffffffffffff191614915050612639565b600190505b949350505050565b61264b83836126bf565b61265860008484846124b9565b612697576040517f08c379a000000000000000000000000000000000000000000000000000000000815260040161268e90613fc6565b60405180910390fd5b505050565b6000808273ffffffffffffffffffffffffffffffffffffffff163b119050919050565b600073ffffffffffffffffffffffffffffffffffffffff168273ffffffffffffffffffffffffffffffffffffffff16141561272f576040517f08c379a00000000000000000000000000000000000000000000000000000000081526004016127269061430a565b60405180910390fd5b61273881612443565b15612778576040517f08c379a000000000000000000000000000000000000000000000000000000000815260040161276f90614376565b60405180910390fd5b612784600083836124af565b6001600360008473ffffffffffffffffffffffffffffffffffffffff1673ffffffffffffffffffffffffffffffffffffffff16815260200190815260200160002060008282546127d49190613e92565b92505081905550816002600083815260200190815260200160002060006101000a81548173ffffffffffffffffffffffffffffffffffffffff021916908373ffffffffffffffffffffffffffffffffffffffff160217905550808273ffffffffffffffffffffffffffffffffffffffff16600073ffffffffffffffffffffffffffffffffffffffff167fddf252ad1be2c89b69c2b068fc378daa952ba7f163c4a11628f55a4df523b3ef60405160405180910390a4612895600083836124b4565b5050565b8280546128a59061322c565b90600052602060002090601f0160209004810192826128c7576000855561290e565b82601f106128e057803560ff191683800117855561290e565b8280016001018555821561290e579182015b8281111561290d5782358255916020019190600101906128f2565b5b50905061291b91906129a5565b5090565b82805461292b9061322c565b90600052602060002090601f01602090048101928261294d5760008555612994565b82601f1061296657805160ff1916838001178555612994565b82800160010185558215612994579182015b82811115612993578251825591602001919060010190612978565b5b5090506129a191906129a5565b5090565b5b808211156129be5760008160009055506001016129a6565b5090565b6000604051905090565b600080fd5b600080fd5b60007fffffffff0000000000000000000000000000000000000000000000000000000082169050919050565b612a0b816129d6565b8114612a1657600080fd5b50565b600081359050612a2881612a02565b92915050565b600060208284031215612a4457612a436129cc565b5b6000612a5284828501612a19565b91505092915050565b60008115159050919050565b612a7081612a5b565b82525050565b6000602082019050612a8b6000830184612a67565b92915050565b600081519050919050565b600082825260208201905092915050565b60005b83811015612acb578082015181840152602081019050612ab0565b83811115612ada576000848401525b50505050565b6000601f19601f8301169050919050565b6000612afc82612a91565b612b068185612a9c565b9350612b16818560208601612aad565b612b1f81612ae0565b840191505092915050565b60006020820190508181036000830152612b448184612af1565b905092915050565b6000819050919050565b612b5f81612b4c565b8114612b6a57600080fd5b50565b600081359050612b7c81612b56565b92915050565b600060208284031215612b9857612b976129cc565b5b6000612ba684828501612b6d565b91505092915050565b600073ffffffffffffffffffffffffffffffffffffffff82169050919050565b6000612bda82612baf565b9050919050565b612bea81612bcf565b82525050565b6000602082019050612c056000830184612be1565b92915050565b612c1481612bcf565b8114612c1f57600080fd5b50565b600081359050612c3181612c0b565b92915050565b60008060408385031215612c4e57612c4d6129cc565b5b6000612c5c85828601612c22565b9250506020612c6d85828601612b6d565b9150509250929050565b600080600060608486031215612c9057612c8f6129cc565b5b6000612c9e86828701612c22565b9350506020612caf86828701612c22565b9250506040612cc086828701612b6d565b9150509250925092565b600080fd5b600080fd5b7f4e487b7100000000000000000000000000000000000000000000000000000000600052604160045260246000fd5b612d0c82612ae0565b810181811067ffffffffffffffff82111715612d2b57612d2a612cd4565b5b80604052505050565b6000612d3e6129c2565b9050612d4a8282612d03565b919050565b600067ffffffffffffffff821115612d6a57612d69612cd4565b5b612d7382612ae0565b9050602081019050919050565b82818337600083830152505050565b6000612da2612d9d84612d4f565b612d34565b905082815260208101848484011115612dbe57612dbd612ccf565b5b612dc9848285612d80565b509392505050565b600082601f830112612de657612de5612cca565b5b8135612df6848260208601612d8f565b91505092915050565b600060208284031215612e1557612e146129cc565b5b600082013567ffffffffffffffff811115612e3357612e326129d1565b5b612e3f84828501612dd1565b91505092915050565b600080fd5b600080fd5b60008083601f840112612e6857612e67612cca565b5b8235905067ffffffffffffffff811115612e8557612e84612e48565b5b602083019150836001820283011115612ea157612ea0612e4d565b5b9250929050565b60008060008060408587031215612ec257612ec16129cc565b5b600085013567ffffffffffffffff811115612ee057612edf6129d1565b5b612eec87828801612e52565b9450945050602085013567ffffffffffffffff811115612f0f57612f0e6129d1565b5b612f1b87828801612e52565b925092505092959194509250565b60008060208385031215612f4057612f3f6129cc565b5b600083013567ffffffffffffffff811115612f5e57612f5d6129d1565b5b612f6a85828601612e52565b92509250509250929050565b600060208284031215612f8c57612f8b6129cc565b5b6000612f9a84828501612c22565b91505092915050565b612fac81612b4c565b82525050565b6000602082019050612fc76000830184612fa3565b92915050565b612fd681612a5b565b8114612fe157600080fd5b50565b600081359050612ff381612fcd565b92915050565b600080604083850312156130105761300f6129cc565b5b600061301e85828601612c22565b925050602061302f85828601612fe4565b9150509250929050565b600080600060408486031215613052576130516129cc565b5b600084013567ffffffffffffffff8111156130705761306f6129d1565b5b61307c86828701612e52565b9350935050602061308f86828701612c22565b9150509250925092565b600067ffffffffffffffff8211156130b4576130b3612cd4565b5b6130bd82612ae0565b9050602081019050919050565b60006130dd6130d884613099565b612d34565b9050828152602081018484840111156130f9576130f8612ccf565b5b613104848285612d80565b509392505050565b600082601f83011261312157613120612cca565b5b81356131318482602086016130ca565b91505092915050565b60008060008060808587031215613154576131536129cc565b5b600061316287828801612c22565b945050602061317387828801612c22565b935050604061318487828801612b6d565b925050606085013567ffffffffffffffff8111156131a5576131a46129d1565b5b6131b18782880161310c565b91505092959194509250565b600080604083850312156131d4576131d36129cc565b5b60006131e285828601612c22565b92505060206131f385828601612c22565b9150509250929050565b7f4e487b7100000000000000000000000000000000000000000000000000000000600052602260045260246000fd5b6000600282049050600182168061324457607f821691505b60208210811415613258576132576131fd565b5b50919050565b7f4552433732313a20617070726f76616c20746f2063757272656e74206f776e6560008201527f7200000000000000000000000000000000000000000000000000000000000000602082015250565b60006132ba602183612a9c565b91506132c58261325e565b604082019050919050565b600060208201905081810360008301526132e9816132ad565b9050919050565b7f4552433732313a20617070726f76652063616c6c6572206973206e6f7420746f60008201527f6b656e206f776e6572206e6f7220617070726f76656420666f7220616c6c0000602082015250565b600061334c603e83612a9c565b9150613357826132f0565b604082019050919050565b6000602082019050818103600083015261337b8161333f565b9050919050565b7f4552433732313a2063616c6c6572206973206e6f7420746f6b656e206f776e6560008201527f72206e6f7220617070726f766564000000000000000000000000000000000000602082015250565b60006133de602e83612a9c565b91506133e982613382565b604082019050919050565b6000602082019050818103600083015261340d816133d1565b9050919050565b7f436f6e7472616374206973207061757365642e00000000000000000000000000600082015250565b600061344a601383612a9c565b915061345582613414565b602082019050919050565b600060208201905081810360008301526134798161343d565b9050919050565b600081905092915050565b60006134978385613480565b93506134a4838584612d80565b82840190509392505050565b60006134bd82848661348b565b91508190509392505050565b7f4f6e6c792061637475616c206f776e65722063616e20736574207265636f7264600082015250565b60006134ff602083612a9c565b915061350a826134c9565b602082019050919050565b6000602082019050818103600083015261352e816134f2565b9050919050565b7f4552433732313a20696e76616c696420746f6b656e2049440000000000000000600082015250565b600061356b601883612a9c565b915061357682613535565b602082019050919050565b6000602082019050818103600083015261359a8161355e565b9050919050565b7f4552433732313a2061646472657373207a65726f206973206e6f74206120766160008201527f6c6964206f776e65720000000000000000000000000000000000000000000000602082015250565b60006135fd602983612a9c565b9150613608826135a1565b604082019050919050565b6000602082019050818103600083015261362c816135f0565b9050919050565b7f4f6e6c7920636f6e7472616374206f776e65722063616e206368616e6765207060008201527f7269636500000000000000000000000000000000000000000000000000000000602082015250565b600061368f602483612a9c565b915061369a82613633565b604082019050919050565b600060208201905081810360008301526136be81613682565b9050919050565b7f4f6e6c792061637475616c206f776e65722063616e206368616e67652061646460008201527f7265737300000000000000000000000000000000000000000000000000000000602082015250565b6000613721602483612a9c565b915061372c826136c5565b604082019050919050565b6000602082019050818103600083015261375081613714565b9050919050565b600061376282612a91565b61376c8185613480565b935061377c818560208601612aad565b80840191505092915050565b60006137948285613757565b91506137a08284613757565b91508190509392505050565b7f4f6e6c792061637475616c206f776e65722063616e206d6f646966792069735060008201527f6175736564207374617475730000000000000000000000000000000000000000602082015250565b6000613808602c83612a9c565b9150613813826137ac565b604082019050919050565b60006020820190508181036000830152613837816137fb565b9050919050565b7f4e616d6520616c72656164792072656769737465726564000000000000000000600082015250565b6000613874601783612a9c565b915061387f8261383e565b602082019050919050565b600060208201905081810360008301526138a381613867565b9050919050565b7f496d706f737369626c6520746f2072656769737465722074686973206e616d65600082015250565b60006138e0602083612a9c565b91506138eb826138aa565b602082019050919050565b6000602082019050818103600083015261390f816138d3565b9050919050565b7f4e6f7420656e6f756768206d6f6e657900000000000000000000000000000000600082015250565b600061394c601083612a9c565b915061395782613916565b602082019050919050565b6000602082019050818103600083015261397b8161393f565b9050919050565b7f2e00000000000000000000000000000000000000000000000000000000000000600082015250565b60006139b8600183613480565b91506139c382613982565b600182019050919050565b60008190508160005260206000209050919050565b600081546139f08161322c565b6139fa8186613480565b94506001821660008114613a155760018114613a2657613a59565b60ff19831686528186019350613a59565b613a2f856139ce565b60005b83811015613a5157815481890152600182019150602081019050613a32565b838801955050505b50505092915050565b6000613a6f82858761348b565b9150613a7a826139ab565b9150613a8682846139e3565b9150819050949350505050565b6000613a9f82866139e3565b9150613aab8285613757565b9150613ab782846139e3565b9150819050949350505050565b7f7b226e616d65223a202200000000000000000000000000000000000000000000600082015250565b6000613afa600a83613480565b9150613b0582613ac4565b600a82019050919050565b7f222c20226465736372697074696f6e223a20224120646f6d61696e206f6e207460008201527f68652050616e6461206e616d652073657276696365222c2022696d616765223a60208201527f2022646174613a696d6167652f7376672b786d6c3b6261736536342c00000000604082015250565b6000613b92605c83613480565b9150613b9d82613b10565b605c82019050919050565b7f222c226c656e677468223a220000000000000000000000000000000000000000600082015250565b6000613bde600c83613480565b9150613be982613ba8565b600c82019050919050565b7f227d000000000000000000000000000000000000000000000000000000000000600082015250565b6000613c2a600283613480565b9150613c3582613bf4565b600282019050919050565b6000613c4b82613aed565b9150613c578286613757565b9150613c6282613b85565b9150613c6e8285613757565b9150613c7982613bd1565b9150613c858284613757565b9150613c9082613c1d565b9150819050949350505050565b7f646174613a6170706c69636174696f6e2f6a736f6e3b6261736536342c000000600082015250565b6000613cd3601d83613480565b9150613cde82613c9d565b601d82019050919050565b6000613cf482613cc6565b9150613d008284613757565b915081905092915050565b7f4552433732313a207472616e736665722066726f6d20696e636f72726563742060008201527f6f776e6572000000000000000000000000000000000000000000000000000000602082015250565b6000613d67602583612a9c565b9150613d7282613d0b565b604082019050919050565b60006020820190508181036000830152613d9681613d5a565b9050919050565b7f4552433732313a207472616e7366657220746f20746865207a65726f2061646460008201527f7265737300000000000000000000000000000000000000000000000000000000602082015250565b6000613df9602483612a9c565b9150613e0482613d9d565b604082019050919050565b60006020820190508181036000830152613e2881613dec565b9050919050565b7f4e487b7100000000000000000000000000000000000000000000000000000000600052601160045260246000fd5b6000613e6982612b4c565b9150613e7483612b4c565b925082821015613e8757613e86613e2f565b5b828203905092915050565b6000613e9d82612b4c565b9150613ea883612b4c565b9250827fffffffffffffffffffffffffffffffffffffffffffffffffffffffffffffffff03821115613edd57613edc613e2f565b5b828201905092915050565b7f4552433732313a20617070726f766520746f2063616c6c657200000000000000600082015250565b6000613f1e601983612a9c565b9150613f2982613ee8565b602082019050919050565b60006020820190508181036000830152613f4d81613f11565b9050919050565b7f4552433732313a207472616e7366657220746f206e6f6e20455243373231526560008201527f63656976657220696d706c656d656e7465720000000000000000000000000000602082015250565b6000613fb0603283612a9c565b9150613fbb82613f54565b604082019050919050565b60006020820190508181036000830152613fdf81613fa3565b9050919050565b7f4e487b7100000000000000000000000000000000000000000000000000000000600052603260045260246000fd5b600061402082612b4c565b91507fffffffffffffffffffffffffffffffffffffffffffffffffffffffffffffffff82141561405357614052613e2f565b5b600182019050919050565b7f4e487b7100000000000000000000000000000000000000000000000000000000600052601260045260246000fd5b600061409882612b4c565b91506140a383612b4c565b9250826140b3576140b261405e565b5b828204905092915050565b60006140c982612b4c565b91506140d483612b4c565b9250826140e4576140e361405e565b5b828206905092915050565b60006140fa82612b4c565b915061410583612b4c565b9250817fffffffffffffffffffffffffffffffffffffffffffffffffffffffffffffffff048311821515161561413e5761413d613e2f565b5b828202905092915050565b7f45524337323155524953746f726167653a2055524920736574206f66206e6f6e60008201527f6578697374656e7420746f6b656e000000000000000000000000000000000000602082015250565b60006141a5602e83612a9c565b91506141b082614149565b604082019050919050565b600060208201905081810360008301526141d481614198565b9050919050565b600081519050919050565b600082825260208201905092915050565b6000614202826141db565b61420c81856141e6565b935061421c818560208601612aad565b61422581612ae0565b840191505092915050565b60006080820190506142456000830187612be1565b6142526020830186612be1565b61425f6040830185612fa3565b818103606083015261427181846141f7565b905095945050505050565b60008151905061428b81612a02565b92915050565b6000602082840312156142a7576142a66129cc565b5b60006142b58482850161427c565b91505092915050565b7f4552433732313a206d696e7420746f20746865207a65726f2061646472657373600082015250565b60006142f4602083612a9c565b91506142ff826142be565b602082019050919050565b60006020820190508181036000830152614323816142e7565b9050919050565b7f4552433732313a20746f6b656e20616c7265616479206d696e74656400000000600082015250565b6000614360601c83612a9c565b915061436b8261432a565b602082019050919050565b6000602082019050818103600083015261438f81614353565b905091905056fe4142434445464748494a4b4c4d4e4f505152535455565758595a6162636465666768696a6b6c6d6e6f707172737475767778797a303132333435363738392b2fa26469706673582212207c73ddfad1e03fbbfd35f9e8b4a4b60039a748c9008ff1ed68c5439651b32f1664736f6c634300080a00333c73766720786d6c6e733d22687474703a2f2f7777772e77332e6f72672f323030302f737667222077696474683d2232373022206865696768743d22323730222066696c6c3d226e6f6e65223e3c706174682066696c6c3d2275726c282361292220643d224d302030683237307632373048307a222f3e3c646566733e3c66696c7465722069643d22622220636f6c6f722d696e746572706f6c6174696f6e2d66696c746572733d2273524742222066696c746572556e6974733d227573657253706163654f6e55736522206865696768743d22323730222077696474683d22323730223e3c666544726f70536861646f772064783d2230222064793d22312220737464446576696174696f6e3d22322220666c6f6f642d6f7061636974793d222e323235222077696474683d223230302522206865696768743d2232303025222f3e3c2f66696c7465723e3c2f646566733e3c7061746820643d226d3134332e3735362037322e38312d372e3531392d372e353739632d2e3430352d332e3232392d322e3530352d31332e39362d31322e3839352d32302e3233612e3935352e3935352030203020302d2e31342d2e3037352038362e3030362038362e3030362030203020302d312e3338352d332e37363920322e333420322e33342030203020302d332e35312d312e303534632d2e31382e3133312d312e3031362e3731362d322e30323520312e362d322e3733342d312e3332352d31302e3633392d342e3738352d32312e3330342d362e33373561372e393820372e39382030203020302d322e3332352d312e363435632d322e37382d312e3330352d372e3931352d312e3636352d31332e39333920312e32343561342e323320342e32332030203020302d2e3631352e3336632d31332e3834312d322e36372d32362e32382d322e3930352d33362e39382d2e3638352d392e31363120312e392d31372e31323520352e3539352d32332e36362031302e393843332e3130352035372e333620302037332e35373520302037362e3935633020352e33393620332e303920392e31303520342e36382031302e3635342d322e3734392031332e3233352d322e3231362032312e3532392d322e3137392032312e39353661322e333420322e333420302030203020322e33333520322e3136356831342e393761322e333420322e333420302030203020322e33342d322e333463302d322e3332312d2e3637352d342e3030352d312e35332d352e313735613230372e363035203230372e36303520302030203020372e3333392d382e38632e3620342e313420312e39303520392e38313520342e3736362031352e303961322e333420322e333420302030203020322e30353520312e32326831372e34373161322e333420322e333420302030203020322e3333352d322e3438362031372e3132372031372e3132372030203020302d2e3934312d342e333939632d312e3034352d322e3836312d322e36312d342e322d342e30352d342e3831762d382e31393463342e3837352d2e30383620392e3937392d2e3634352031342e3533352d322e3036362e33332031302e33353420332e3138352031392e373720332e3334392032302e32393961322e333420322e333420302030203020322e32333520312e36356831372e34373161322e333420322e333420302030203020322e33342d322e323436632e3031352d2e3332362e3037352d332e3231342d312e39382d352e3335352d2e35392d2e3631392d312e3531352d312e33322d322e3836312d312e3732352e3439352d332e31333920322e31332d382e30313420342e3437342d31332e3138356139322e3539392039322e35393920302030203120312e3039352d322e33323563332e313720362e323820392e3735352031382e3036342031362e3930352032332e353820312e3035342e38323120322e33383120312e32353620332e3820312e3235366831332e363661322e333420322e333420302030203020322e33342d322e333835632d2e30362d322e38322d312e39322d362e39362d362e3736352d372e3237312d312e3634352d312e382d352e3131312d31302e3639312d372e3732392d31382e39353620322e36342e3320342e3937362e363620362e35363620312e303820372e313920312e3930352031352e303620322e3534362031352e333920322e35363561322e333420322e333420302030203020322e3035352d2e39336c372e3438352d392e39373961322e333420322e33342030203020302d2e32312d332e30357a6d2d32372e3130352d32342e36632e3436352d2e373820312e31392d312e35383520312e3933352d322e3239352e33373520312e3036352e373720322e32363520312e30353420332e3331352d2e3631392e3439352d312e383620312e3231352d332e323920312e39322d2e31322d312e3134352d2e3038362d322e33312e332d322e39357a4d31352e353835203130322e383235632d2e3535352e3630352d2e383720312e3431342d2e363320322e3230352e3232352e3736352e373220312e33323520312e34383520312e3534352e30392e30362e3237342e3139352e3436352e343736682d392e3738632e3031312d312e3336392e30362d332e33362e3237342d352e3837352e33392d342e363820312e34312d31322e31393520342e30332d32312e3337352e32312d2e37322e37352d312e33333520312e3434342d312e36333520322e3632352d312e31313520372e3833352d322e3731352031322e37322d332e3620372e322d312e33303520392e30372d2e32383920392e3334352d2e3039352d2e30313520352e32352d31312e38372032302e3137352d31392e33352032382e3335347a6d32302e36323520342e3233632d332e3333342d362e38382d332e3934352d31342e3434312d342e30362d31362e38343520322e37392e363420372e343520312e33342031322e37363520312e3537317631302e31323561322e333420322e333420302030203020322e333420322e333463312e303835203020312e37383520312e343120322e313920322e3830354833362e32317a4d36362e33332037312e3838613538352e333235203538352e3332352030203020312d312e33393520372e303935632d2e333920312e3930352d2e363320332e38372d2e37343620352e3835342d392e343820332e3532352d32322e383920322e3336352d32392e3420312e31343520342e3832352d372e35303520342e3832352d31302e33393920342e3832352d31312e353220302d312e36322d2e37362d332e3031312d322e31332d332e3931352d352e3537352d332e3637392d32322e323320312e3531392d32362e343520332e333261372e31393420372e3139342030203020302d342e313120342e363535203133352e303435203133352e3034352030203020302d2e38383920332e323734632d2e3733352d312e32372d312e3335352d322e39312d312e3335352d342e38343520302d322e34343120322e37332d31372e3038352031352e37322d32372e37372031322e38312d31302e3534352033312e3130352d31332e3831352035342e33392d392e37352d332e323120362e3139352d352e3634342031372e3830352d382e3437312033322e34357a6d31332e35332033322e35393561322e333420322e333420302030203020322e333420322e323635632e363435203020312e3135392e31303520312e3534352e3331354837312e343934632d312e3137352d342e34362d342e30352d31372e312d312e39382d32372e3133352e3433352d322e312e3930342d342e353520312e34312d372e31353520312e3239342d362e373220322e3930352d31352e303920342e3732352d32312e38323120322e37382d31302e32373120342e37312d31312e36343520352e30372d31312e383220332e3634352d312e37353520372e3732352d322e323620392e39332d312e32322e3934312e343420312e3520312e31323920312e373620322e3137352e32353520312e30322e363920322e34313520312e31383520342e303220322e313620362e39363420362e36362032312e34363520312e39332032362e3139352d362e39373520362e3937352d31352e392032362e34352d31352e36362033342e31377a6d33392e373720322e323635632e363435203020312e3039352e313220312e3432392e333135682d31302e313035632d2e33373520302d2e3731362d2e3039352d2e3934352d2e3237342d372e3731342d352e3935352d31352e3138342d32312e30362d31372e3032392d32342e393620322e3233352e30383620382e34322e3334312031342e3434312e3832352e3130392e333720312e37383520352e38313620332e3835392031312e33353520342e30322031302e37313420362e30342031322e373520382e3334352031322e37357a6d31332e38392d32342e373631632d322e3437352d2e3235352d382e3134352d2e3934352d31332e32392d322e3330352d352e3436342d312e3434342d31382e3133352d322e31362d32342e3338362d322e34343120312e3033352d312e343620322e30342d322e36383920322e3938312d332e363320362e3732342d362e37323420322e30342d32312e3835352d2e3736352d33302e3838392d2e3235352d2e3832312d2e3439312d312e3537352d2e36392d322e32343620372e313320312e3338352031322e37303120332e35362031352e353720342e38346131302e39322031302e39322030203020302d2e3330342e343931632d322e30303620332e3333342d2e353420382e3431352d2e32323520392e34303561322e333420322e333420302030203020332e31303920312e3435352035302e34332035302e343320302030203020342e31322d312e39333563312e38352d2e393920332e3538352d322e30383520342e3338352d332e34323520332e34323520332e30343120352e33323520362e373220362e33363520392e36392030202e30362030202e31322e3031312e3139312e31303520312e3031362d312e323920332e3739312d322e35393520352e363461322e333420322e333420302030203020332e38323120322e372032362e3936352032362e393635203020302030202e3930342d312e3336396c362e343720362e3532352d352e343920372e33327a222066696c6c3d2223666666222f3e3c646566733e3c6c696e6561724772616469656e742069643d2261222078313d2230222079313d2230222078323d22323730222079323d2232373022206772616469656e74556e6974733d227573657253706163654f6e557365223e3c73746f702073746f702d636f6c6f723d2223464646222f3e3c73746f70206f66667365743d2231222073746f702d6f7061636974793d222e3939222f3e3c2f6c696e6561724772616469656e743e3c2f646566733e3c7465787420783d2233322e352220793d223233312220666f6e742d73697a653d223237222066696c6c3d2223666666222066696c7465723d2275726c282362292220666f6e742d66616d696c793d2273616e732d73657269662c4e6f746f20436f6c6f7220456d6f6a692c204170706c6520436f6c6f7220456d6f6a692220666f6e742d7765696768743d22626f6c64223e",
  "linkReferences": {},
  "deployedLinkReferences": {}
}